{
	"data": {
		"bytecode": {
			"linkReferences": {},
			"object": "61010060405234801562000011575f80fd5b506040516200121a3803806200121a833981810160405281019062000037919062000172565b80600160035f82608081815250508160a081815250508060c081815250505050505f73ffffffffffffffffffffffffffffffffffffffff168173ffffffffffffffffffffffffffffffffffffffff1603620000be576040517f83780ffe00000000000000000000000000000000000000000000000000000000815260040160405180910390fd5b8073ffffffffffffffffffffffffffffffffffffffff1660e08173ffffffffffffffffffffffffffffffffffffffff16815250505050620001a2565b5f80fd5b5f73ffffffffffffffffffffffffffffffffffffffff82169050919050565b5f6200012982620000fe565b9050919050565b5f6200013c826200011d565b9050919050565b6200014e8162000130565b811462000159575f80fd5b50565b5f815190506200016c8162000143565b92915050565b5f602082840312156200018a5762000189620000fa565b5b5f62000199848285016200015c565b91505092915050565b60805160a05160c05160e051611044620001d65f395f61075b01525f61038201525f61035901525f61033001526110445ff3fe60806040526004361061007e575f3560e01c8063ce46e0461161004d578063ce46e04614610179578063e49617e1146101a3578063e4dad1c4146101d3578063e60c350514610211576100c3565b80632a60bdd9146100c757806354fd4d50146100ef57806388e5b2d91461011957806391db0b7e14610149576100c3565b366100c35761008b610241565b6100c1576040517f1574f9f300000000000000000000000000000000000000000000000000000000815260040160405180910390fd5b005b5f80fd5b3480156100d2575f80fd5b506100ed60048036038101906100e89190610a83565b610245565b005b3480156100fa575f80fd5b50610103610329565b6040516101109190610b5d565b60405180910390f35b610133600480360381019061012e9190610c33565b6103cc565b6040516101409190610ccb565b60405180910390f35b610163600480360381019061015e9190610c33565b6104e1565b6040516101709190610ccb565b60405180910390f35b348015610184575f80fd5b5061018d610241565b60405161019a9190610ccb565b60405180910390f35b6101bd60048036038101906101b89190610d07565b6105f6565b6040516101ca9190610ccb565b60405180910390f35b3480156101de575f80fd5b506101f960048036038101906101f49190610d81565b610610565b60405161020893929190610dca565b60405180910390f35b61022b60048036038101906102269190610d07565b610675565b6040516102389190610ccb565b60405180910390f35b5f90565b5f60405180606001604052808567ffffffffffffffff1681526020018467ffffffffffffffff1681526020018363ffffffff1681525090505f81908060018154018082558091505060019003905f5260205f20015f909190919091505f820151815f015f6101000a81548167ffffffffffffffff021916908367ffffffffffffffff1602179055506020820151815f0160086101000a81548167ffffffffffffffff021916908367ffffffffffffffff1602179055506040820151815f0160106101000a81548163ffffffff021916908363ffffffff160217905550505050505050565b60606103547f000000000000000000000000000000000000000000000000000000000000000061068f565b61037d7f000000000000000000000000000000000000000000000000000000000000000061068f565b6103a67f000000000000000000000000000000000000000000000000000000000000000061068f565b6040516020016103b893929190610e83565b604051602081830303815290604052905090565b5f6103d5610759565b5f858590509050838390508114610418576040517f947d5a8400000000000000000000000000000000000000000000000000000000815260040160405180910390fd5b5f3490505f5b828110156104d1575f86868381811061043a57610439610ec9565b5b9050602002013590508281111561047d576040517f1101129400000000000000000000000000000000000000000000000000000000815260040160405180910390fd5b6104ab89898481811061049357610492610ec9565b5b90506020028101906104a59190610f02565b826107e0565b6104bb575f9450505050506104d9565b8083039250506104ca81610844565b905061041e565b506001925050505b949350505050565b5f6104ea610759565b5f85859050905083839050811461052d576040517f947d5a8400000000000000000000000000000000000000000000000000000000815260040160405180910390fd5b5f3490505f5b828110156105e6575f86868381811061054f5761054e610ec9565b5b90506020020135905082811115610592576040517f1101129400000000000000000000000000000000000000000000000000000000815260040160405180910390fd5b6105c08989848181106105a8576105a7610ec9565b5b90506020028101906105ba9190610f02565b82610850565b6105d0575f9450505050506105ee565b8083039250506105df81610844565b9050610533565b506001925050505b949350505050565b5f6105ff610759565b61060982346107e0565b9050919050565b5f818154811061061e575f80fd5b905f5260205f20015f91509050805f015f9054906101000a900467ffffffffffffffff1690805f0160089054906101000a900467ffffffffffffffff1690805f0160109054906101000a900463ffffffff16905083565b5f61067e610759565b6106888234610850565b9050919050565b60605f600161069d846108b4565b0190505f8167ffffffffffffffff8111156106bb576106ba610f2a565b5b6040519080825280601f01601f1916602001820160405280156106ed5781602001600182028036833780820191505090505b5090505f82602001820190505b60011561074e578080600190039150507f3031323334353637383961626364656600000000000000000000000000000000600a86061a8153600a858161074357610742610f57565b5b0494505f85036106fa575b819350505050919050565b7f000000000000000000000000000000000000000000000000000000000000000073ffffffffffffffffffffffffffffffffffffffff163373ffffffffffffffffffffffffffffffffffffffff16146107de576040517f4ca8886700000000000000000000000000000000000000000000000000000000815260040160405180910390fd5b565b5f80838061012001906107f39190610f84565b8101906108009190610d81565b90507f61e27b0bfd8e18e6b92ec32ce1c28bb698d27bfe93e84c7e94d4db0a3135c760816040516108319190610ff5565b60405180910390a1600191505092915050565b5f600182019050919050565b5f80838061012001906108639190610f84565b8101906108709190610d81565b90507f406d6b56e7b0f2ea2d981907ff7082b8d06a927181752ebcc6c4a7853b06a892816040516108a19190610ff5565b60405180910390a1600191505092915050565b5f805f90507a184f03e93ff9f4daa797ed6e38ed64bf6a1f0100000000000000008310610910577a184f03e93ff9f4daa797ed6e38ed64bf6a1f010000000000000000838161090657610905610f57565b5b0492506040810190505b6d04ee2d6d415b85acef8100000000831061094d576d04ee2d6d415b85acef8100000000838161094357610942610f57565b5b0492506020810190505b662386f26fc10000831061097c57662386f26fc10000838161097257610971610f57565b5b0492506010810190505b6305f5e10083106109a5576305f5e100838161099b5761099a610f57565b5b0492506008810190505b61271083106109ca5761271083816109c0576109bf610f57565b5b0492506004810190505b606483106109ed57606483816109e3576109e2610f57565b5b0492506002810190505b600a83106109fc576001810190505b80915050919050565b5f80fd5b5f80fd5b5f67ffffffffffffffff82169050919050565b610a2981610a0d565b8114610a33575f80fd5b50565b5f81359050610a4481610a20565b92915050565b5f63ffffffff82169050919050565b610a6281610a4a565b8114610a6c575f80fd5b50565b5f81359050610a7d81610a59565b92915050565b5f805f60608486031215610a9a57610a99610a05565b5b5f610aa786828701610a36565b9350506020610ab886828701610a36565b9250506040610ac986828701610a6f565b9150509250925092565b5f81519050919050565b5f82825260208201905092915050565b5f5b83811015610b0a578082015181840152602081019050610aef565b5f8484015250505050565b5f601f19601f8301169050919050565b5f610b2f82610ad3565b610b398185610add565b9350610b49818560208601610aed565b610b5281610b15565b840191505092915050565b5f6020820190508181035f830152610b758184610b25565b905092915050565b5f80fd5b5f80fd5b5f80fd5b5f8083601f840112610b9e57610b9d610b7d565b5b8235905067ffffffffffffffff811115610bbb57610bba610b81565b5b602083019150836020820283011115610bd757610bd6610b85565b5b9250929050565b5f8083601f840112610bf357610bf2610b7d565b5b8235905067ffffffffffffffff811115610c1057610c0f610b81565b5b602083019150836020820283011115610c2c57610c2b610b85565b5b9250929050565b5f805f8060408587031215610c4b57610c4a610a05565b5b5f85013567ffffffffffffffff811115610c6857610c67610a09565b5b610c7487828801610b89565b9450945050602085013567ffffffffffffffff811115610c9757610c96610a09565b5b610ca387828801610bde565b925092505092959194509250565b5f8115159050919050565b610cc581610cb1565b82525050565b5f602082019050610cde5f830184610cbc565b92915050565b5f80fd5b5f6101408284031215610cfe57610cfd610ce4565b5b81905092915050565b5f60208284031215610d1c57610d1b610a05565b5b5f82013567ffffffffffffffff811115610d3957610d38610a09565b5b610d4584828501610ce8565b91505092915050565b5f819050919050565b610d6081610d4e565b8114610d6a575f80fd5b50565b5f81359050610d7b81610d57565b92915050565b5f60208284031215610d9657610d95610a05565b5b5f610da384828501610d6d565b91505092915050565b610db581610a0d565b82525050565b610dc481610a4a565b82525050565b5f606082019050610ddd5f830186610dac565b610dea6020830185610dac565b610df76040830184610dbb565b949350505050565b5f81905092915050565b5f610e1382610ad3565b610e1d8185610dff565b9350610e2d818560208601610aed565b80840191505092915050565b7f2e000000000000000000000000000000000000000000000000000000000000005f82015250565b5f610e6d600183610dff565b9150610e7882610e39565b600182019050919050565b5f610e8e8286610e09565b9150610e9982610e61565b9150610ea58285610e09565b9150610eb082610e61565b9150610ebc8284610e09565b9150819050949350505050565b7f4e487b71000000000000000000000000000000000000000000000000000000005f52603260045260245ffd5b5f80fd5b5f80fd5b5f80fd5b5f8235600161014003833603038112610f1e57610f1d610ef6565b5b80830191505092915050565b7f4e487b71000000000000000000000000000000000000000000000000000000005f52604160045260245ffd5b7f4e487b71000000000000000000000000000000000000000000000000000000005f52601260045260245ffd5b5f8083356001602003843603038112610fa057610f9f610ef6565b5b80840192508235915067ffffffffffffffff821115610fc257610fc1610efa565b5b602083019250600182023603831315610fde57610fdd610efe565b5b509250929050565b610fef81610d4e565b82525050565b5f6020820190506110085f830184610fe6565b9291505056fea264697066735822122085d0fb62f7d296513031cc86c0356aa2d109d41579522093be9729b4a327048164736f6c63430008180033",
			"opcodes": "PUSH2 0x100 PUSH1 0x40 MSTORE CALLVALUE DUP1 ISZERO PUSH3 0x11 JUMPI PUSH0 DUP1 REVERT JUMPDEST POP PUSH1 0x40 MLOAD PUSH3 0x121A CODESIZE SUB DUP1 PUSH3 0x121A DUP4 CODECOPY DUP2 DUP2 ADD PUSH1 0x40 MSTORE DUP2 ADD SWAP1 PUSH3 0x37 SWAP2 SWAP1 PUSH3 0x172 JUMP JUMPDEST DUP1 PUSH1 0x1 PUSH1 0x3 PUSH0 DUP3 PUSH1 0x80 DUP2 DUP2 MSTORE POP POP DUP2 PUSH1 0xA0 DUP2 DUP2 MSTORE POP POP DUP1 PUSH1 0xC0 DUP2 DUP2 MSTORE POP POP POP POP POP PUSH0 PUSH20 0xFFFFFFFFFFFFFFFFFFFFFFFFFFFFFFFFFFFFFFFF AND DUP2 PUSH20 0xFFFFFFFFFFFFFFFFFFFFFFFFFFFFFFFFFFFFFFFF AND SUB PUSH3 0xBE JUMPI PUSH1 0x40 MLOAD PUSH32 0x83780FFE00000000000000000000000000000000000000000000000000000000 DUP2 MSTORE PUSH1 0x4 ADD PUSH1 0x40 MLOAD DUP1 SWAP2 SUB SWAP1 REVERT JUMPDEST DUP1 PUSH20 0xFFFFFFFFFFFFFFFFFFFFFFFFFFFFFFFFFFFFFFFF AND PUSH1 0xE0 DUP2 PUSH20 0xFFFFFFFFFFFFFFFFFFFFFFFFFFFFFFFFFFFFFFFF AND DUP2 MSTORE POP POP POP POP PUSH3 0x1A2 JUMP JUMPDEST PUSH0 DUP1 REVERT JUMPDEST PUSH0 PUSH20 0xFFFFFFFFFFFFFFFFFFFFFFFFFFFFFFFFFFFFFFFF DUP3 AND SWAP1 POP SWAP2 SWAP1 POP JUMP JUMPDEST PUSH0 PUSH3 0x129 DUP3 PUSH3 0xFE JUMP JUMPDEST SWAP1 POP SWAP2 SWAP1 POP JUMP JUMPDEST PUSH0 PUSH3 0x13C DUP3 PUSH3 0x11D JUMP JUMPDEST SWAP1 POP SWAP2 SWAP1 POP JUMP JUMPDEST PUSH3 0x14E DUP2 PUSH3 0x130 JUMP JUMPDEST DUP2 EQ PUSH3 0x159 JUMPI PUSH0 DUP1 REVERT JUMPDEST POP JUMP JUMPDEST PUSH0 DUP2 MLOAD SWAP1 POP PUSH3 0x16C DUP2 PUSH3 0x143 JUMP JUMPDEST SWAP3 SWAP2 POP POP JUMP JUMPDEST PUSH0 PUSH1 0x20 DUP3 DUP5 SUB SLT ISZERO PUSH3 0x18A JUMPI PUSH3 0x189 PUSH3 0xFA JUMP JUMPDEST JUMPDEST PUSH0 PUSH3 0x199 DUP5 DUP3 DUP6 ADD PUSH3 0x15C JUMP JUMPDEST SWAP2 POP POP SWAP3 SWAP2 POP POP JUMP JUMPDEST PUSH1 0x80 MLOAD PUSH1 0xA0 MLOAD PUSH1 0xC0 MLOAD PUSH1 0xE0 MLOAD PUSH2 0x1044 PUSH3 0x1D6 PUSH0 CODECOPY PUSH0 PUSH2 0x75B ADD MSTORE PUSH0 PUSH2 0x382 ADD MSTORE PUSH0 PUSH2 0x359 ADD MSTORE PUSH0 PUSH2 0x330 ADD MSTORE PUSH2 0x1044 PUSH0 RETURN INVALID PUSH1 0x80 PUSH1 0x40 MSTORE PUSH1 0x4 CALLDATASIZE LT PUSH2 0x7E JUMPI PUSH0 CALLDATALOAD PUSH1 0xE0 SHR DUP1 PUSH4 0xCE46E046 GT PUSH2 0x4D JUMPI DUP1 PUSH4 0xCE46E046 EQ PUSH2 0x179 JUMPI DUP1 PUSH4 0xE49617E1 EQ PUSH2 0x1A3 JUMPI DUP1 PUSH4 0xE4DAD1C4 EQ PUSH2 0x1D3 JUMPI DUP1 PUSH4 0xE60C3505 EQ PUSH2 0x211 JUMPI PUSH2 0xC3 JUMP JUMPDEST DUP1 PUSH4 0x2A60BDD9 EQ PUSH2 0xC7 JUMPI DUP1 PUSH4 0x54FD4D50 EQ PUSH2 0xEF JUMPI DUP1 PUSH4 0x88E5B2D9 EQ PUSH2 0x119 JUMPI DUP1 PUSH4 0x91DB0B7E EQ PUSH2 0x149 JUMPI PUSH2 0xC3 JUMP JUMPDEST CALLDATASIZE PUSH2 0xC3 JUMPI PUSH2 0x8B PUSH2 0x241 JUMP JUMPDEST PUSH2 0xC1 JUMPI PUSH1 0x40 MLOAD PUSH32 0x1574F9F300000000000000000000000000000000000000000000000000000000 DUP2 MSTORE PUSH1 0x4 ADD PUSH1 0x40 MLOAD DUP1 SWAP2 SUB SWAP1 REVERT JUMPDEST STOP JUMPDEST PUSH0 DUP1 REVERT JUMPDEST CALLVALUE DUP1 ISZERO PUSH2 0xD2 JUMPI PUSH0 DUP1 REVERT JUMPDEST POP PUSH2 0xED PUSH1 0x4 DUP1 CALLDATASIZE SUB DUP2 ADD SWAP1 PUSH2 0xE8 SWAP2 SWAP1 PUSH2 0xA83 JUMP JUMPDEST PUSH2 0x245 JUMP JUMPDEST STOP JUMPDEST CALLVALUE DUP1 ISZERO PUSH2 0xFA JUMPI PUSH0 DUP1 REVERT JUMPDEST POP PUSH2 0x103 PUSH2 0x329 JUMP JUMPDEST PUSH1 0x40 MLOAD PUSH2 0x110 SWAP2 SWAP1 PUSH2 0xB5D JUMP JUMPDEST PUSH1 0x40 MLOAD DUP1 SWAP2 SUB SWAP1 RETURN JUMPDEST PUSH2 0x133 PUSH1 0x4 DUP1 CALLDATASIZE SUB DUP2 ADD SWAP1 PUSH2 0x12E SWAP2 SWAP1 PUSH2 0xC33 JUMP JUMPDEST PUSH2 0x3CC JUMP JUMPDEST PUSH1 0x40 MLOAD PUSH2 0x140 SWAP2 SWAP1 PUSH2 0xCCB JUMP JUMPDEST PUSH1 0x40 MLOAD DUP1 SWAP2 SUB SWAP1 RETURN JUMPDEST PUSH2 0x163 PUSH1 0x4 DUP1 CALLDATASIZE SUB DUP2 ADD SWAP1 PUSH2 0x15E SWAP2 SWAP1 PUSH2 0xC33 JUMP JUMPDEST PUSH2 0x4E1 JUMP JUMPDEST PUSH1 0x40 MLOAD PUSH2 0x170 SWAP2 SWAP1 PUSH2 0xCCB JUMP JUMPDEST PUSH1 0x40 MLOAD DUP1 SWAP2 SUB SWAP1 RETURN JUMPDEST CALLVALUE DUP1 ISZERO PUSH2 0x184 JUMPI PUSH0 DUP1 REVERT JUMPDEST POP PUSH2 0x18D PUSH2 0x241 JUMP JUMPDEST PUSH1 0x40 MLOAD PUSH2 0x19A SWAP2 SWAP1 PUSH2 0xCCB JUMP JUMPDEST PUSH1 0x40 MLOAD DUP1 SWAP2 SUB SWAP1 RETURN JUMPDEST PUSH2 0x1BD PUSH1 0x4 DUP1 CALLDATASIZE SUB DUP2 ADD SWAP1 PUSH2 0x1B8 SWAP2 SWAP1 PUSH2 0xD07 JUMP JUMPDEST PUSH2 0x5F6 JUMP JUMPDEST PUSH1 0x40 MLOAD PUSH2 0x1CA SWAP2 SWAP1 PUSH2 0xCCB JUMP JUMPDEST PUSH1 0x40 MLOAD DUP1 SWAP2 SUB SWAP1 RETURN JUMPDEST CALLVALUE DUP1 ISZERO PUSH2 0x1DE JUMPI PUSH0 DUP1 REVERT JUMPDEST POP PUSH2 0x1F9 PUSH1 0x4 DUP1 CALLDATASIZE SUB DUP2 ADD SWAP1 PUSH2 0x1F4 SWAP2 SWAP1 PUSH2 0xD81 JUMP JUMPDEST PUSH2 0x610 JUMP JUMPDEST PUSH1 0x40 MLOAD PUSH2 0x208 SWAP4 SWAP3 SWAP2 SWAP1 PUSH2 0xDCA JUMP JUMPDEST PUSH1 0x40 MLOAD DUP1 SWAP2 SUB SWAP1 RETURN JUMPDEST PUSH2 0x22B PUSH1 0x4 DUP1 CALLDATASIZE SUB DUP2 ADD SWAP1 PUSH2 0x226 SWAP2 SWAP1 PUSH2 0xD07 JUMP JUMPDEST PUSH2 0x675 JUMP JUMPDEST PUSH1 0x40 MLOAD PUSH2 0x238 SWAP2 SWAP1 PUSH2 0xCCB JUMP JUMPDEST PUSH1 0x40 MLOAD DUP1 SWAP2 SUB SWAP1 RETURN JUMPDEST PUSH0 SWAP1 JUMP JUMPDEST PUSH0 PUSH1 0x40 MLOAD DUP1 PUSH1 0x60 ADD PUSH1 0x40 MSTORE DUP1 DUP6 PUSH8 0xFFFFFFFFFFFFFFFF AND DUP2 MSTORE PUSH1 0x20 ADD DUP5 PUSH8 0xFFFFFFFFFFFFFFFF AND DUP2 MSTORE PUSH1 0x20 ADD DUP4 PUSH4 0xFFFFFFFF AND DUP2 MSTORE POP SWAP1 POP PUSH0 DUP2 SWAP1 DUP1 PUSH1 0x1 DUP2 SLOAD ADD DUP1 DUP3 SSTORE DUP1 SWAP2 POP POP PUSH1 0x1 SWAP1 SUB SWAP1 PUSH0 MSTORE PUSH1 0x20 PUSH0 KECCAK256 ADD PUSH0 SWAP1 SWAP2 SWAP1 SWAP2 SWAP1 SWAP2 POP PUSH0 DUP3 ADD MLOAD DUP2 PUSH0 ADD PUSH0 PUSH2 0x100 EXP DUP2 SLOAD DUP2 PUSH8 0xFFFFFFFFFFFFFFFF MUL NOT AND SWAP1 DUP4 PUSH8 0xFFFFFFFFFFFFFFFF AND MUL OR SWAP1 SSTORE POP PUSH1 0x20 DUP3 ADD MLOAD DUP2 PUSH0 ADD PUSH1 0x8 PUSH2 0x100 EXP DUP2 SLOAD DUP2 PUSH8 0xFFFFFFFFFFFFFFFF MUL NOT AND SWAP1 DUP4 PUSH8 0xFFFFFFFFFFFFFFFF AND MUL OR SWAP1 SSTORE POP PUSH1 0x40 DUP3 ADD MLOAD DUP2 PUSH0 ADD PUSH1 0x10 PUSH2 0x100 EXP DUP2 SLOAD DUP2 PUSH4 0xFFFFFFFF MUL NOT AND SWAP1 DUP4 PUSH4 0xFFFFFFFF AND MUL OR SWAP1 SSTORE POP POP POP POP POP POP POP JUMP JUMPDEST PUSH1 0x60 PUSH2 0x354 PUSH32 0x0 PUSH2 0x68F JUMP JUMPDEST PUSH2 0x37D PUSH32 0x0 PUSH2 0x68F JUMP JUMPDEST PUSH2 0x3A6 PUSH32 0x0 PUSH2 0x68F JUMP JUMPDEST PUSH1 0x40 MLOAD PUSH1 0x20 ADD PUSH2 0x3B8 SWAP4 SWAP3 SWAP2 SWAP1 PUSH2 0xE83 JUMP JUMPDEST PUSH1 0x40 MLOAD PUSH1 0x20 DUP2 DUP4 SUB SUB DUP2 MSTORE SWAP1 PUSH1 0x40 MSTORE SWAP1 POP SWAP1 JUMP JUMPDEST PUSH0 PUSH2 0x3D5 PUSH2 0x759 JUMP JUMPDEST PUSH0 DUP6 DUP6 SWAP1 POP SWAP1 POP DUP4 DUP4 SWAP1 POP DUP2 EQ PUSH2 0x418 JUMPI PUSH1 0x40 MLOAD PUSH32 0x947D5A8400000000000000000000000000000000000000000000000000000000 DUP2 MSTORE PUSH1 0x4 ADD PUSH1 0x40 MLOAD DUP1 SWAP2 SUB SWAP1 REVERT JUMPDEST PUSH0 CALLVALUE SWAP1 POP PUSH0 JUMPDEST DUP3 DUP2 LT ISZERO PUSH2 0x4D1 JUMPI PUSH0 DUP7 DUP7 DUP4 DUP2 DUP2 LT PUSH2 0x43A JUMPI PUSH2 0x439 PUSH2 0xEC9 JUMP JUMPDEST JUMPDEST SWAP1 POP PUSH1 0x20 MUL ADD CALLDATALOAD SWAP1 POP DUP3 DUP2 GT ISZERO PUSH2 0x47D JUMPI PUSH1 0x40 MLOAD PUSH32 0x1101129400000000000000000000000000000000000000000000000000000000 DUP2 MSTORE PUSH1 0x4 ADD PUSH1 0x40 MLOAD DUP1 SWAP2 SUB SWAP1 REVERT JUMPDEST PUSH2 0x4AB DUP10 DUP10 DUP5 DUP2 DUP2 LT PUSH2 0x493 JUMPI PUSH2 0x492 PUSH2 0xEC9 JUMP JUMPDEST JUMPDEST SWAP1 POP PUSH1 0x20 MUL DUP2 ADD SWAP1 PUSH2 0x4A5 SWAP2 SWAP1 PUSH2 0xF02 JUMP JUMPDEST DUP3 PUSH2 0x7E0 JUMP JUMPDEST PUSH2 0x4BB JUMPI PUSH0 SWAP5 POP POP POP POP POP PUSH2 0x4D9 JUMP JUMPDEST DUP1 DUP4 SUB SWAP3 POP POP PUSH2 0x4CA DUP2 PUSH2 0x844 JUMP JUMPDEST SWAP1 POP PUSH2 0x41E JUMP JUMPDEST POP PUSH1 0x1 SWAP3 POP POP POP JUMPDEST SWAP5 SWAP4 POP POP POP POP JUMP JUMPDEST PUSH0 PUSH2 0x4EA PUSH2 0x759 JUMP JUMPDEST PUSH0 DUP6 DUP6 SWAP1 POP SWAP1 POP DUP4 DUP4 SWAP1 POP DUP2 EQ PUSH2 0x52D JUMPI PUSH1 0x40 MLOAD PUSH32 0x947D5A8400000000000000000000000000000000000000000000000000000000 DUP2 MSTORE PUSH1 0x4 ADD PUSH1 0x40 MLOAD DUP1 SWAP2 SUB SWAP1 REVERT JUMPDEST PUSH0 CALLVALUE SWAP1 POP PUSH0 JUMPDEST DUP3 DUP2 LT ISZERO PUSH2 0x5E6 JUMPI PUSH0 DUP7 DUP7 DUP4 DUP2 DUP2 LT PUSH2 0x54F JUMPI PUSH2 0x54E PUSH2 0xEC9 JUMP JUMPDEST JUMPDEST SWAP1 POP PUSH1 0x20 MUL ADD CALLDATALOAD SWAP1 POP DUP3 DUP2 GT ISZERO PUSH2 0x592 JUMPI PUSH1 0x40 MLOAD PUSH32 0x1101129400000000000000000000000000000000000000000000000000000000 DUP2 MSTORE PUSH1 0x4 ADD PUSH1 0x40 MLOAD DUP1 SWAP2 SUB SWAP1 REVERT JUMPDEST PUSH2 0x5C0 DUP10 DUP10 DUP5 DUP2 DUP2 LT PUSH2 0x5A8 JUMPI PUSH2 0x5A7 PUSH2 0xEC9 JUMP JUMPDEST JUMPDEST SWAP1 POP PUSH1 0x20 MUL DUP2 ADD SWAP1 PUSH2 0x5BA SWAP2 SWAP1 PUSH2 0xF02 JUMP JUMPDEST DUP3 PUSH2 0x850 JUMP JUMPDEST PUSH2 0x5D0 JUMPI PUSH0 SWAP5 POP POP POP POP POP PUSH2 0x5EE JUMP JUMPDEST DUP1 DUP4 SUB SWAP3 POP POP PUSH2 0x5DF DUP2 PUSH2 0x844 JUMP JUMPDEST SWAP1 POP PUSH2 0x533 JUMP JUMPDEST POP PUSH1 0x1 SWAP3 POP POP POP JUMPDEST SWAP5 SWAP4 POP POP POP POP JUMP JUMPDEST PUSH0 PUSH2 0x5FF PUSH2 0x759 JUMP JUMPDEST PUSH2 0x609 DUP3 CALLVALUE PUSH2 0x7E0 JUMP JUMPDEST SWAP1 POP SWAP2 SWAP1 POP JUMP JUMPDEST PUSH0 DUP2 DUP2 SLOAD DUP2 LT PUSH2 0x61E JUMPI PUSH0 DUP1 REVERT JUMPDEST SWAP1 PUSH0 MSTORE PUSH1 0x20 PUSH0 KECCAK256 ADD PUSH0 SWAP2 POP SWAP1 POP DUP1 PUSH0 ADD PUSH0 SWAP1 SLOAD SWAP1 PUSH2 0x100 EXP SWAP1 DIV PUSH8 0xFFFFFFFFFFFFFFFF AND SWAP1 DUP1 PUSH0 ADD PUSH1 0x8 SWAP1 SLOAD SWAP1 PUSH2 0x100 EXP SWAP1 DIV PUSH8 0xFFFFFFFFFFFFFFFF AND SWAP1 DUP1 PUSH0 ADD PUSH1 0x10 SWAP1 SLOAD SWAP1 PUSH2 0x100 EXP SWAP1 DIV PUSH4 0xFFFFFFFF AND SWAP1 POP DUP4 JUMP JUMPDEST PUSH0 PUSH2 0x67E PUSH2 0x759 JUMP JUMPDEST PUSH2 0x688 DUP3 CALLVALUE PUSH2 0x850 JUMP JUMPDEST SWAP1 POP SWAP2 SWAP1 POP JUMP JUMPDEST PUSH1 0x60 PUSH0 PUSH1 0x1 PUSH2 0x69D DUP5 PUSH2 0x8B4 JUMP JUMPDEST ADD SWAP1 POP PUSH0 DUP2 PUSH8 0xFFFFFFFFFFFFFFFF DUP2 GT ISZERO PUSH2 0x6BB JUMPI PUSH2 0x6BA PUSH2 0xF2A JUMP JUMPDEST JUMPDEST PUSH1 0x40 MLOAD SWAP1 DUP1 DUP3 MSTORE DUP1 PUSH1 0x1F ADD PUSH1 0x1F NOT AND PUSH1 0x20 ADD DUP3 ADD PUSH1 0x40 MSTORE DUP1 ISZERO PUSH2 0x6ED JUMPI DUP2 PUSH1 0x20 ADD PUSH1 0x1 DUP3 MUL DUP1 CALLDATASIZE DUP4 CALLDATACOPY DUP1 DUP3 ADD SWAP2 POP POP SWAP1 POP JUMPDEST POP SWAP1 POP PUSH0 DUP3 PUSH1 0x20 ADD DUP3 ADD SWAP1 POP JUMPDEST PUSH1 0x1 ISZERO PUSH2 0x74E JUMPI DUP1 DUP1 PUSH1 0x1 SWAP1 SUB SWAP2 POP POP PUSH32 0x3031323334353637383961626364656600000000000000000000000000000000 PUSH1 0xA DUP7 MOD BYTE DUP2 MSTORE8 PUSH1 0xA DUP6 DUP2 PUSH2 0x743 JUMPI PUSH2 0x742 PUSH2 0xF57 JUMP JUMPDEST JUMPDEST DIV SWAP5 POP PUSH0 DUP6 SUB PUSH2 0x6FA JUMPI JUMPDEST DUP2 SWAP4 POP POP POP POP SWAP2 SWAP1 POP JUMP JUMPDEST PUSH32 0x0 PUSH20 0xFFFFFFFFFFFFFFFFFFFFFFFFFFFFFFFFFFFFFFFF AND CALLER PUSH20 0xFFFFFFFFFFFFFFFFFFFFFFFFFFFFFFFFFFFFFFFF AND EQ PUSH2 0x7DE JUMPI PUSH1 0x40 MLOAD PUSH32 0x4CA8886700000000000000000000000000000000000000000000000000000000 DUP2 MSTORE PUSH1 0x4 ADD PUSH1 0x40 MLOAD DUP1 SWAP2 SUB SWAP1 REVERT JUMPDEST JUMP JUMPDEST PUSH0 DUP1 DUP4 DUP1 PUSH2 0x120 ADD SWAP1 PUSH2 0x7F3 SWAP2 SWAP1 PUSH2 0xF84 JUMP JUMPDEST DUP2 ADD SWAP1 PUSH2 0x800 SWAP2 SWAP1 PUSH2 0xD81 JUMP JUMPDEST SWAP1 POP PUSH32 0x61E27B0BFD8E18E6B92EC32CE1C28BB698D27BFE93E84C7E94D4DB0A3135C760 DUP2 PUSH1 0x40 MLOAD PUSH2 0x831 SWAP2 SWAP1 PUSH2 0xFF5 JUMP JUMPDEST PUSH1 0x40 MLOAD DUP1 SWAP2 SUB SWAP1 LOG1 PUSH1 0x1 SWAP2 POP POP SWAP3 SWAP2 POP POP JUMP JUMPDEST PUSH0 PUSH1 0x1 DUP3 ADD SWAP1 POP SWAP2 SWAP1 POP JUMP JUMPDEST PUSH0 DUP1 DUP4 DUP1 PUSH2 0x120 ADD SWAP1 PUSH2 0x863 SWAP2 SWAP1 PUSH2 0xF84 JUMP JUMPDEST DUP2 ADD SWAP1 PUSH2 0x870 SWAP2 SWAP1 PUSH2 0xD81 JUMP JUMPDEST SWAP1 POP PUSH32 0x406D6B56E7B0F2EA2D981907FF7082B8D06A927181752EBCC6C4A7853B06A892 DUP2 PUSH1 0x40 MLOAD PUSH2 0x8A1 SWAP2 SWAP1 PUSH2 0xFF5 JUMP JUMPDEST PUSH1 0x40 MLOAD DUP1 SWAP2 SUB SWAP1 LOG1 PUSH1 0x1 SWAP2 POP POP SWAP3 SWAP2 POP POP JUMP JUMPDEST PUSH0 DUP1 PUSH0 SWAP1 POP PUSH27 0x184F03E93FF9F4DAA797ED6E38ED64BF6A1F010000000000000000 DUP4 LT PUSH2 0x910 JUMPI PUSH27 0x184F03E93FF9F4DAA797ED6E38ED64BF6A1F010000000000000000 DUP4 DUP2 PUSH2 0x906 JUMPI PUSH2 0x905 PUSH2 0xF57 JUMP JUMPDEST JUMPDEST DIV SWAP3 POP PUSH1 0x40 DUP2 ADD SWAP1 POP JUMPDEST PUSH14 0x4EE2D6D415B85ACEF8100000000 DUP4 LT PUSH2 0x94D JUMPI PUSH14 0x4EE2D6D415B85ACEF8100000000 DUP4 DUP2 PUSH2 0x943 JUMPI PUSH2 0x942 PUSH2 0xF57 JUMP JUMPDEST JUMPDEST DIV SWAP3 POP PUSH1 0x20 DUP2 ADD SWAP1 POP JUMPDEST PUSH7 0x2386F26FC10000 DUP4 LT PUSH2 0x97C JUMPI PUSH7 0x2386F26FC10000 DUP4 DUP2 PUSH2 0x972 JUMPI PUSH2 0x971 PUSH2 0xF57 JUMP JUMPDEST JUMPDEST DIV SWAP3 POP PUSH1 0x10 DUP2 ADD SWAP1 POP JUMPDEST PUSH4 0x5F5E100 DUP4 LT PUSH2 0x9A5 JUMPI PUSH4 0x5F5E100 DUP4 DUP2 PUSH2 0x99B JUMPI PUSH2 0x99A PUSH2 0xF57 JUMP JUMPDEST JUMPDEST DIV SWAP3 POP PUSH1 0x8 DUP2 ADD SWAP1 POP JUMPDEST PUSH2 0x2710 DUP4 LT PUSH2 0x9CA JUMPI PUSH2 0x2710 DUP4 DUP2 PUSH2 0x9C0 JUMPI PUSH2 0x9BF PUSH2 0xF57 JUMP JUMPDEST JUMPDEST DIV SWAP3 POP PUSH1 0x4 DUP2 ADD SWAP1 POP JUMPDEST PUSH1 0x64 DUP4 LT PUSH2 0x9ED JUMPI PUSH1 0x64 DUP4 DUP2 PUSH2 0x9E3 JUMPI PUSH2 0x9E2 PUSH2 0xF57 JUMP JUMPDEST JUMPDEST DIV SWAP3 POP PUSH1 0x2 DUP2 ADD SWAP1 POP JUMPDEST PUSH1 0xA DUP4 LT PUSH2 0x9FC JUMPI PUSH1 0x1 DUP2 ADD SWAP1 POP JUMPDEST DUP1 SWAP2 POP POP SWAP2 SWAP1 POP JUMP JUMPDEST PUSH0 DUP1 REVERT JUMPDEST PUSH0 DUP1 REVERT JUMPDEST PUSH0 PUSH8 0xFFFFFFFFFFFFFFFF DUP3 AND SWAP1 POP SWAP2 SWAP1 POP JUMP JUMPDEST PUSH2 0xA29 DUP2 PUSH2 0xA0D JUMP JUMPDEST DUP2 EQ PUSH2 0xA33 JUMPI PUSH0 DUP1 REVERT JUMPDEST POP JUMP JUMPDEST PUSH0 DUP2 CALLDATALOAD SWAP1 POP PUSH2 0xA44 DUP2 PUSH2 0xA20 JUMP JUMPDEST SWAP3 SWAP2 POP POP JUMP JUMPDEST PUSH0 PUSH4 0xFFFFFFFF DUP3 AND SWAP1 POP SWAP2 SWAP1 POP JUMP JUMPDEST PUSH2 0xA62 DUP2 PUSH2 0xA4A JUMP JUMPDEST DUP2 EQ PUSH2 0xA6C JUMPI PUSH0 DUP1 REVERT JUMPDEST POP JUMP JUMPDEST PUSH0 DUP2 CALLDATALOAD SWAP1 POP PUSH2 0xA7D DUP2 PUSH2 0xA59 JUMP JUMPDEST SWAP3 SWAP2 POP POP JUMP JUMPDEST PUSH0 DUP1 PUSH0 PUSH1 0x60 DUP5 DUP7 SUB SLT ISZERO PUSH2 0xA9A JUMPI PUSH2 0xA99 PUSH2 0xA05 JUMP JUMPDEST JUMPDEST PUSH0 PUSH2 0xAA7 DUP7 DUP3 DUP8 ADD PUSH2 0xA36 JUMP JUMPDEST SWAP4 POP POP PUSH1 0x20 PUSH2 0xAB8 DUP7 DUP3 DUP8 ADD PUSH2 0xA36 JUMP JUMPDEST SWAP3 POP POP PUSH1 0x40 PUSH2 0xAC9 DUP7 DUP3 DUP8 ADD PUSH2 0xA6F JUMP JUMPDEST SWAP2 POP POP SWAP3 POP SWAP3 POP SWAP3 JUMP JUMPDEST PUSH0 DUP2 MLOAD SWAP1 POP SWAP2 SWAP1 POP JUMP JUMPDEST PUSH0 DUP3 DUP3 MSTORE PUSH1 0x20 DUP3 ADD SWAP1 POP SWAP3 SWAP2 POP POP JUMP JUMPDEST PUSH0 JUMPDEST DUP4 DUP2 LT ISZERO PUSH2 0xB0A JUMPI DUP1 DUP3 ADD MLOAD DUP2 DUP5 ADD MSTORE PUSH1 0x20 DUP2 ADD SWAP1 POP PUSH2 0xAEF JUMP JUMPDEST PUSH0 DUP5 DUP5 ADD MSTORE POP POP POP POP JUMP JUMPDEST PUSH0 PUSH1 0x1F NOT PUSH1 0x1F DUP4 ADD AND SWAP1 POP SWAP2 SWAP1 POP JUMP JUMPDEST PUSH0 PUSH2 0xB2F DUP3 PUSH2 0xAD3 JUMP JUMPDEST PUSH2 0xB39 DUP2 DUP6 PUSH2 0xADD JUMP JUMPDEST SWAP4 POP PUSH2 0xB49 DUP2 DUP6 PUSH1 0x20 DUP7 ADD PUSH2 0xAED JUMP JUMPDEST PUSH2 0xB52 DUP2 PUSH2 0xB15 JUMP JUMPDEST DUP5 ADD SWAP2 POP POP SWAP3 SWAP2 POP POP JUMP JUMPDEST PUSH0 PUSH1 0x20 DUP3 ADD SWAP1 POP DUP2 DUP2 SUB PUSH0 DUP4 ADD MSTORE PUSH2 0xB75 DUP2 DUP5 PUSH2 0xB25 JUMP JUMPDEST SWAP1 POP SWAP3 SWAP2 POP POP JUMP JUMPDEST PUSH0 DUP1 REVERT JUMPDEST PUSH0 DUP1 REVERT JUMPDEST PUSH0 DUP1 REVERT JUMPDEST PUSH0 DUP1 DUP4 PUSH1 0x1F DUP5 ADD SLT PUSH2 0xB9E JUMPI PUSH2 0xB9D PUSH2 0xB7D JUMP JUMPDEST JUMPDEST DUP3 CALLDATALOAD SWAP1 POP PUSH8 0xFFFFFFFFFFFFFFFF DUP2 GT ISZERO PUSH2 0xBBB JUMPI PUSH2 0xBBA PUSH2 0xB81 JUMP JUMPDEST JUMPDEST PUSH1 0x20 DUP4 ADD SWAP2 POP DUP4 PUSH1 0x20 DUP3 MUL DUP4 ADD GT ISZERO PUSH2 0xBD7 JUMPI PUSH2 0xBD6 PUSH2 0xB85 JUMP JUMPDEST JUMPDEST SWAP3 POP SWAP3 SWAP1 POP JUMP JUMPDEST PUSH0 DUP1 DUP4 PUSH1 0x1F DUP5 ADD SLT PUSH2 0xBF3 JUMPI PUSH2 0xBF2 PUSH2 0xB7D JUMP JUMPDEST JUMPDEST DUP3 CALLDATALOAD SWAP1 POP PUSH8 0xFFFFFFFFFFFFFFFF DUP2 GT ISZERO PUSH2 0xC10 JUMPI PUSH2 0xC0F PUSH2 0xB81 JUMP JUMPDEST JUMPDEST PUSH1 0x20 DUP4 ADD SWAP2 POP DUP4 PUSH1 0x20 DUP3 MUL DUP4 ADD GT ISZERO PUSH2 0xC2C JUMPI PUSH2 0xC2B PUSH2 0xB85 JUMP JUMPDEST JUMPDEST SWAP3 POP SWAP3 SWAP1 POP JUMP JUMPDEST PUSH0 DUP1 PUSH0 DUP1 PUSH1 0x40 DUP6 DUP8 SUB SLT ISZERO PUSH2 0xC4B JUMPI PUSH2 0xC4A PUSH2 0xA05 JUMP JUMPDEST JUMPDEST PUSH0 DUP6 ADD CALLDATALOAD PUSH8 0xFFFFFFFFFFFFFFFF DUP2 GT ISZERO PUSH2 0xC68 JUMPI PUSH2 0xC67 PUSH2 0xA09 JUMP JUMPDEST JUMPDEST PUSH2 0xC74 DUP8 DUP3 DUP9 ADD PUSH2 0xB89 JUMP JUMPDEST SWAP5 POP SWAP5 POP POP PUSH1 0x20 DUP6 ADD CALLDATALOAD PUSH8 0xFFFFFFFFFFFFFFFF DUP2 GT ISZERO PUSH2 0xC97 JUMPI PUSH2 0xC96 PUSH2 0xA09 JUMP JUMPDEST JUMPDEST PUSH2 0xCA3 DUP8 DUP3 DUP9 ADD PUSH2 0xBDE JUMP JUMPDEST SWAP3 POP SWAP3 POP POP SWAP3 SWAP6 SWAP2 SWAP5 POP SWAP3 POP JUMP JUMPDEST PUSH0 DUP2 ISZERO ISZERO SWAP1 POP SWAP2 SWAP1 POP JUMP JUMPDEST PUSH2 0xCC5 DUP2 PUSH2 0xCB1 JUMP JUMPDEST DUP3 MSTORE POP POP JUMP JUMPDEST PUSH0 PUSH1 0x20 DUP3 ADD SWAP1 POP PUSH2 0xCDE PUSH0 DUP4 ADD DUP5 PUSH2 0xCBC JUMP JUMPDEST SWAP3 SWAP2 POP POP JUMP JUMPDEST PUSH0 DUP1 REVERT JUMPDEST PUSH0 PUSH2 0x140 DUP3 DUP5 SUB SLT ISZERO PUSH2 0xCFE JUMPI PUSH2 0xCFD PUSH2 0xCE4 JUMP JUMPDEST JUMPDEST DUP2 SWAP1 POP SWAP3 SWAP2 POP POP JUMP JUMPDEST PUSH0 PUSH1 0x20 DUP3 DUP5 SUB SLT ISZERO PUSH2 0xD1C JUMPI PUSH2 0xD1B PUSH2 0xA05 JUMP JUMPDEST JUMPDEST PUSH0 DUP3 ADD CALLDATALOAD PUSH8 0xFFFFFFFFFFFFFFFF DUP2 GT ISZERO PUSH2 0xD39 JUMPI PUSH2 0xD38 PUSH2 0xA09 JUMP JUMPDEST JUMPDEST PUSH2 0xD45 DUP5 DUP3 DUP6 ADD PUSH2 0xCE8 JUMP JUMPDEST SWAP2 POP POP SWAP3 SWAP2 POP POP JUMP JUMPDEST PUSH0 DUP2 SWAP1 POP SWAP2 SWAP1 POP JUMP JUMPDEST PUSH2 0xD60 DUP2 PUSH2 0xD4E JUMP JUMPDEST DUP2 EQ PUSH2 0xD6A JUMPI PUSH0 DUP1 REVERT JUMPDEST POP JUMP JUMPDEST PUSH0 DUP2 CALLDATALOAD SWAP1 POP PUSH2 0xD7B DUP2 PUSH2 0xD57 JUMP JUMPDEST SWAP3 SWAP2 POP POP JUMP JUMPDEST PUSH0 PUSH1 0x20 DUP3 DUP5 SUB SLT ISZERO PUSH2 0xD96 JUMPI PUSH2 0xD95 PUSH2 0xA05 JUMP JUMPDEST JUMPDEST PUSH0 PUSH2 0xDA3 DUP5 DUP3 DUP6 ADD PUSH2 0xD6D JUMP JUMPDEST SWAP2 POP POP SWAP3 SWAP2 POP POP JUMP JUMPDEST PUSH2 0xDB5 DUP2 PUSH2 0xA0D JUMP JUMPDEST DUP3 MSTORE POP POP JUMP JUMPDEST PUSH2 0xDC4 DUP2 PUSH2 0xA4A JUMP JUMPDEST DUP3 MSTORE POP POP JUMP JUMPDEST PUSH0 PUSH1 0x60 DUP3 ADD SWAP1 POP PUSH2 0xDDD PUSH0 DUP4 ADD DUP7 PUSH2 0xDAC JUMP JUMPDEST PUSH2 0xDEA PUSH1 0x20 DUP4 ADD DUP6 PUSH2 0xDAC JUMP JUMPDEST PUSH2 0xDF7 PUSH1 0x40 DUP4 ADD DUP5 PUSH2 0xDBB JUMP JUMPDEST SWAP5 SWAP4 POP POP POP POP JUMP JUMPDEST PUSH0 DUP2 SWAP1 POP SWAP3 SWAP2 POP POP JUMP JUMPDEST PUSH0 PUSH2 0xE13 DUP3 PUSH2 0xAD3 JUMP JUMPDEST PUSH2 0xE1D DUP2 DUP6 PUSH2 0xDFF JUMP JUMPDEST SWAP4 POP PUSH2 0xE2D DUP2 DUP6 PUSH1 0x20 DUP7 ADD PUSH2 0xAED JUMP JUMPDEST DUP1 DUP5 ADD SWAP2 POP POP SWAP3 SWAP2 POP POP JUMP JUMPDEST PUSH32 0x2E00000000000000000000000000000000000000000000000000000000000000 PUSH0 DUP3 ADD MSTORE POP JUMP JUMPDEST PUSH0 PUSH2 0xE6D PUSH1 0x1 DUP4 PUSH2 0xDFF JUMP JUMPDEST SWAP2 POP PUSH2 0xE78 DUP3 PUSH2 0xE39 JUMP JUMPDEST PUSH1 0x1 DUP3 ADD SWAP1 POP SWAP2 SWAP1 POP JUMP JUMPDEST PUSH0 PUSH2 0xE8E DUP3 DUP7 PUSH2 0xE09 JUMP JUMPDEST SWAP2 POP PUSH2 0xE99 DUP3 PUSH2 0xE61 JUMP JUMPDEST SWAP2 POP PUSH2 0xEA5 DUP3 DUP6 PUSH2 0xE09 JUMP JUMPDEST SWAP2 POP PUSH2 0xEB0 DUP3 PUSH2 0xE61 JUMP JUMPDEST SWAP2 POP PUSH2 0xEBC DUP3 DUP5 PUSH2 0xE09 JUMP JUMPDEST SWAP2 POP DUP2 SWAP1 POP SWAP5 SWAP4 POP POP POP POP JUMP JUMPDEST PUSH32 0x4E487B7100000000000000000000000000000000000000000000000000000000 PUSH0 MSTORE PUSH1 0x32 PUSH1 0x4 MSTORE PUSH1 0x24 PUSH0 REVERT JUMPDEST PUSH0 DUP1 REVERT JUMPDEST PUSH0 DUP1 REVERT JUMPDEST PUSH0 DUP1 REVERT JUMPDEST PUSH0 DUP3 CALLDATALOAD PUSH1 0x1 PUSH2 0x140 SUB DUP4 CALLDATASIZE SUB SUB DUP2 SLT PUSH2 0xF1E JUMPI PUSH2 0xF1D PUSH2 0xEF6 JUMP JUMPDEST JUMPDEST DUP1 DUP4 ADD SWAP2 POP POP SWAP3 SWAP2 POP POP JUMP JUMPDEST PUSH32 0x4E487B7100000000000000000000000000000000000000000000000000000000 PUSH0 MSTORE PUSH1 0x41 PUSH1 0x4 MSTORE PUSH1 0x24 PUSH0 REVERT JUMPDEST PUSH32 0x4E487B7100000000000000000000000000000000000000000000000000000000 PUSH0 MSTORE PUSH1 0x12 PUSH1 0x4 MSTORE PUSH1 0x24 PUSH0 REVERT JUMPDEST PUSH0 DUP1 DUP4 CALLDATALOAD PUSH1 0x1 PUSH1 0x20 SUB DUP5 CALLDATASIZE SUB SUB DUP2 SLT PUSH2 0xFA0 JUMPI PUSH2 0xF9F PUSH2 0xEF6 JUMP JUMPDEST JUMPDEST DUP1 DUP5 ADD SWAP3 POP DUP3 CALLDATALOAD SWAP2 POP PUSH8 0xFFFFFFFFFFFFFFFF DUP3 GT ISZERO PUSH2 0xFC2 JUMPI PUSH2 0xFC1 PUSH2 0xEFA JUMP JUMPDEST JUMPDEST PUSH1 0x20 DUP4 ADD SWAP3 POP PUSH1 0x1 DUP3 MUL CALLDATASIZE SUB DUP4 SGT ISZERO PUSH2 0xFDE JUMPI PUSH2 0xFDD PUSH2 0xEFE JUMP JUMPDEST JUMPDEST POP SWAP3 POP SWAP3 SWAP1 POP JUMP JUMPDEST PUSH2 0xFEF DUP2 PUSH2 0xD4E JUMP JUMPDEST DUP3 MSTORE POP POP JUMP JUMPDEST PUSH0 PUSH1 0x20 DUP3 ADD SWAP1 POP PUSH2 0x1008 PUSH0 DUP4 ADD DUP5 PUSH2 0xFE6 JUMP JUMPDEST SWAP3 SWAP2 POP POP JUMP INVALID LOG2 PUSH5 0x6970667358 0x22 SLT KECCAK256 DUP6 0xD0 0xFB PUSH3 0xF7D296 MLOAD ADDRESS BALANCE 0xCC DUP7 0xC0 CALLDATALOAD PUSH11 0xA2D109D41579522093BE97 0x29 0xB4 LOG3 0x27 DIV DUP2 PUSH5 0x736F6C6343 STOP ADDMOD XOR STOP CALLER "
		},
		"gasEstimates": {
			"creation": {
				"codeDepositCost": "832800",
				"executionCost": "infinite",
				"totalCost": "infinite"
			},
			"external": {
				"addEntry(uint64,uint64,uint32)": "infinite",
				"attest((bytes32,bytes32,uint64,uint64,uint64,bytes32,address,address,bool,bytes))": "infinite",
				"attestationsArray(uint256)": "infinite",
				"isPayable()": "330",
				"multiAttest((bytes32,bytes32,uint64,uint64,uint64,bytes32,address,address,bool,bytes)[],uint256[])": "infinite",
				"multiRevoke((bytes32,bytes32,uint64,uint64,uint64,bytes32,address,address,bool,bytes)[],uint256[])": "infinite",
				"revoke((bytes32,bytes32,uint64,uint64,uint64,bytes32,address,address,bool,bytes))": "infinite",
				"version()": "infinite"
			},
			"internal": {
				"onAttest(struct Attestation calldata,uint256)": "infinite",
				"onRevoke(struct Attestation calldata,uint256)": "infinite"
			}
		},
		"methodIdentifiers": {
			"addEntry(uint64,uint64,uint32)": "2a60bdd9",
			"attest((bytes32,bytes32,uint64,uint64,uint64,bytes32,address,address,bool,bytes))": "e60c3505",
			"attestationsArray(uint256)": "e4dad1c4",
			"isPayable()": "ce46e046",
			"multiAttest((bytes32,bytes32,uint64,uint64,uint64,bytes32,address,address,bool,bytes)[],uint256[])": "91db0b7e",
			"multiRevoke((bytes32,bytes32,uint64,uint64,uint64,bytes32,address,address,bool,bytes)[],uint256[])": "88e5b2d9",
			"revoke((bytes32,bytes32,uint64,uint64,uint64,bytes32,address,address,bool,bytes))": "e49617e1",
			"version()": "54fd4d50"
		}
	},
	"abi": [
		{
			"inputs": [
				{
					"internalType": "contract IEAS",
					"name": "eas",
					"type": "address"
				}
			],
			"stateMutability": "nonpayable",
			"type": "constructor"
		},
		{
			"inputs": [],
			"name": "AccessDenied",
			"type": "error"
		},
		{
			"inputs": [],
			"name": "InsufficientValue",
			"type": "error"
		},
		{
			"inputs": [],
			"name": "InvalidEAS",
			"type": "error"
		},
		{
			"inputs": [],
			"name": "InvalidLength",
			"type": "error"
		},
		{
			"inputs": [],
			"name": "NotPayable",
			"type": "error"
		},
		{
			"anonymous": false,
			"inputs": [
				{
					"indexed": false,
					"internalType": "uint256",
					"name": "value",
					"type": "uint256"
				}
			],
			"name": "Attested",
			"type": "event"
		},
		{
			"anonymous": false,
			"inputs": [
				{
					"indexed": false,
					"internalType": "uint256",
					"name": "value",
					"type": "uint256"
				}
			],
			"name": "Revoked",
			"type": "event"
		},
		{
			"inputs": [
				{
					"internalType": "uint64",
					"name": "_userId",
					"type": "uint64"
				},
				{
					"internalType": "uint64",
					"name": "_equipmentId",
					"type": "uint64"
				},
				{
					"internalType": "uint32",
					"name": "_activationDays",
					"type": "uint32"
				}
			],
			"name": "addEntry",
			"outputs": [],
			"stateMutability": "nonpayable",
			"type": "function"
		},
		{
			"inputs": [
				{
					"components": [
						{
							"internalType": "bytes32",
							"name": "uid",
							"type": "bytes32"
						},
						{
							"internalType": "bytes32",
							"name": "schema",
							"type": "bytes32"
						},
						{
							"internalType": "uint64",
							"name": "time",
							"type": "uint64"
						},
						{
							"internalType": "uint64",
							"name": "expirationTime",
							"type": "uint64"
						},
						{
							"internalType": "uint64",
							"name": "revocationTime",
							"type": "uint64"
						},
						{
							"internalType": "bytes32",
							"name": "refUID",
							"type": "bytes32"
						},
						{
							"internalType": "address",
							"name": "recipient",
							"type": "address"
						},
						{
							"internalType": "address",
							"name": "attester",
							"type": "address"
						},
						{
							"internalType": "bool",
							"name": "revocable",
							"type": "bool"
						},
						{
							"internalType": "bytes",
							"name": "data",
							"type": "bytes"
						}
					],
					"internalType": "struct Attestation",
					"name": "attestation",
					"type": "tuple"
				}
			],
			"name": "attest",
			"outputs": [
				{
					"internalType": "bool",
					"name": "",
					"type": "bool"
				}
			],
			"stateMutability": "payable",
			"type": "function"
		},
		{
			"inputs": [
				{
					"internalType": "uint256",
					"name": "",
					"type": "uint256"
				}
			],
			"name": "attestationsArray",
			"outputs": [
				{
					"internalType": "uint64",
					"name": "userId",
					"type": "uint64"
				},
				{
					"internalType": "uint64",
					"name": "equipmentId",
					"type": "uint64"
				},
				{
					"internalType": "uint32",
					"name": "activationDays",
					"type": "uint32"
				}
			],
			"stateMutability": "view",
			"type": "function"
		},
		{
			"inputs": [],
			"name": "isPayable",
			"outputs": [
				{
					"internalType": "bool",
					"name": "",
					"type": "bool"
				}
			],
			"stateMutability": "pure",
			"type": "function"
		},
		{
			"inputs": [
				{
					"components": [
						{
							"internalType": "bytes32",
							"name": "uid",
							"type": "bytes32"
						},
						{
							"internalType": "bytes32",
							"name": "schema",
							"type": "bytes32"
						},
						{
							"internalType": "uint64",
							"name": "time",
							"type": "uint64"
						},
						{
							"internalType": "uint64",
							"name": "expirationTime",
							"type": "uint64"
						},
						{
							"internalType": "uint64",
							"name": "revocationTime",
							"type": "uint64"
						},
						{
							"internalType": "bytes32",
							"name": "refUID",
							"type": "bytes32"
						},
						{
							"internalType": "address",
							"name": "recipient",
							"type": "address"
						},
						{
							"internalType": "address",
							"name": "attester",
							"type": "address"
						},
						{
							"internalType": "bool",
							"name": "revocable",
							"type": "bool"
						},
						{
							"internalType": "bytes",
							"name": "data",
							"type": "bytes"
						}
					],
					"internalType": "struct Attestation[]",
					"name": "attestations",
					"type": "tuple[]"
				},
				{
					"internalType": "uint256[]",
					"name": "values",
					"type": "uint256[]"
				}
			],
			"name": "multiAttest",
			"outputs": [
				{
					"internalType": "bool",
					"name": "",
					"type": "bool"
				}
			],
			"stateMutability": "payable",
			"type": "function"
		},
		{
			"inputs": [
				{
					"components": [
						{
							"internalType": "bytes32",
							"name": "uid",
							"type": "bytes32"
						},
						{
							"internalType": "bytes32",
							"name": "schema",
							"type": "bytes32"
						},
						{
							"internalType": "uint64",
							"name": "time",
							"type": "uint64"
						},
						{
							"internalType": "uint64",
							"name": "expirationTime",
							"type": "uint64"
						},
						{
							"internalType": "uint64",
							"name": "revocationTime",
							"type": "uint64"
						},
						{
							"internalType": "bytes32",
							"name": "refUID",
							"type": "bytes32"
						},
						{
							"internalType": "address",
							"name": "recipient",
							"type": "address"
						},
						{
							"internalType": "address",
							"name": "attester",
							"type": "address"
						},
						{
							"internalType": "bool",
							"name": "revocable",
							"type": "bool"
						},
						{
							"internalType": "bytes",
							"name": "data",
							"type": "bytes"
						}
					],
					"internalType": "struct Attestation[]",
					"name": "attestations",
					"type": "tuple[]"
				},
				{
					"internalType": "uint256[]",
					"name": "values",
					"type": "uint256[]"
				}
			],
			"name": "multiRevoke",
			"outputs": [
				{
					"internalType": "bool",
					"name": "",
					"type": "bool"
				}
			],
			"stateMutability": "payable",
			"type": "function"
		},
		{
			"inputs": [
				{
					"components": [
						{
							"internalType": "bytes32",
							"name": "uid",
							"type": "bytes32"
						},
						{
							"internalType": "bytes32",
							"name": "schema",
							"type": "bytes32"
						},
						{
							"internalType": "uint64",
							"name": "time",
							"type": "uint64"
						},
						{
							"internalType": "uint64",
							"name": "expirationTime",
							"type": "uint64"
						},
						{
							"internalType": "uint64",
							"name": "revocationTime",
							"type": "uint64"
						},
						{
							"internalType": "bytes32",
							"name": "refUID",
							"type": "bytes32"
						},
						{
							"internalType": "address",
							"name": "recipient",
							"type": "address"
						},
						{
							"internalType": "address",
							"name": "attester",
							"type": "address"
						},
						{
							"internalType": "bool",
							"name": "revocable",
							"type": "bool"
						},
						{
							"internalType": "bytes",
							"name": "data",
							"type": "bytes"
						}
					],
					"internalType": "struct Attestation",
					"name": "attestation",
					"type": "tuple"
				}
			],
			"name": "revoke",
			"outputs": [
				{
					"internalType": "bool",
					"name": "",
					"type": "bool"
				}
			],
			"stateMutability": "payable",
			"type": "function"
		},
		{
			"inputs": [],
			"name": "version",
			"outputs": [
				{
					"internalType": "string",
					"name": "",
					"type": "string"
				}
			],
			"stateMutability": "view",
			"type": "function"
		},
		{
			"stateMutability": "payable",
			"type": "receive"
		}
	]
}