{
	"contracts/resolver.sol": {
		"LogResolver": {
			"abi": [
				{
					"inputs": [
						{
							"internalType": "contract IEAS",
							"name": "eas",
							"type": "address"
						}
					],
					"stateMutability": "nonpayable",
					"type": "constructor"
				},
				{
					"inputs": [],
					"name": "AccessDenied",
					"type": "error"
				},
				{
					"inputs": [],
					"name": "InsufficientValue",
					"type": "error"
				},
				{
					"inputs": [],
					"name": "InvalidEAS",
					"type": "error"
				},
				{
					"inputs": [],
					"name": "InvalidLength",
					"type": "error"
				},
				{
					"inputs": [],
					"name": "NotPayable",
					"type": "error"
				},
				{
					"anonymous": false,
					"inputs": [
						{
							"indexed": false,
							"internalType": "uint256",
							"name": "value",
							"type": "uint256"
						}
					],
					"name": "Attested",
					"type": "event"
				},
				{
					"anonymous": false,
					"inputs": [
						{
							"indexed": false,
							"internalType": "uint256",
							"name": "value",
							"type": "uint256"
						}
					],
					"name": "Revoked",
					"type": "event"
				},
				{
					"inputs": [
						{
							"internalType": "uint64",
							"name": "_userId",
							"type": "uint64"
						},
						{
							"internalType": "uint64",
							"name": "_equipmentId",
							"type": "uint64"
						},
						{
							"internalType": "uint32",
							"name": "_activationDays",
							"type": "uint32"
						}
					],
					"name": "addEntry",
					"outputs": [],
					"stateMutability": "nonpayable",
					"type": "function"
				},
				{
					"inputs": [
						{
							"components": [
								{
									"internalType": "bytes32",
									"name": "uid",
									"type": "bytes32"
								},
								{
									"internalType": "bytes32",
									"name": "schema",
									"type": "bytes32"
								},
								{
									"internalType": "uint64",
									"name": "time",
									"type": "uint64"
								},
								{
									"internalType": "uint64",
									"name": "expirationTime",
									"type": "uint64"
								},
								{
									"internalType": "uint64",
									"name": "revocationTime",
									"type": "uint64"
								},
								{
									"internalType": "bytes32",
									"name": "refUID",
									"type": "bytes32"
								},
								{
									"internalType": "address",
									"name": "recipient",
									"type": "address"
								},
								{
									"internalType": "address",
									"name": "attester",
									"type": "address"
								},
								{
									"internalType": "bool",
									"name": "revocable",
									"type": "bool"
								},
								{
									"internalType": "bytes",
									"name": "data",
									"type": "bytes"
								}
							],
							"internalType": "struct Attestation",
							"name": "attestation",
							"type": "tuple"
						}
					],
					"name": "attest",
					"outputs": [
						{
							"internalType": "bool",
							"name": "",
							"type": "bool"
						}
					],
					"stateMutability": "payable",
					"type": "function"
				},
				{
					"inputs": [
						{
							"internalType": "uint256",
							"name": "",
							"type": "uint256"
						}
					],
					"name": "attestationsArray",
					"outputs": [
						{
							"internalType": "uint64",
							"name": "userId",
							"type": "uint64"
						},
						{
							"internalType": "uint64",
							"name": "equipmentId",
							"type": "uint64"
						},
						{
							"internalType": "uint32",
							"name": "activationDays",
							"type": "uint32"
						}
					],
					"stateMutability": "view",
					"type": "function"
				},
				{
					"inputs": [],
					"name": "isPayable",
					"outputs": [
						{
							"internalType": "bool",
							"name": "",
							"type": "bool"
						}
					],
					"stateMutability": "pure",
					"type": "function"
				},
				{
					"inputs": [
						{
							"components": [
								{
									"internalType": "bytes32",
									"name": "uid",
									"type": "bytes32"
								},
								{
									"internalType": "bytes32",
									"name": "schema",
									"type": "bytes32"
								},
								{
									"internalType": "uint64",
									"name": "time",
									"type": "uint64"
								},
								{
									"internalType": "uint64",
									"name": "expirationTime",
									"type": "uint64"
								},
								{
									"internalType": "uint64",
									"name": "revocationTime",
									"type": "uint64"
								},
								{
									"internalType": "bytes32",
									"name": "refUID",
									"type": "bytes32"
								},
								{
									"internalType": "address",
									"name": "recipient",
									"type": "address"
								},
								{
									"internalType": "address",
									"name": "attester",
									"type": "address"
								},
								{
									"internalType": "bool",
									"name": "revocable",
									"type": "bool"
								},
								{
									"internalType": "bytes",
									"name": "data",
									"type": "bytes"
								}
							],
							"internalType": "struct Attestation[]",
							"name": "attestations",
							"type": "tuple[]"
						},
						{
							"internalType": "uint256[]",
							"name": "values",
							"type": "uint256[]"
						}
					],
					"name": "multiAttest",
					"outputs": [
						{
							"internalType": "bool",
							"name": "",
							"type": "bool"
						}
					],
					"stateMutability": "payable",
					"type": "function"
				},
				{
					"inputs": [
						{
							"components": [
								{
									"internalType": "bytes32",
									"name": "uid",
									"type": "bytes32"
								},
								{
									"internalType": "bytes32",
									"name": "schema",
									"type": "bytes32"
								},
								{
									"internalType": "uint64",
									"name": "time",
									"type": "uint64"
								},
								{
									"internalType": "uint64",
									"name": "expirationTime",
									"type": "uint64"
								},
								{
									"internalType": "uint64",
									"name": "revocationTime",
									"type": "uint64"
								},
								{
									"internalType": "bytes32",
									"name": "refUID",
									"type": "bytes32"
								},
								{
									"internalType": "address",
									"name": "recipient",
									"type": "address"
								},
								{
									"internalType": "address",
									"name": "attester",
									"type": "address"
								},
								{
									"internalType": "bool",
									"name": "revocable",
									"type": "bool"
								},
								{
									"internalType": "bytes",
									"name": "data",
									"type": "bytes"
								}
							],
							"internalType": "struct Attestation[]",
							"name": "attestations",
							"type": "tuple[]"
						},
						{
							"internalType": "uint256[]",
							"name": "values",
							"type": "uint256[]"
						}
					],
					"name": "multiRevoke",
					"outputs": [
						{
							"internalType": "bool",
							"name": "",
							"type": "bool"
						}
					],
					"stateMutability": "payable",
					"type": "function"
				},
				{
					"inputs": [
						{
							"components": [
								{
									"internalType": "bytes32",
									"name": "uid",
									"type": "bytes32"
								},
								{
									"internalType": "bytes32",
									"name": "schema",
									"type": "bytes32"
								},
								{
									"internalType": "uint64",
									"name": "time",
									"type": "uint64"
								},
								{
									"internalType": "uint64",
									"name": "expirationTime",
									"type": "uint64"
								},
								{
									"internalType": "uint64",
									"name": "revocationTime",
									"type": "uint64"
								},
								{
									"internalType": "bytes32",
									"name": "refUID",
									"type": "bytes32"
								},
								{
									"internalType": "address",
									"name": "recipient",
									"type": "address"
								},
								{
									"internalType": "address",
									"name": "attester",
									"type": "address"
								},
								{
									"internalType": "bool",
									"name": "revocable",
									"type": "bool"
								},
								{
									"internalType": "bytes",
									"name": "data",
									"type": "bytes"
								}
							],
							"internalType": "struct Attestation",
							"name": "attestation",
							"type": "tuple"
						}
					],
					"name": "revoke",
					"outputs": [
						{
							"internalType": "bool",
							"name": "",
							"type": "bool"
						}
					],
					"stateMutability": "payable",
					"type": "function"
				},
				{
					"inputs": [],
					"name": "version",
					"outputs": [
						{
							"internalType": "string",
							"name": "",
							"type": "string"
						}
					],
					"stateMutability": "view",
					"type": "function"
				},
				{
					"stateMutability": "payable",
					"type": "receive"
				}
			],
			"devdoc": {
				"events": {
					"Attested(uint256)": {
						"params": {
							"value": "The attested value."
						}
					},
					"Revoked(uint256)": {
						"params": {
							"value": "The attested value."
						}
					}
				},
				"kind": "dev",
				"methods": {
					"attest((bytes32,bytes32,uint64,uint64,uint64,bytes32,address,address,bool,bytes))": {
						"params": {
							"attestation": "The new attestation."
						},
						"returns": {
							"_0": "Whether the attestation is valid."
						}
					},
					"isPayable()": {
						"returns": {
							"_0": "Whether the resolver supports ETH transfers."
						}
					},
					"multiAttest((bytes32,bytes32,uint64,uint64,uint64,bytes32,address,address,bool,bytes)[],uint256[])": {
						"params": {
							"attestations": "The new attestations.",
							"values": "Explicit ETH amounts which were sent with each attestation."
						},
						"returns": {
							"_0": "Whether all the attestations are valid."
						}
					},
					"multiRevoke((bytes32,bytes32,uint64,uint64,uint64,bytes32,address,address,bool,bytes)[],uint256[])": {
						"params": {
							"attestations": "The existing attestations to be revoked.",
							"values": "Explicit ETH amounts which were sent with each revocation."
						},
						"returns": {
							"_0": "Whether the attestations can be revoked."
						}
					},
					"revoke((bytes32,bytes32,uint64,uint64,uint64,bytes32,address,address,bool,bytes))": {
						"params": {
							"attestation": "The existing attestation to be revoked."
						},
						"returns": {
							"_0": "Whether the attestation can be revoked."
						}
					},
					"version()": {
						"returns": {
							"_0": "Semver contract version as a string."
						}
					}
				},
				"title": "LogResolver",
				"version": 1
			},
			"evm": {
				"assembly": "    /* \"contracts/resolver.sol\":371:2126  contract LogResolver is SchemaResolver {... */\n  mstore(0x40, 0x0100)\n    /* \"contracts/resolver.sol\":926:970  constructor(IEAS eas) SchemaResolver(eas) {} */\n  callvalue\n  dup1\n  iszero\n  tag_1\n  jumpi\n  0x00\n  dup1\n  revert\ntag_1:\n  pop\n  mload(0x40)\n  sub(codesize, bytecodeSize)\n  dup1\n  bytecodeSize\n  dup4\n  codecopy\n  dup2\n  dup2\n  add\n  0x40\n  mstore\n  dup2\n  add\n  swap1\n  tag_2\n  swap2\n  swap1\n  tag_3\n  jump\t// in\ntag_2:\n    /* \"contracts/resolver.sol\":963:966  eas */\n  dup1\n    /* \"@ethereum-attestation-service/eas-contracts/contracts/resolver/SchemaResolver.sol\":680:681  1 */\n  0x01\n    /* \"@ethereum-attestation-service/eas-contracts/contracts/resolver/SchemaResolver.sol\":683:684  3 */\n  0x03\n    /* \"@ethereum-attestation-service/eas-contracts/contracts/resolver/SchemaResolver.sol\":686:687  0 */\n  0x00\n    /* \"@ethereum-attestation-service/eas-contracts/contracts/Semver.sol\":767:772  major */\n  dup3\n    /* \"@ethereum-attestation-service/eas-contracts/contracts/Semver.sol\":758:772  _major = major */\n  0x80\n  dup2\n  dup2\n  mstore\n  pop\n  pop\n    /* \"@ethereum-attestation-service/eas-contracts/contracts/Semver.sol\":791:796  minor */\n  dup2\n    /* \"@ethereum-attestation-service/eas-contracts/contracts/Semver.sol\":782:796  _minor = minor */\n  0xa0\n  dup2\n  dup2\n  mstore\n  pop\n  pop\n    /* \"@ethereum-attestation-service/eas-contracts/contracts/Semver.sol\":814:819  patch */\n  dup1\n    /* \"@ethereum-attestation-service/eas-contracts/contracts/Semver.sol\":806:819  _path = patch */\n  0xc0\n  dup2\n  dup2\n  mstore\n  pop\n  pop\n    /* \"@ethereum-attestation-service/eas-contracts/contracts/Semver.sol\":691:826  constructor(uint256 major, uint256 minor, uint256 patch) {... */\n  pop\n  pop\n  pop\n    /* \"@ethereum-attestation-service/eas-contracts/contracts/resolver/SchemaResolver.sol\":727:728  0 */\n  0x00\n    /* \"@ethereum-attestation-service/eas-contracts/contracts/resolver/SchemaResolver.sol\":703:729  address(eas) == address(0) */\n  0xffffffffffffffffffffffffffffffffffffffff\n  and\n    /* \"@ethereum-attestation-service/eas-contracts/contracts/resolver/SchemaResolver.sol\":711:714  eas */\n  dup2\n    /* \"@ethereum-attestation-service/eas-contracts/contracts/resolver/SchemaResolver.sol\":703:729  address(eas) == address(0) */\n  0xffffffffffffffffffffffffffffffffffffffff\n  and\n  sub\n    /* \"@ethereum-attestation-service/eas-contracts/contracts/resolver/SchemaResolver.sol\":699:775  if (address(eas) == address(0)) {... */\n  tag_9\n  jumpi\n    /* \"@ethereum-attestation-service/eas-contracts/contracts/resolver/SchemaResolver.sol\":752:764  InvalidEAS() */\n  mload(0x40)\n  0x83780ffe00000000000000000000000000000000000000000000000000000000\n  dup2\n  mstore\n  0x04\n  add\n  mload(0x40)\n  dup1\n  swap2\n  sub\n  swap1\n  revert\n    /* \"@ethereum-attestation-service/eas-contracts/contracts/resolver/SchemaResolver.sol\":699:775  if (address(eas) == address(0)) {... */\ntag_9:\n    /* \"@ethereum-attestation-service/eas-contracts/contracts/resolver/SchemaResolver.sol\":792:795  eas */\n  dup1\n    /* \"@ethereum-attestation-service/eas-contracts/contracts/resolver/SchemaResolver.sol\":785:795  _eas = eas */\n  0xffffffffffffffffffffffffffffffffffffffff\n  and\n  0xe0\n  dup2\n  0xffffffffffffffffffffffffffffffffffffffff\n  and\n  dup2\n  mstore\n  pop\n  pop\n    /* \"@ethereum-attestation-service/eas-contracts/contracts/resolver/SchemaResolver.sol\":651:802  constructor(IEAS eas) Semver(1, 3, 0) {... */\n  pop\n    /* \"contracts/resolver.sol\":926:970  constructor(IEAS eas) SchemaResolver(eas) {} */\n  pop\n    /* \"contracts/resolver.sol\":371:2126  contract LogResolver is SchemaResolver {... */\n  jump(tag_11)\n    /* \"#utility.yul\":88:205   */\ntag_13:\n    /* \"#utility.yul\":197:198   */\n  0x00\n    /* \"#utility.yul\":194:195   */\n  dup1\n    /* \"#utility.yul\":187:199   */\n  revert\n    /* \"#utility.yul\":334:460   */\ntag_15:\n    /* \"#utility.yul\":371:378   */\n  0x00\n    /* \"#utility.yul\":411:453   */\n  0xffffffffffffffffffffffffffffffffffffffff\n    /* \"#utility.yul\":404:409   */\n  dup3\n    /* \"#utility.yul\":400:454   */\n  and\n    /* \"#utility.yul\":389:454   */\n  swap1\n  pop\n    /* \"#utility.yul\":334:460   */\n  swap2\n  swap1\n  pop\n  jump\t// out\n    /* \"#utility.yul\":466:562   */\ntag_16:\n    /* \"#utility.yul\":503:510   */\n  0x00\n    /* \"#utility.yul\":532:556   */\n  tag_26\n    /* \"#utility.yul\":550:555   */\n  dup3\n    /* \"#utility.yul\":532:556   */\n  tag_15\n  jump\t// in\ntag_26:\n    /* \"#utility.yul\":521:556   */\n  swap1\n  pop\n    /* \"#utility.yul\":466:562   */\n  swap2\n  swap1\n  pop\n  jump\t// out\n    /* \"#utility.yul\":568:676   */\ntag_17:\n    /* \"#utility.yul\":617:624   */\n  0x00\n    /* \"#utility.yul\":646:670   */\n  tag_28\n    /* \"#utility.yul\":664:669   */\n  dup3\n    /* \"#utility.yul\":646:670   */\n  tag_16\n  jump\t// in\ntag_28:\n    /* \"#utility.yul\":635:670   */\n  swap1\n  pop\n    /* \"#utility.yul\":568:676   */\n  swap2\n  swap1\n  pop\n  jump\t// out\n    /* \"#utility.yul\":682:828   */\ntag_18:\n    /* \"#utility.yul\":767:803   */\n  tag_30\n    /* \"#utility.yul\":797:802   */\n  dup2\n    /* \"#utility.yul\":767:803   */\n  tag_17\n  jump\t// in\ntag_30:\n    /* \"#utility.yul\":760:765   */\n  dup2\n    /* \"#utility.yul\":757:804   */\n  eq\n    /* \"#utility.yul\":747:822   */\n  tag_31\n  jumpi\n    /* \"#utility.yul\":818:819   */\n  0x00\n    /* \"#utility.yul\":815:816   */\n  dup1\n    /* \"#utility.yul\":808:820   */\n  revert\n    /* \"#utility.yul\":747:822   */\ntag_31:\n    /* \"#utility.yul\":682:828   */\n  pop\n  jump\t// out\n    /* \"#utility.yul\":834:1001   */\ntag_19:\n    /* \"#utility.yul\":903:908   */\n  0x00\n    /* \"#utility.yul\":934:940   */\n  dup2\n    /* \"#utility.yul\":928:941   */\n  mload\n    /* \"#utility.yul\":919:941   */\n  swap1\n  pop\n    /* \"#utility.yul\":950:995   */\n  tag_33\n    /* \"#utility.yul\":989:994   */\n  dup2\n    /* \"#utility.yul\":950:995   */\n  tag_18\n  jump\t// in\ntag_33:\n    /* \"#utility.yul\":834:1001   */\n  swap3\n  swap2\n  pop\n  pop\n  jump\t// out\n    /* \"#utility.yul\":1007:1382   */\ntag_3:\n    /* \"#utility.yul\":1089:1095   */\n  0x00\n    /* \"#utility.yul\":1138:1140   */\n  0x20\n    /* \"#utility.yul\":1126:1135   */\n  dup3\n    /* \"#utility.yul\":1117:1124   */\n  dup5\n    /* \"#utility.yul\":1113:1136   */\n  sub\n    /* \"#utility.yul\":1109:1141   */\n  slt\n    /* \"#utility.yul\":1106:1225   */\n  iszero\n  tag_35\n  jumpi\n    /* \"#utility.yul\":1144:1223   */\n  tag_36\n  tag_13\n  jump\t// in\ntag_36:\n    /* \"#utility.yul\":1106:1225   */\ntag_35:\n    /* \"#utility.yul\":1264:1265   */\n  0x00\n    /* \"#utility.yul\":1289:1365   */\n  tag_37\n    /* \"#utility.yul\":1357:1364   */\n  dup5\n    /* \"#utility.yul\":1348:1354   */\n  dup3\n    /* \"#utility.yul\":1337:1346   */\n  dup6\n    /* \"#utility.yul\":1333:1355   */\n  add\n    /* \"#utility.yul\":1289:1365   */\n  tag_19\n  jump\t// in\ntag_37:\n    /* \"#utility.yul\":1279:1365   */\n  swap2\n  pop\n    /* \"#utility.yul\":1235:1375   */\n  pop\n    /* \"#utility.yul\":1007:1382   */\n  swap3\n  swap2\n  pop\n  pop\n  jump\t// out\n    /* \"contracts/resolver.sol\":371:2126  contract LogResolver is SchemaResolver {... */\ntag_11:\n  mload(0x80)\n  mload(0xa0)\n  mload(0xc0)\n  mload(0xe0)\n  codecopy(0x00, dataOffset(sub_0), dataSize(sub_0))\n  0x00\n  assignImmutable(\"0x757234ff4c809d89eeac30d68291f4d3d650fbc62f3b098e171cb1e5a8acaf85\")\n  0x00\n  assignImmutable(\"0x1860b439eb8dafb76774893e52838aa31248011d5f5e862e456c1ad033529cc5\")\n  0x00\n  assignImmutable(\"0x92d0077c1e5b3b21289711fe01d9a6df2f8384bad8f4115869b44ae61cfe56d9\")\n  0x00\n  assignImmutable(\"0x642f9650044f1ad0662a9bf5ce2162e5b9a42a081691e4a3ca3c4d4c08f161e6\")\n  return(0x00, dataSize(sub_0))\nstop\n\nsub_0: assembly {\n        /* \"contracts/resolver.sol\":371:2126  contract LogResolver is SchemaResolver {... */\n      mstore(0x40, 0x80)\n      jumpi(tag_1, lt(calldatasize, 0x04))\n      shr(0xe0, calldataload(0x00))\n      dup1\n      0xce46e046\n      gt\n      tag_11\n      jumpi\n      dup1\n      0xce46e046\n      eq\n      tag_7\n      jumpi\n      dup1\n      0xe49617e1\n      eq\n      tag_8\n      jumpi\n      dup1\n      0xe4dad1c4\n      eq\n      tag_9\n      jumpi\n      dup1\n      0xe60c3505\n      eq\n      tag_10\n      jumpi\n      jump(tag_2)\n    tag_11:\n      dup1\n      0x2a60bdd9\n      eq\n      tag_3\n      jumpi\n      dup1\n      0x54fd4d50\n      eq\n      tag_4\n      jumpi\n      dup1\n      0x88e5b2d9\n      eq\n      tag_5\n      jumpi\n      dup1\n      0x91db0b7e\n      eq\n      tag_6\n      jumpi\n      jump(tag_2)\n    tag_1:\n      jumpi(tag_2, calldatasize)\n        /* \"@ethereum-attestation-service/eas-contracts/contracts/resolver/SchemaResolver.sol\":1144:1155  isPayable() */\n      tag_14\n        /* \"@ethereum-attestation-service/eas-contracts/contracts/resolver/SchemaResolver.sol\":1144:1153  isPayable */\n      tag_15\n        /* \"@ethereum-attestation-service/eas-contracts/contracts/resolver/SchemaResolver.sol\":1144:1155  isPayable() */\n      jump\t// in\n    tag_14:\n        /* \"@ethereum-attestation-service/eas-contracts/contracts/resolver/SchemaResolver.sol\":1139:1201  if (!isPayable()) {... */\n      tag_16\n      jumpi\n        /* \"@ethereum-attestation-service/eas-contracts/contracts/resolver/SchemaResolver.sol\":1178:1190  NotPayable() */\n      mload(0x40)\n      0x1574f9f300000000000000000000000000000000000000000000000000000000\n      dup2\n      mstore\n      0x04\n      add\n      mload(0x40)\n      dup1\n      swap2\n      sub\n      swap1\n      revert\n        /* \"@ethereum-attestation-service/eas-contracts/contracts/resolver/SchemaResolver.sol\":1139:1201  if (!isPayable()) {... */\n    tag_16:\n        /* \"contracts/resolver.sol\":371:2126  contract LogResolver is SchemaResolver {... */\n      stop\n    tag_2:\n      0x00\n      dup1\n      revert\n        /* \"contracts/resolver.sol\":1042:1273  function addEntry(uint64 _userId, uint64 _equipmentId, uint32 _activationDays) public {... */\n    tag_3:\n      callvalue\n      dup1\n      iszero\n      tag_17\n      jumpi\n      0x00\n      dup1\n      revert\n    tag_17:\n      pop\n      tag_18\n      0x04\n      dup1\n      calldatasize\n      sub\n      dup2\n      add\n      swap1\n      tag_19\n      swap2\n      swap1\n      tag_20\n      jump\t// in\n    tag_19:\n      tag_21\n      jump\t// in\n    tag_18:\n      stop\n        /* \"@ethereum-attestation-service/eas-contracts/contracts/Semver.sol\":943:1177  function version() external view returns (string memory) {... */\n    tag_4:\n      callvalue\n      dup1\n      iszero\n      tag_22\n      jumpi\n      0x00\n      dup1\n      revert\n    tag_22:\n      pop\n      tag_23\n      tag_24\n      jump\t// in\n    tag_23:\n      mload(0x40)\n      tag_25\n      swap2\n      swap1\n      tag_26\n      jump\t// in\n    tag_25:\n      mload(0x40)\n      dup1\n      swap2\n      sub\n      swap1\n      return\n        /* \"@ethereum-attestation-service/eas-contracts/contracts/resolver/SchemaResolver.sol\":3128:4588  function multiRevoke(... */\n    tag_5:\n      tag_27\n      0x04\n      dup1\n      calldatasize\n      sub\n      dup2\n      add\n      swap1\n      tag_28\n      swap2\n      swap1\n      tag_29\n      jump\t// in\n    tag_28:\n      tag_30\n      jump\t// in\n    tag_27:\n      mload(0x40)\n      tag_31\n      swap2\n      swap1\n      tag_32\n      jump\t// in\n    tag_31:\n      mload(0x40)\n      dup1\n      swap2\n      sub\n      swap1\n      return\n        /* \"@ethereum-attestation-service/eas-contracts/contracts/resolver/SchemaResolver.sol\":1437:2898  function multiAttest(... */\n    tag_6:\n      tag_33\n      0x04\n      dup1\n      calldatasize\n      sub\n      dup2\n      add\n      swap1\n      tag_34\n      swap2\n      swap1\n      tag_29\n      jump\t// in\n    tag_34:\n      tag_35\n      jump\t// in\n    tag_33:\n      mload(0x40)\n      tag_36\n      swap2\n      swap1\n      tag_32\n      jump\t// in\n    tag_36:\n      mload(0x40)\n      dup1\n      swap2\n      sub\n      swap1\n      return\n        /* \"@ethereum-attestation-service/eas-contracts/contracts/resolver/SchemaResolver.sol\":976:1061  function isPayable() public pure virtual returns (bool) {... */\n    tag_7:\n      callvalue\n      dup1\n      iszero\n      tag_37\n      jumpi\n      0x00\n      dup1\n      revert\n    tag_37:\n      pop\n      tag_38\n      tag_15\n      jump\t// in\n    tag_38:\n      mload(0x40)\n      tag_39\n      swap2\n      swap1\n      tag_32\n      jump\t// in\n    tag_39:\n      mload(0x40)\n      dup1\n      swap2\n      sub\n      swap1\n      return\n        /* \"@ethereum-attestation-service/eas-contracts/contracts/resolver/SchemaResolver.sol\":2940:3086  function revoke(Attestation calldata attestation) external payable onlyEAS returns (bool) {... */\n    tag_8:\n      tag_40\n      0x04\n      dup1\n      calldatasize\n      sub\n      dup2\n      add\n      swap1\n      tag_41\n      swap2\n      swap1\n      tag_42\n      jump\t// in\n    tag_41:\n      tag_43\n      jump\t// in\n    tag_40:\n      mload(0x40)\n      tag_44\n      swap2\n      swap1\n      tag_32\n      jump\t// in\n    tag_44:\n      mload(0x40)\n      dup1\n      swap2\n      sub\n      swap1\n      return\n        /* \"contracts/resolver.sol\":827:866  Attestations[] public attestationsArray */\n    tag_9:\n      callvalue\n      dup1\n      iszero\n      tag_45\n      jumpi\n      0x00\n      dup1\n      revert\n    tag_45:\n      pop\n      tag_46\n      0x04\n      dup1\n      calldatasize\n      sub\n      dup2\n      add\n      swap1\n      tag_47\n      swap2\n      swap1\n      tag_48\n      jump\t// in\n    tag_47:\n      tag_49\n      jump\t// in\n    tag_46:\n      mload(0x40)\n      tag_50\n      swap4\n      swap3\n      swap2\n      swap1\n      tag_51\n      jump\t// in\n    tag_50:\n      mload(0x40)\n      dup1\n      swap2\n      sub\n      swap1\n      return\n        /* \"@ethereum-attestation-service/eas-contracts/contracts/resolver/SchemaResolver.sol\":1249:1395  function attest(Attestation calldata attestation) external payable onlyEAS returns (bool) {... */\n    tag_10:\n      tag_52\n      0x04\n      dup1\n      calldatasize\n      sub\n      dup2\n      add\n      swap1\n      tag_53\n      swap2\n      swap1\n      tag_42\n      jump\t// in\n    tag_53:\n      tag_54\n      jump\t// in\n    tag_52:\n      mload(0x40)\n      tag_55\n      swap2\n      swap1\n      tag_32\n      jump\t// in\n    tag_55:\n      mload(0x40)\n      dup1\n      swap2\n      sub\n      swap1\n      return\n        /* \"@ethereum-attestation-service/eas-contracts/contracts/resolver/SchemaResolver.sol\":976:1061  function isPayable() public pure virtual returns (bool) {... */\n    tag_15:\n        /* \"@ethereum-attestation-service/eas-contracts/contracts/resolver/SchemaResolver.sol\":1026:1030  bool */\n      0x00\n        /* \"@ethereum-attestation-service/eas-contracts/contracts/resolver/SchemaResolver.sol\":976:1061  function isPayable() public pure virtual returns (bool) {... */\n      swap1\n      jump\t// out\n        /* \"contracts/resolver.sol\":1042:1273  function addEntry(uint64 _userId, uint64 _equipmentId, uint32 _activationDays) public {... */\n    tag_21:\n        /* \"contracts/resolver.sol\":1139:1167  Attestations memory newEntry */\n      0x00\n        /* \"contracts/resolver.sol\":1170:1222  Attestations(_userId, _equipmentId, _activationDays) */\n      mload(0x40)\n      dup1\n      0x60\n      add\n      0x40\n      mstore\n      dup1\n        /* \"contracts/resolver.sol\":1183:1190  _userId */\n      dup6\n        /* \"contracts/resolver.sol\":1170:1222  Attestations(_userId, _equipmentId, _activationDays) */\n      0xffffffffffffffff\n      and\n      dup2\n      mstore\n      0x20\n      add\n        /* \"contracts/resolver.sol\":1192:1204  _equipmentId */\n      dup5\n        /* \"contracts/resolver.sol\":1170:1222  Attestations(_userId, _equipmentId, _activationDays) */\n      0xffffffffffffffff\n      and\n      dup2\n      mstore\n      0x20\n      add\n        /* \"contracts/resolver.sol\":1206:1221  _activationDays */\n      dup4\n        /* \"contracts/resolver.sol\":1170:1222  Attestations(_userId, _equipmentId, _activationDays) */\n      0xffffffff\n      and\n      dup2\n      mstore\n      pop\n        /* \"contracts/resolver.sol\":1139:1222  Attestations memory newEntry = Attestations(_userId, _equipmentId, _activationDays) */\n      swap1\n      pop\n        /* \"contracts/resolver.sol\":1233:1250  attestationsArray */\n      0x00\n        /* \"contracts/resolver.sol\":1256:1264  newEntry */\n      dup2\n        /* \"contracts/resolver.sol\":1233:1265  attestationsArray.push(newEntry) */\n      swap1\n      dup1\n      0x01\n      dup2\n      sload\n      add\n      dup1\n      dup3\n      sstore\n      dup1\n      swap2\n      pop\n      pop\n      0x01\n      swap1\n      sub\n      swap1\n      0x00\n      mstore\n      keccak256(0x00, 0x20)\n      add\n      0x00\n      swap1\n      swap2\n      swap1\n      swap2\n      swap1\n      swap2\n      pop\n      0x00\n      dup3\n      add\n      mload\n      dup2\n      0x00\n      add\n      exp(0x0100, 0x00)\n      dup2\n      sload\n      dup2\n      0xffffffffffffffff\n      mul\n      not\n      and\n      swap1\n      dup4\n      0xffffffffffffffff\n      and\n      mul\n      or\n      swap1\n      sstore\n      pop\n      0x20\n      dup3\n      add\n      mload\n      dup2\n      0x00\n      add\n      exp(0x0100, 0x08)\n      dup2\n      sload\n      dup2\n      0xffffffffffffffff\n      mul\n      not\n      and\n      swap1\n      dup4\n      0xffffffffffffffff\n      and\n      mul\n      or\n      swap1\n      sstore\n      pop\n      0x40\n      dup3\n      add\n      mload\n      dup2\n      0x00\n      add\n      exp(0x0100, 0x10)\n      dup2\n      sload\n      dup2\n      0xffffffff\n      mul\n      not\n      and\n      swap1\n      dup4\n      0xffffffff\n      and\n      mul\n      or\n      swap1\n      sstore\n      pop\n      pop\n      pop\n        /* \"contracts/resolver.sol\":1128:1273  {... */\n      pop\n        /* \"contracts/resolver.sol\":1042:1273  function addEntry(uint64 _userId, uint64 _equipmentId, uint32 _activationDays) public {... */\n      pop\n      pop\n      pop\n      jump\t// out\n        /* \"@ethereum-attestation-service/eas-contracts/contracts/Semver.sol\":943:1177  function version() external view returns (string memory) {... */\n    tag_24:\n        /* \"@ethereum-attestation-service/eas-contracts/contracts/Semver.sol\":985:998  string memory */\n      0x60\n        /* \"@ethereum-attestation-service/eas-contracts/contracts/Semver.sol\":1070:1094  Strings.toString(_major) */\n      tag_60\n        /* \"@ethereum-attestation-service/eas-contracts/contracts/Semver.sol\":1087:1093  _major */\n      immutable(\"0x642f9650044f1ad0662a9bf5ce2162e5b9a42a081691e4a3ca3c4d4c08f161e6\")\n        /* \"@ethereum-attestation-service/eas-contracts/contracts/Semver.sol\":1070:1086  Strings.toString */\n      tag_61\n        /* \"@ethereum-attestation-service/eas-contracts/contracts/Semver.sol\":1070:1094  Strings.toString(_major) */\n      jump\t// in\n    tag_60:\n        /* \"@ethereum-attestation-service/eas-contracts/contracts/Semver.sol\":1101:1125  Strings.toString(_minor) */\n      tag_62\n        /* \"@ethereum-attestation-service/eas-contracts/contracts/Semver.sol\":1118:1124  _minor */\n      immutable(\"0x92d0077c1e5b3b21289711fe01d9a6df2f8384bad8f4115869b44ae61cfe56d9\")\n        /* \"@ethereum-attestation-service/eas-contracts/contracts/Semver.sol\":1101:1117  Strings.toString */\n      tag_61\n        /* \"@ethereum-attestation-service/eas-contracts/contracts/Semver.sol\":1101:1125  Strings.toString(_minor) */\n      jump\t// in\n    tag_62:\n        /* \"@ethereum-attestation-service/eas-contracts/contracts/Semver.sol\":1132:1155  Strings.toString(_path) */\n      tag_63\n        /* \"@ethereum-attestation-service/eas-contracts/contracts/Semver.sol\":1149:1154  _path */\n      immutable(\"0x1860b439eb8dafb76774893e52838aa31248011d5f5e862e456c1ad033529cc5\")\n        /* \"@ethereum-attestation-service/eas-contracts/contracts/Semver.sol\":1132:1148  Strings.toString */\n      tag_61\n        /* \"@ethereum-attestation-service/eas-contracts/contracts/Semver.sol\":1132:1155  Strings.toString(_path) */\n      jump\t// in\n    tag_63:\n        /* \"@ethereum-attestation-service/eas-contracts/contracts/Semver.sol\":1053:1156  abi.encodePacked(Strings.toString(_major), \".\", Strings.toString(_minor), \".\", Strings.toString(_path)) */\n      add(0x20, mload(0x40))\n      tag_64\n      swap4\n      swap3\n      swap2\n      swap1\n      tag_65\n      jump\t// in\n    tag_64:\n      mload(0x40)\n      0x20\n      dup2\n      dup4\n      sub\n      sub\n      dup2\n      mstore\n      swap1\n      0x40\n      mstore\n        /* \"@ethereum-attestation-service/eas-contracts/contracts/Semver.sol\":1010:1170  return... */\n      swap1\n      pop\n        /* \"@ethereum-attestation-service/eas-contracts/contracts/Semver.sol\":943:1177  function version() external view returns (string memory) {... */\n      swap1\n      jump\t// out\n        /* \"@ethereum-attestation-service/eas-contracts/contracts/resolver/SchemaResolver.sol\":3128:4588  function multiRevoke(... */\n    tag_30:\n        /* \"@ethereum-attestation-service/eas-contracts/contracts/resolver/SchemaResolver.sol\":3269:3273  bool */\n      0x00\n        /* \"@ethereum-attestation-service/eas-contracts/contracts/resolver/SchemaResolver.sol\":905:915  _onlyEAS() */\n      tag_67\n        /* \"@ethereum-attestation-service/eas-contracts/contracts/resolver/SchemaResolver.sol\":905:913  _onlyEAS */\n      tag_68\n        /* \"@ethereum-attestation-service/eas-contracts/contracts/resolver/SchemaResolver.sol\":905:915  _onlyEAS() */\n      jump\t// in\n    tag_67:\n        /* \"@ethereum-attestation-service/eas-contracts/contracts/resolver/SchemaResolver.sol\":3285:3299  uint256 length */\n      0x00\n        /* \"@ethereum-attestation-service/eas-contracts/contracts/resolver/SchemaResolver.sol\":3302:3314  attestations */\n      dup6\n      dup6\n        /* \"@ethereum-attestation-service/eas-contracts/contracts/resolver/SchemaResolver.sol\":3302:3321  attestations.length */\n      swap1\n      pop\n        /* \"@ethereum-attestation-service/eas-contracts/contracts/resolver/SchemaResolver.sol\":3285:3321  uint256 length = attestations.length */\n      swap1\n      pop\n        /* \"@ethereum-attestation-service/eas-contracts/contracts/resolver/SchemaResolver.sol\":3345:3351  values */\n      dup4\n      dup4\n        /* \"@ethereum-attestation-service/eas-contracts/contracts/resolver/SchemaResolver.sol\":3345:3358  values.length */\n      swap1\n      pop\n        /* \"@ethereum-attestation-service/eas-contracts/contracts/resolver/SchemaResolver.sol\":3335:3341  length */\n      dup2\n        /* \"@ethereum-attestation-service/eas-contracts/contracts/resolver/SchemaResolver.sol\":3335:3358  length != values.length */\n      eq\n        /* \"@ethereum-attestation-service/eas-contracts/contracts/resolver/SchemaResolver.sol\":3331:3407  if (length != values.length) {... */\n      tag_70\n      jumpi\n        /* \"@ethereum-attestation-service/eas-contracts/contracts/resolver/SchemaResolver.sol\":3381:3396  InvalidLength() */\n      mload(0x40)\n      0x947d5a8400000000000000000000000000000000000000000000000000000000\n      dup2\n      mstore\n      0x04\n      add\n      mload(0x40)\n      dup1\n      swap2\n      sub\n      swap1\n      revert\n        /* \"@ethereum-attestation-service/eas-contracts/contracts/resolver/SchemaResolver.sol\":3331:3407  if (length != values.length) {... */\n    tag_70:\n        /* \"@ethereum-attestation-service/eas-contracts/contracts/resolver/SchemaResolver.sol\":3814:3836  uint256 remainingValue */\n      0x00\n        /* \"@ethereum-attestation-service/eas-contracts/contracts/resolver/SchemaResolver.sol\":3839:3848  msg.value */\n      callvalue\n        /* \"@ethereum-attestation-service/eas-contracts/contracts/resolver/SchemaResolver.sol\":3814:3848  uint256 remainingValue = msg.value */\n      swap1\n      pop\n        /* \"@ethereum-attestation-service/eas-contracts/contracts/resolver/SchemaResolver.sol\":3864:3873  uint256 i */\n      0x00\n        /* \"@ethereum-attestation-service/eas-contracts/contracts/resolver/SchemaResolver.sol\":3859:4560  for (uint256 i = 0; i < length; i = uncheckedInc(i)) {... */\n    tag_71:\n        /* \"@ethereum-attestation-service/eas-contracts/contracts/resolver/SchemaResolver.sol\":3883:3889  length */\n      dup3\n        /* \"@ethereum-attestation-service/eas-contracts/contracts/resolver/SchemaResolver.sol\":3879:3880  i */\n      dup2\n        /* \"@ethereum-attestation-service/eas-contracts/contracts/resolver/SchemaResolver.sol\":3879:3889  i < length */\n      lt\n        /* \"@ethereum-attestation-service/eas-contracts/contracts/resolver/SchemaResolver.sol\":3859:4560  for (uint256 i = 0; i < length; i = uncheckedInc(i)) {... */\n      iszero\n      tag_72\n      jumpi\n        /* \"@ethereum-attestation-service/eas-contracts/contracts/resolver/SchemaResolver.sol\":4016:4029  uint256 value */\n      0x00\n        /* \"@ethereum-attestation-service/eas-contracts/contracts/resolver/SchemaResolver.sol\":4032:4038  values */\n      dup7\n      dup7\n        /* \"@ethereum-attestation-service/eas-contracts/contracts/resolver/SchemaResolver.sol\":4039:4040  i */\n      dup4\n        /* \"@ethereum-attestation-service/eas-contracts/contracts/resolver/SchemaResolver.sol\":4032:4041  values[i] */\n      dup2\n      dup2\n      lt\n      tag_74\n      jumpi\n      tag_75\n      tag_76\n      jump\t// in\n    tag_75:\n    tag_74:\n      swap1\n      pop\n      0x20\n      mul\n      add\n      calldataload\n        /* \"@ethereum-attestation-service/eas-contracts/contracts/resolver/SchemaResolver.sol\":4016:4041  uint256 value = values[i] */\n      swap1\n      pop\n        /* \"@ethereum-attestation-service/eas-contracts/contracts/resolver/SchemaResolver.sol\":4067:4081  remainingValue */\n      dup3\n        /* \"@ethereum-attestation-service/eas-contracts/contracts/resolver/SchemaResolver.sol\":4059:4064  value */\n      dup2\n        /* \"@ethereum-attestation-service/eas-contracts/contracts/resolver/SchemaResolver.sol\":4059:4081  value > remainingValue */\n      gt\n        /* \"@ethereum-attestation-service/eas-contracts/contracts/resolver/SchemaResolver.sol\":4055:4142  if (value > remainingValue) {... */\n      iszero\n      tag_77\n      jumpi\n        /* \"@ethereum-attestation-service/eas-contracts/contracts/resolver/SchemaResolver.sol\":4108:4127  InsufficientValue() */\n      mload(0x40)\n      0x1101129400000000000000000000000000000000000000000000000000000000\n      dup2\n      mstore\n      0x04\n      add\n      mload(0x40)\n      dup1\n      swap2\n      sub\n      swap1\n      revert\n        /* \"@ethereum-attestation-service/eas-contracts/contracts/resolver/SchemaResolver.sol\":4055:4142  if (value > remainingValue) {... */\n    tag_77:\n        /* \"@ethereum-attestation-service/eas-contracts/contracts/resolver/SchemaResolver.sol\":4270:4302  onRevoke(attestations[i], value) */\n      tag_78\n        /* \"@ethereum-attestation-service/eas-contracts/contracts/resolver/SchemaResolver.sol\":4279:4291  attestations */\n      dup10\n      dup10\n        /* \"@ethereum-attestation-service/eas-contracts/contracts/resolver/SchemaResolver.sol\":4292:4293  i */\n      dup5\n        /* \"@ethereum-attestation-service/eas-contracts/contracts/resolver/SchemaResolver.sol\":4279:4294  attestations[i] */\n      dup2\n      dup2\n      lt\n      tag_79\n      jumpi\n      tag_80\n      tag_76\n      jump\t// in\n    tag_80:\n    tag_79:\n      swap1\n      pop\n      0x20\n      mul\n      dup2\n      add\n      swap1\n      tag_81\n      swap2\n      swap1\n      tag_82\n      jump\t// in\n    tag_81:\n        /* \"@ethereum-attestation-service/eas-contracts/contracts/resolver/SchemaResolver.sol\":4296:4301  value */\n      dup3\n        /* \"@ethereum-attestation-service/eas-contracts/contracts/resolver/SchemaResolver.sol\":4270:4278  onRevoke */\n      tag_83\n        /* \"@ethereum-attestation-service/eas-contracts/contracts/resolver/SchemaResolver.sol\":4270:4302  onRevoke(attestations[i], value) */\n      jump\t// in\n    tag_78:\n        /* \"@ethereum-attestation-service/eas-contracts/contracts/resolver/SchemaResolver.sol\":4265:4349  if (!onRevoke(attestations[i], value)) {... */\n      tag_84\n      jumpi\n        /* \"@ethereum-attestation-service/eas-contracts/contracts/resolver/SchemaResolver.sol\":4329:4334  false */\n      0x00\n        /* \"@ethereum-attestation-service/eas-contracts/contracts/resolver/SchemaResolver.sol\":4322:4334  return false */\n      swap5\n      pop\n      pop\n      pop\n      pop\n      pop\n      jump(tag_69)\n        /* \"@ethereum-attestation-service/eas-contracts/contracts/resolver/SchemaResolver.sol\":4265:4349  if (!onRevoke(attestations[i], value)) {... */\n    tag_84:\n        /* \"@ethereum-attestation-service/eas-contracts/contracts/resolver/SchemaResolver.sol\":4530:4535  value */\n      dup1\n        /* \"@ethereum-attestation-service/eas-contracts/contracts/resolver/SchemaResolver.sol\":4512:4535  remainingValue -= value */\n      dup4\n      sub\n      swap3\n      pop\n        /* \"@ethereum-attestation-service/eas-contracts/contracts/resolver/SchemaResolver.sol\":3912:4560  {... */\n      pop\n        /* \"@ethereum-attestation-service/eas-contracts/contracts/resolver/SchemaResolver.sol\":3895:3910  uncheckedInc(i) */\n      tag_85\n        /* \"@ethereum-attestation-service/eas-contracts/contracts/resolver/SchemaResolver.sol\":3908:3909  i */\n      dup2\n        /* \"@ethereum-attestation-service/eas-contracts/contracts/resolver/SchemaResolver.sol\":3895:3907  uncheckedInc */\n      tag_86\n        /* \"@ethereum-attestation-service/eas-contracts/contracts/resolver/SchemaResolver.sol\":3895:3910  uncheckedInc(i) */\n      jump\t// in\n    tag_85:\n        /* \"@ethereum-attestation-service/eas-contracts/contracts/resolver/SchemaResolver.sol\":3891:3910  i = uncheckedInc(i) */\n      swap1\n      pop\n        /* \"@ethereum-attestation-service/eas-contracts/contracts/resolver/SchemaResolver.sol\":3859:4560  for (uint256 i = 0; i < length; i = uncheckedInc(i)) {... */\n      jump(tag_71)\n    tag_72:\n      pop\n        /* \"@ethereum-attestation-service/eas-contracts/contracts/resolver/SchemaResolver.sol\":4577:4581  true */\n      0x01\n        /* \"@ethereum-attestation-service/eas-contracts/contracts/resolver/SchemaResolver.sol\":4570:4581  return true */\n      swap3\n      pop\n      pop\n      pop\n        /* \"@ethereum-attestation-service/eas-contracts/contracts/resolver/SchemaResolver.sol\":926:927  _ */\n    tag_69:\n        /* \"@ethereum-attestation-service/eas-contracts/contracts/resolver/SchemaResolver.sol\":3128:4588  function multiRevoke(... */\n      swap5\n      swap4\n      pop\n      pop\n      pop\n      pop\n      jump\t// out\n        /* \"@ethereum-attestation-service/eas-contracts/contracts/resolver/SchemaResolver.sol\":1437:2898  function multiAttest(... */\n    tag_35:\n        /* \"@ethereum-attestation-service/eas-contracts/contracts/resolver/SchemaResolver.sol\":1578:1582  bool */\n      0x00\n        /* \"@ethereum-attestation-service/eas-contracts/contracts/resolver/SchemaResolver.sol\":905:915  _onlyEAS() */\n      tag_88\n        /* \"@ethereum-attestation-service/eas-contracts/contracts/resolver/SchemaResolver.sol\":905:913  _onlyEAS */\n      tag_68\n        /* \"@ethereum-attestation-service/eas-contracts/contracts/resolver/SchemaResolver.sol\":905:915  _onlyEAS() */\n      jump\t// in\n    tag_88:\n        /* \"@ethereum-attestation-service/eas-contracts/contracts/resolver/SchemaResolver.sol\":1594:1608  uint256 length */\n      0x00\n        /* \"@ethereum-attestation-service/eas-contracts/contracts/resolver/SchemaResolver.sol\":1611:1623  attestations */\n      dup6\n      dup6\n        /* \"@ethereum-attestation-service/eas-contracts/contracts/resolver/SchemaResolver.sol\":1611:1630  attestations.length */\n      swap1\n      pop\n        /* \"@ethereum-attestation-service/eas-contracts/contracts/resolver/SchemaResolver.sol\":1594:1630  uint256 length = attestations.length */\n      swap1\n      pop\n        /* \"@ethereum-attestation-service/eas-contracts/contracts/resolver/SchemaResolver.sol\":1654:1660  values */\n      dup4\n      dup4\n        /* \"@ethereum-attestation-service/eas-contracts/contracts/resolver/SchemaResolver.sol\":1654:1667  values.length */\n      swap1\n      pop\n        /* \"@ethereum-attestation-service/eas-contracts/contracts/resolver/SchemaResolver.sol\":1644:1650  length */\n      dup2\n        /* \"@ethereum-attestation-service/eas-contracts/contracts/resolver/SchemaResolver.sol\":1644:1667  length != values.length */\n      eq\n        /* \"@ethereum-attestation-service/eas-contracts/contracts/resolver/SchemaResolver.sol\":1640:1716  if (length != values.length) {... */\n      tag_90\n      jumpi\n        /* \"@ethereum-attestation-service/eas-contracts/contracts/resolver/SchemaResolver.sol\":1690:1705  InvalidLength() */\n      mload(0x40)\n      0x947d5a8400000000000000000000000000000000000000000000000000000000\n      dup2\n      mstore\n      0x04\n      add\n      mload(0x40)\n      dup1\n      swap2\n      sub\n      swap1\n      revert\n        /* \"@ethereum-attestation-service/eas-contracts/contracts/resolver/SchemaResolver.sol\":1640:1716  if (length != values.length) {... */\n    tag_90:\n        /* \"@ethereum-attestation-service/eas-contracts/contracts/resolver/SchemaResolver.sol\":2123:2145  uint256 remainingValue */\n      0x00\n        /* \"@ethereum-attestation-service/eas-contracts/contracts/resolver/SchemaResolver.sol\":2148:2157  msg.value */\n      callvalue\n        /* \"@ethereum-attestation-service/eas-contracts/contracts/resolver/SchemaResolver.sol\":2123:2157  uint256 remainingValue = msg.value */\n      swap1\n      pop\n        /* \"@ethereum-attestation-service/eas-contracts/contracts/resolver/SchemaResolver.sol\":2173:2182  uint256 i */\n      0x00\n        /* \"@ethereum-attestation-service/eas-contracts/contracts/resolver/SchemaResolver.sol\":2168:2870  for (uint256 i = 0; i < length; i = uncheckedInc(i)) {... */\n    tag_91:\n        /* \"@ethereum-attestation-service/eas-contracts/contracts/resolver/SchemaResolver.sol\":2192:2198  length */\n      dup3\n        /* \"@ethereum-attestation-service/eas-contracts/contracts/resolver/SchemaResolver.sol\":2188:2189  i */\n      dup2\n        /* \"@ethereum-attestation-service/eas-contracts/contracts/resolver/SchemaResolver.sol\":2188:2198  i < length */\n      lt\n        /* \"@ethereum-attestation-service/eas-contracts/contracts/resolver/SchemaResolver.sol\":2168:2870  for (uint256 i = 0; i < length; i = uncheckedInc(i)) {... */\n      iszero\n      tag_92\n      jumpi\n        /* \"@ethereum-attestation-service/eas-contracts/contracts/resolver/SchemaResolver.sol\":2325:2338  uint256 value */\n      0x00\n        /* \"@ethereum-attestation-service/eas-contracts/contracts/resolver/SchemaResolver.sol\":2341:2347  values */\n      dup7\n      dup7\n        /* \"@ethereum-attestation-service/eas-contracts/contracts/resolver/SchemaResolver.sol\":2348:2349  i */\n      dup4\n        /* \"@ethereum-attestation-service/eas-contracts/contracts/resolver/SchemaResolver.sol\":2341:2350  values[i] */\n      dup2\n      dup2\n      lt\n      tag_94\n      jumpi\n      tag_95\n      tag_76\n      jump\t// in\n    tag_95:\n    tag_94:\n      swap1\n      pop\n      0x20\n      mul\n      add\n      calldataload\n        /* \"@ethereum-attestation-service/eas-contracts/contracts/resolver/SchemaResolver.sol\":2325:2350  uint256 value = values[i] */\n      swap1\n      pop\n        /* \"@ethereum-attestation-service/eas-contracts/contracts/resolver/SchemaResolver.sol\":2376:2390  remainingValue */\n      dup3\n        /* \"@ethereum-attestation-service/eas-contracts/contracts/resolver/SchemaResolver.sol\":2368:2373  value */\n      dup2\n        /* \"@ethereum-attestation-service/eas-contracts/contracts/resolver/SchemaResolver.sol\":2368:2390  value > remainingValue */\n      gt\n        /* \"@ethereum-attestation-service/eas-contracts/contracts/resolver/SchemaResolver.sol\":2364:2451  if (value > remainingValue) {... */\n      iszero\n      tag_96\n      jumpi\n        /* \"@ethereum-attestation-service/eas-contracts/contracts/resolver/SchemaResolver.sol\":2417:2436  InsufficientValue() */\n      mload(0x40)\n      0x1101129400000000000000000000000000000000000000000000000000000000\n      dup2\n      mstore\n      0x04\n      add\n      mload(0x40)\n      dup1\n      swap2\n      sub\n      swap1\n      revert\n        /* \"@ethereum-attestation-service/eas-contracts/contracts/resolver/SchemaResolver.sol\":2364:2451  if (value > remainingValue) {... */\n    tag_96:\n        /* \"@ethereum-attestation-service/eas-contracts/contracts/resolver/SchemaResolver.sol\":2580:2612  onAttest(attestations[i], value) */\n      tag_97\n        /* \"@ethereum-attestation-service/eas-contracts/contracts/resolver/SchemaResolver.sol\":2589:2601  attestations */\n      dup10\n      dup10\n        /* \"@ethereum-attestation-service/eas-contracts/contracts/resolver/SchemaResolver.sol\":2602:2603  i */\n      dup5\n        /* \"@ethereum-attestation-service/eas-contracts/contracts/resolver/SchemaResolver.sol\":2589:2604  attestations[i] */\n      dup2\n      dup2\n      lt\n      tag_98\n      jumpi\n      tag_99\n      tag_76\n      jump\t// in\n    tag_99:\n    tag_98:\n      swap1\n      pop\n      0x20\n      mul\n      dup2\n      add\n      swap1\n      tag_100\n      swap2\n      swap1\n      tag_82\n      jump\t// in\n    tag_100:\n        /* \"@ethereum-attestation-service/eas-contracts/contracts/resolver/SchemaResolver.sol\":2606:2611  value */\n      dup3\n        /* \"@ethereum-attestation-service/eas-contracts/contracts/resolver/SchemaResolver.sol\":2580:2588  onAttest */\n      tag_101\n        /* \"@ethereum-attestation-service/eas-contracts/contracts/resolver/SchemaResolver.sol\":2580:2612  onAttest(attestations[i], value) */\n      jump\t// in\n    tag_97:\n        /* \"@ethereum-attestation-service/eas-contracts/contracts/resolver/SchemaResolver.sol\":2575:2659  if (!onAttest(attestations[i], value)) {... */\n      tag_102\n      jumpi\n        /* \"@ethereum-attestation-service/eas-contracts/contracts/resolver/SchemaResolver.sol\":2639:2644  false */\n      0x00\n        /* \"@ethereum-attestation-service/eas-contracts/contracts/resolver/SchemaResolver.sol\":2632:2644  return false */\n      swap5\n      pop\n      pop\n      pop\n      pop\n      pop\n      jump(tag_89)\n        /* \"@ethereum-attestation-service/eas-contracts/contracts/resolver/SchemaResolver.sol\":2575:2659  if (!onAttest(attestations[i], value)) {... */\n    tag_102:\n        /* \"@ethereum-attestation-service/eas-contracts/contracts/resolver/SchemaResolver.sol\":2840:2845  value */\n      dup1\n        /* \"@ethereum-attestation-service/eas-contracts/contracts/resolver/SchemaResolver.sol\":2822:2845  remainingValue -= value */\n      dup4\n      sub\n      swap3\n      pop\n        /* \"@ethereum-attestation-service/eas-contracts/contracts/resolver/SchemaResolver.sol\":2221:2870  {... */\n      pop\n        /* \"@ethereum-attestation-service/eas-contracts/contracts/resolver/SchemaResolver.sol\":2204:2219  uncheckedInc(i) */\n      tag_103\n        /* \"@ethereum-attestation-service/eas-contracts/contracts/resolver/SchemaResolver.sol\":2217:2218  i */\n      dup2\n        /* \"@ethereum-attestation-service/eas-contracts/contracts/resolver/SchemaResolver.sol\":2204:2216  uncheckedInc */\n      tag_86\n        /* \"@ethereum-attestation-service/eas-contracts/contracts/resolver/SchemaResolver.sol\":2204:2219  uncheckedInc(i) */\n      jump\t// in\n    tag_103:\n        /* \"@ethereum-attestation-service/eas-contracts/contracts/resolver/SchemaResolver.sol\":2200:2219  i = uncheckedInc(i) */\n      swap1\n      pop\n        /* \"@ethereum-attestation-service/eas-contracts/contracts/resolver/SchemaResolver.sol\":2168:2870  for (uint256 i = 0; i < length; i = uncheckedInc(i)) {... */\n      jump(tag_91)\n    tag_92:\n      pop\n        /* \"@ethereum-attestation-service/eas-contracts/contracts/resolver/SchemaResolver.sol\":2887:2891  true */\n      0x01\n        /* \"@ethereum-attestation-service/eas-contracts/contracts/resolver/SchemaResolver.sol\":2880:2891  return true */\n      swap3\n      pop\n      pop\n      pop\n        /* \"@ethereum-attestation-service/eas-contracts/contracts/resolver/SchemaResolver.sol\":926:927  _ */\n    tag_89:\n        /* \"@ethereum-attestation-service/eas-contracts/contracts/resolver/SchemaResolver.sol\":1437:2898  function multiAttest(... */\n      swap5\n      swap4\n      pop\n      pop\n      pop\n      pop\n      jump\t// out\n        /* \"@ethereum-attestation-service/eas-contracts/contracts/resolver/SchemaResolver.sol\":2940:3086  function revoke(Attestation calldata attestation) external payable onlyEAS returns (bool) {... */\n    tag_43:\n        /* \"@ethereum-attestation-service/eas-contracts/contracts/resolver/SchemaResolver.sol\":3024:3028  bool */\n      0x00\n        /* \"@ethereum-attestation-service/eas-contracts/contracts/resolver/SchemaResolver.sol\":905:915  _onlyEAS() */\n      tag_105\n        /* \"@ethereum-attestation-service/eas-contracts/contracts/resolver/SchemaResolver.sol\":905:913  _onlyEAS */\n      tag_68\n        /* \"@ethereum-attestation-service/eas-contracts/contracts/resolver/SchemaResolver.sol\":905:915  _onlyEAS() */\n      jump\t// in\n    tag_105:\n        /* \"@ethereum-attestation-service/eas-contracts/contracts/resolver/SchemaResolver.sol\":3047:3079  onRevoke(attestation, msg.value) */\n      tag_107\n        /* \"@ethereum-attestation-service/eas-contracts/contracts/resolver/SchemaResolver.sol\":3056:3067  attestation */\n      dup3\n        /* \"@ethereum-attestation-service/eas-contracts/contracts/resolver/SchemaResolver.sol\":3069:3078  msg.value */\n      callvalue\n        /* \"@ethereum-attestation-service/eas-contracts/contracts/resolver/SchemaResolver.sol\":3047:3055  onRevoke */\n      tag_83\n        /* \"@ethereum-attestation-service/eas-contracts/contracts/resolver/SchemaResolver.sol\":3047:3079  onRevoke(attestation, msg.value) */\n      jump\t// in\n    tag_107:\n        /* \"@ethereum-attestation-service/eas-contracts/contracts/resolver/SchemaResolver.sol\":3040:3079  return onRevoke(attestation, msg.value) */\n      swap1\n      pop\n        /* \"@ethereum-attestation-service/eas-contracts/contracts/resolver/SchemaResolver.sol\":2940:3086  function revoke(Attestation calldata attestation) external payable onlyEAS returns (bool) {... */\n      swap2\n      swap1\n      pop\n      jump\t// out\n        /* \"contracts/resolver.sol\":827:866  Attestations[] public attestationsArray */\n    tag_49:\n      0x00\n      dup2\n      dup2\n      sload\n      dup2\n      lt\n      tag_108\n      jumpi\n      0x00\n      dup1\n      revert\n    tag_108:\n      swap1\n      0x00\n      mstore\n      keccak256(0x00, 0x20)\n      add\n      0x00\n      swap2\n      pop\n      swap1\n      pop\n      dup1\n      0x00\n      add\n      0x00\n      swap1\n      sload\n      swap1\n      0x0100\n      exp\n      swap1\n      div\n      0xffffffffffffffff\n      and\n      swap1\n      dup1\n      0x00\n      add\n      0x08\n      swap1\n      sload\n      swap1\n      0x0100\n      exp\n      swap1\n      div\n      0xffffffffffffffff\n      and\n      swap1\n      dup1\n      0x00\n      add\n      0x10\n      swap1\n      sload\n      swap1\n      0x0100\n      exp\n      swap1\n      div\n      0xffffffff\n      and\n      swap1\n      pop\n      dup4\n      jump\t// out\n        /* \"@ethereum-attestation-service/eas-contracts/contracts/resolver/SchemaResolver.sol\":1249:1395  function attest(Attestation calldata attestation) external payable onlyEAS returns (bool) {... */\n    tag_54:\n        /* \"@ethereum-attestation-service/eas-contracts/contracts/resolver/SchemaResolver.sol\":1333:1337  bool */\n      0x00\n        /* \"@ethereum-attestation-service/eas-contracts/contracts/resolver/SchemaResolver.sol\":905:915  _onlyEAS() */\n      tag_111\n        /* \"@ethereum-attestation-service/eas-contracts/contracts/resolver/SchemaResolver.sol\":905:913  _onlyEAS */\n      tag_68\n        /* \"@ethereum-attestation-service/eas-contracts/contracts/resolver/SchemaResolver.sol\":905:915  _onlyEAS() */\n      jump\t// in\n    tag_111:\n        /* \"@ethereum-attestation-service/eas-contracts/contracts/resolver/SchemaResolver.sol\":1356:1388  onAttest(attestation, msg.value) */\n      tag_113\n        /* \"@ethereum-attestation-service/eas-contracts/contracts/resolver/SchemaResolver.sol\":1365:1376  attestation */\n      dup3\n        /* \"@ethereum-attestation-service/eas-contracts/contracts/resolver/SchemaResolver.sol\":1378:1387  msg.value */\n      callvalue\n        /* \"@ethereum-attestation-service/eas-contracts/contracts/resolver/SchemaResolver.sol\":1356:1364  onAttest */\n      tag_101\n        /* \"@ethereum-attestation-service/eas-contracts/contracts/resolver/SchemaResolver.sol\":1356:1388  onAttest(attestation, msg.value) */\n      jump\t// in\n    tag_113:\n        /* \"@ethereum-attestation-service/eas-contracts/contracts/resolver/SchemaResolver.sol\":1349:1388  return onAttest(attestation, msg.value) */\n      swap1\n      pop\n        /* \"@ethereum-attestation-service/eas-contracts/contracts/resolver/SchemaResolver.sol\":1249:1395  function attest(Attestation calldata attestation) external payable onlyEAS returns (bool) {... */\n      swap2\n      swap1\n      pop\n      jump\t// out\n        /* \"@openzeppelin/contracts/utils/Strings.sol\":637:1335  function toString(uint256 value) internal pure returns (string memory) {... */\n    tag_61:\n        /* \"@openzeppelin/contracts/utils/Strings.sol\":693:706  string memory */\n      0x60\n        /* \"@openzeppelin/contracts/utils/Strings.sol\":742:756  uint256 length */\n      0x00\n        /* \"@openzeppelin/contracts/utils/Strings.sol\":779:780  1 */\n      0x01\n        /* \"@openzeppelin/contracts/utils/Strings.sol\":759:776  Math.log10(value) */\n      tag_115\n        /* \"@openzeppelin/contracts/utils/Strings.sol\":770:775  value */\n      dup5\n        /* \"@openzeppelin/contracts/utils/Strings.sol\":759:769  Math.log10 */\n      tag_116\n        /* \"@openzeppelin/contracts/utils/Strings.sol\":759:776  Math.log10(value) */\n      jump\t// in\n    tag_115:\n        /* \"@openzeppelin/contracts/utils/Strings.sol\":759:780  Math.log10(value) + 1 */\n      add\n        /* \"@openzeppelin/contracts/utils/Strings.sol\":742:780  uint256 length = Math.log10(value) + 1 */\n      swap1\n      pop\n        /* \"@openzeppelin/contracts/utils/Strings.sol\":794:814  string memory buffer */\n      0x00\n        /* \"@openzeppelin/contracts/utils/Strings.sol\":828:834  length */\n      dup2\n        /* \"@openzeppelin/contracts/utils/Strings.sol\":817:835  new string(length) */\n      0xffffffffffffffff\n      dup2\n      gt\n      iszero\n      tag_117\n      jumpi\n      tag_118\n      tag_119\n      jump\t// in\n    tag_118:\n    tag_117:\n      mload(0x40)\n      swap1\n      dup1\n      dup3\n      mstore\n      dup1\n      0x1f\n      add\n      not(0x1f)\n      and\n      0x20\n      add\n      dup3\n      add\n      0x40\n      mstore\n      dup1\n      iszero\n      tag_120\n      jumpi\n      dup2\n      0x20\n      add\n      0x01\n      dup3\n      mul\n      dup1\n      calldatasize\n      dup4\n      calldatacopy\n      dup1\n      dup3\n      add\n      swap2\n      pop\n      pop\n      swap1\n      pop\n    tag_120:\n      pop\n        /* \"@openzeppelin/contracts/utils/Strings.sol\":794:835  string memory buffer = new string(length) */\n      swap1\n      pop\n        /* \"@openzeppelin/contracts/utils/Strings.sol\":849:860  uint256 ptr */\n      0x00\n        /* \"@openzeppelin/contracts/utils/Strings.sol\":975:981  length */\n      dup3\n        /* \"@openzeppelin/contracts/utils/Strings.sol\":971:973  32 */\n      0x20\n        /* \"@openzeppelin/contracts/utils/Strings.sol\":967:982  add(32, length) */\n      add\n        /* \"@openzeppelin/contracts/utils/Strings.sol\":959:965  buffer */\n      dup3\n        /* \"@openzeppelin/contracts/utils/Strings.sol\":955:983  add(buffer, add(32, length)) */\n      add\n        /* \"@openzeppelin/contracts/utils/Strings.sol\":948:983  ptr := add(buffer, add(32, length)) */\n      swap1\n      pop\n        /* \"@openzeppelin/contracts/utils/Strings.sol\":1010:1292  while (true) {... */\n    tag_121:\n        /* \"@openzeppelin/contracts/utils/Strings.sol\":1017:1021  true */\n      0x01\n        /* \"@openzeppelin/contracts/utils/Strings.sol\":1010:1292  while (true) {... */\n      iszero\n      tag_122\n      jumpi\n        /* \"@openzeppelin/contracts/utils/Strings.sol\":1041:1046  ptr-- */\n      dup1\n      dup1\n      0x01\n      swap1\n      sub\n      swap2\n      pop\n      pop\n        /* \"@openzeppelin/contracts/utils/Strings.sol\":1180:1190  HEX_DIGITS */\n      0x3031323334353637383961626364656600000000000000000000000000000000\n        /* \"@openzeppelin/contracts/utils/Strings.sol\":1175:1177  10 */\n      0x0a\n        /* \"@openzeppelin/contracts/utils/Strings.sol\":1168:1173  value */\n      dup7\n        /* \"@openzeppelin/contracts/utils/Strings.sol\":1164:1178  mod(value, 10) */\n      mod\n        /* \"@openzeppelin/contracts/utils/Strings.sol\":1159:1191  byte(mod(value, 10), HEX_DIGITS) */\n      byte\n        /* \"@openzeppelin/contracts/utils/Strings.sol\":1154:1157  ptr */\n      dup2\n        /* \"@openzeppelin/contracts/utils/Strings.sol\":1146:1192  mstore8(ptr, byte(mod(value, 10), HEX_DIGITS)) */\n      mstore8\n        /* \"@openzeppelin/contracts/utils/Strings.sol\":1236:1238  10 */\n      0x0a\n        /* \"@openzeppelin/contracts/utils/Strings.sol\":1227:1238  value /= 10 */\n      dup6\n      dup2\n      tag_123\n      jumpi\n      tag_124\n      tag_125\n      jump\t// in\n    tag_124:\n    tag_123:\n      div\n      swap5\n      pop\n        /* \"@openzeppelin/contracts/utils/Strings.sol\":1269:1270  0 */\n      0x00\n        /* \"@openzeppelin/contracts/utils/Strings.sol\":1260:1265  value */\n      dup6\n        /* \"@openzeppelin/contracts/utils/Strings.sol\":1260:1270  value == 0 */\n      sub\n        /* \"@openzeppelin/contracts/utils/Strings.sol\":1010:1292  while (true) {... */\n      tag_121\n        /* \"@openzeppelin/contracts/utils/Strings.sol\":1256:1277  if (value == 0) break */\n      jumpi\n        /* \"@openzeppelin/contracts/utils/Strings.sol\":1010:1292  while (true) {... */\n    tag_122:\n        /* \"@openzeppelin/contracts/utils/Strings.sol\":1312:1318  buffer */\n      dup2\n        /* \"@openzeppelin/contracts/utils/Strings.sol\":1305:1318  return buffer */\n      swap4\n      pop\n      pop\n      pop\n      pop\n        /* \"@openzeppelin/contracts/utils/Strings.sol\":637:1335  function toString(uint256 value) internal pure returns (string memory) {... */\n      swap2\n      swap1\n      pop\n      jump\t// out\n        /* \"@ethereum-attestation-service/eas-contracts/contracts/resolver/SchemaResolver.sol\":6035:6163  function _onlyEAS() private view {... */\n    tag_68:\n        /* \"@ethereum-attestation-service/eas-contracts/contracts/resolver/SchemaResolver.sol\":6104:6108  _eas */\n      immutable(\"0x757234ff4c809d89eeac30d68291f4d3d650fbc62f3b098e171cb1e5a8acaf85\")\n        /* \"@ethereum-attestation-service/eas-contracts/contracts/resolver/SchemaResolver.sol\":6082:6109  msg.sender != address(_eas) */\n      0xffffffffffffffffffffffffffffffffffffffff\n      and\n        /* \"@ethereum-attestation-service/eas-contracts/contracts/resolver/SchemaResolver.sol\":6082:6092  msg.sender */\n      caller\n        /* \"@ethereum-attestation-service/eas-contracts/contracts/resolver/SchemaResolver.sol\":6082:6109  msg.sender != address(_eas) */\n      0xffffffffffffffffffffffffffffffffffffffff\n      and\n      eq\n        /* \"@ethereum-attestation-service/eas-contracts/contracts/resolver/SchemaResolver.sol\":6078:6157  if (msg.sender != address(_eas)) {... */\n      tag_128\n      jumpi\n        /* \"@ethereum-attestation-service/eas-contracts/contracts/resolver/SchemaResolver.sol\":6132:6146  AccessDenied() */\n      mload(0x40)\n      0x4ca8886700000000000000000000000000000000000000000000000000000000\n      dup2\n      mstore\n      0x04\n      add\n      mload(0x40)\n      dup1\n      swap2\n      sub\n      swap1\n      revert\n        /* \"@ethereum-attestation-service/eas-contracts/contracts/resolver/SchemaResolver.sol\":6078:6157  if (msg.sender != address(_eas)) {... */\n    tag_128:\n        /* \"@ethereum-attestation-service/eas-contracts/contracts/resolver/SchemaResolver.sol\":6035:6163  function _onlyEAS() private view {... */\n      jump\t// out\n        /* \"contracts/resolver.sol\":1889:2123  function onRevoke(Attestation calldata attestation, uint256 /*value*/) internal override returns (bool) {... */\n    tag_83:\n        /* \"contracts/resolver.sol\":1987:1991  bool */\n      0x00\n        /* \"contracts/resolver.sol\":2004:2017  uint256 value */\n      dup1\n        /* \"contracts/resolver.sol\":2031:2042  attestation */\n      dup4\n        /* \"contracts/resolver.sol\":2031:2047  attestation.data */\n      dup1\n      0x0120\n      add\n      swap1\n      tag_130\n      swap2\n      swap1\n      tag_131\n      jump\t// in\n    tag_130:\n        /* \"contracts/resolver.sol\":2020:2059  abi.decode(attestation.data, (uint256)) */\n      dup2\n      add\n      swap1\n      tag_132\n      swap2\n      swap1\n      tag_48\n      jump\t// in\n    tag_132:\n        /* \"contracts/resolver.sol\":2004:2059  uint256 value = abi.decode(attestation.data, (uint256)) */\n      swap1\n      pop\n        /* \"contracts/resolver.sol\":2077:2091  Revoked(value) */\n      0x61e27b0bfd8e18e6b92ec32ce1c28bb698d27bfe93e84c7e94d4db0a3135c760\n        /* \"contracts/resolver.sol\":2085:2090  value */\n      dup2\n        /* \"contracts/resolver.sol\":2077:2091  Revoked(value) */\n      mload(0x40)\n      tag_133\n      swap2\n      swap1\n      tag_134\n      jump\t// in\n    tag_133:\n      mload(0x40)\n      dup1\n      swap2\n      sub\n      swap1\n      log1\n        /* \"contracts/resolver.sol\":2111:2115  true */\n      0x01\n        /* \"contracts/resolver.sol\":2104:2115  return true */\n      swap2\n      pop\n      pop\n        /* \"contracts/resolver.sol\":1889:2123  function onRevoke(Attestation calldata attestation, uint256 /*value*/) internal override returns (bool) {... */\n      swap3\n      swap2\n      pop\n      pop\n      jump\t// out\n        /* \"@ethereum-attestation-service/eas-contracts/contracts/Common.sol\":1397:1499  function uncheckedInc(uint256 i) pure returns (uint256 j) {... */\n    tag_86:\n        /* \"@ethereum-attestation-service/eas-contracts/contracts/Common.sol\":1444:1453  uint256 j */\n      0x00\n        /* \"@ethereum-attestation-service/eas-contracts/contracts/Common.sol\":1489:1490  1 */\n      0x01\n        /* \"@ethereum-attestation-service/eas-contracts/contracts/Common.sol\":1485:1486  i */\n      dup3\n        /* \"@ethereum-attestation-service/eas-contracts/contracts/Common.sol\":1485:1490  i + 1 */\n      add\n        /* \"@ethereum-attestation-service/eas-contracts/contracts/Common.sol\":1481:1490  j = i + 1 */\n      swap1\n      pop\n        /* \"@ethereum-attestation-service/eas-contracts/contracts/Common.sol\":1397:1499  function uncheckedInc(uint256 i) pure returns (uint256 j) {... */\n      swap2\n      swap1\n      pop\n      jump\t// out\n        /* \"contracts/resolver.sol\":1483:1718  function onAttest(Attestation calldata attestation, uint256 /*value*/) internal override returns (bool) {... */\n    tag_101:\n        /* \"contracts/resolver.sol\":1581:1585  bool */\n      0x00\n        /* \"contracts/resolver.sol\":1598:1611  uint256 value */\n      dup1\n        /* \"contracts/resolver.sol\":1625:1636  attestation */\n      dup4\n        /* \"contracts/resolver.sol\":1625:1641  attestation.data */\n      dup1\n      0x0120\n      add\n      swap1\n      tag_137\n      swap2\n      swap1\n      tag_131\n      jump\t// in\n    tag_137:\n        /* \"contracts/resolver.sol\":1614:1653  abi.decode(attestation.data, (uint256)) */\n      dup2\n      add\n      swap1\n      tag_138\n      swap2\n      swap1\n      tag_48\n      jump\t// in\n    tag_138:\n        /* \"contracts/resolver.sol\":1598:1653  uint256 value = abi.decode(attestation.data, (uint256)) */\n      swap1\n      pop\n        /* \"contracts/resolver.sol\":1671:1686  Attested(value) */\n      0x406d6b56e7b0f2ea2d981907ff7082b8d06a927181752ebcc6c4a7853b06a892\n        /* \"contracts/resolver.sol\":1680:1685  value */\n      dup2\n        /* \"contracts/resolver.sol\":1671:1686  Attested(value) */\n      mload(0x40)\n      tag_139\n      swap2\n      swap1\n      tag_134\n      jump\t// in\n    tag_139:\n      mload(0x40)\n      dup1\n      swap2\n      sub\n      swap1\n      log1\n        /* \"contracts/resolver.sol\":1706:1710  true */\n      0x01\n        /* \"contracts/resolver.sol\":1699:1710  return true */\n      swap2\n      pop\n      pop\n        /* \"contracts/resolver.sol\":1483:1718  function onAttest(Attestation calldata attestation, uint256 /*value*/) internal override returns (bool) {... */\n      swap3\n      swap2\n      pop\n      pop\n      jump\t// out\n        /* \"@openzeppelin/contracts/utils/math/Math.sol\":12214:13130  function log10(uint256 value) internal pure returns (uint256) {... */\n    tag_116:\n        /* \"@openzeppelin/contracts/utils/math/Math.sol\":12267:12274  uint256 */\n      0x00\n        /* \"@openzeppelin/contracts/utils/math/Math.sol\":12286:12300  uint256 result */\n      dup1\n        /* \"@openzeppelin/contracts/utils/math/Math.sol\":12303:12304  0 */\n      0x00\n        /* \"@openzeppelin/contracts/utils/math/Math.sol\":12286:12304  uint256 result = 0 */\n      swap1\n      pop\n        /* \"@openzeppelin/contracts/utils/math/Math.sol\":12351:12359  10 ** 64 */\n      0x184f03e93ff9f4daa797ed6e38ed64bf6a1f010000000000000000\n        /* \"@openzeppelin/contracts/utils/math/Math.sol\":12342:12347  value */\n      dup4\n        /* \"@openzeppelin/contracts/utils/math/Math.sol\":12342:12359  value >= 10 ** 64 */\n      lt\n        /* \"@openzeppelin/contracts/utils/math/Math.sol\":12338:12441  if (value >= 10 ** 64) {... */\n      tag_141\n      jumpi\n        /* \"@openzeppelin/contracts/utils/math/Math.sol\":12388:12396  10 ** 64 */\n      0x184f03e93ff9f4daa797ed6e38ed64bf6a1f010000000000000000\n        /* \"@openzeppelin/contracts/utils/math/Math.sol\":12379:12396  value /= 10 ** 64 */\n      dup4\n      dup2\n      tag_142\n      jumpi\n      tag_143\n      tag_125\n      jump\t// in\n    tag_143:\n    tag_142:\n      div\n      swap3\n      pop\n        /* \"@openzeppelin/contracts/utils/math/Math.sol\":12424:12426  64 */\n      0x40\n        /* \"@openzeppelin/contracts/utils/math/Math.sol\":12414:12426  result += 64 */\n      dup2\n      add\n      swap1\n      pop\n        /* \"@openzeppelin/contracts/utils/math/Math.sol\":12338:12441  if (value >= 10 ** 64) {... */\n    tag_141:\n        /* \"@openzeppelin/contracts/utils/math/Math.sol\":12467:12475  10 ** 32 */\n      0x04ee2d6d415b85acef8100000000\n        /* \"@openzeppelin/contracts/utils/math/Math.sol\":12458:12463  value */\n      dup4\n        /* \"@openzeppelin/contracts/utils/math/Math.sol\":12458:12475  value >= 10 ** 32 */\n      lt\n        /* \"@openzeppelin/contracts/utils/math/Math.sol\":12454:12557  if (value >= 10 ** 32) {... */\n      tag_144\n      jumpi\n        /* \"@openzeppelin/contracts/utils/math/Math.sol\":12504:12512  10 ** 32 */\n      0x04ee2d6d415b85acef8100000000\n        /* \"@openzeppelin/contracts/utils/math/Math.sol\":12495:12512  value /= 10 ** 32 */\n      dup4\n      dup2\n      tag_145\n      jumpi\n      tag_146\n      tag_125\n      jump\t// in\n    tag_146:\n    tag_145:\n      div\n      swap3\n      pop\n        /* \"@openzeppelin/contracts/utils/math/Math.sol\":12540:12542  32 */\n      0x20\n        /* \"@openzeppelin/contracts/utils/math/Math.sol\":12530:12542  result += 32 */\n      dup2\n      add\n      swap1\n      pop\n        /* \"@openzeppelin/contracts/utils/math/Math.sol\":12454:12557  if (value >= 10 ** 32) {... */\n    tag_144:\n        /* \"@openzeppelin/contracts/utils/math/Math.sol\":12583:12591  10 ** 16 */\n      0x2386f26fc10000\n        /* \"@openzeppelin/contracts/utils/math/Math.sol\":12574:12579  value */\n      dup4\n        /* \"@openzeppelin/contracts/utils/math/Math.sol\":12574:12591  value >= 10 ** 16 */\n      lt\n        /* \"@openzeppelin/contracts/utils/math/Math.sol\":12570:12673  if (value >= 10 ** 16) {... */\n      tag_147\n      jumpi\n        /* \"@openzeppelin/contracts/utils/math/Math.sol\":12620:12628  10 ** 16 */\n      0x2386f26fc10000\n        /* \"@openzeppelin/contracts/utils/math/Math.sol\":12611:12628  value /= 10 ** 16 */\n      dup4\n      dup2\n      tag_148\n      jumpi\n      tag_149\n      tag_125\n      jump\t// in\n    tag_149:\n    tag_148:\n      div\n      swap3\n      pop\n        /* \"@openzeppelin/contracts/utils/math/Math.sol\":12656:12658  16 */\n      0x10\n        /* \"@openzeppelin/contracts/utils/math/Math.sol\":12646:12658  result += 16 */\n      dup2\n      add\n      swap1\n      pop\n        /* \"@openzeppelin/contracts/utils/math/Math.sol\":12570:12673  if (value >= 10 ** 16) {... */\n    tag_147:\n        /* \"@openzeppelin/contracts/utils/math/Math.sol\":12699:12706  10 ** 8 */\n      0x05f5e100\n        /* \"@openzeppelin/contracts/utils/math/Math.sol\":12690:12695  value */\n      dup4\n        /* \"@openzeppelin/contracts/utils/math/Math.sol\":12690:12706  value >= 10 ** 8 */\n      lt\n        /* \"@openzeppelin/contracts/utils/math/Math.sol\":12686:12786  if (value >= 10 ** 8) {... */\n      tag_150\n      jumpi\n        /* \"@openzeppelin/contracts/utils/math/Math.sol\":12735:12742  10 ** 8 */\n      0x05f5e100\n        /* \"@openzeppelin/contracts/utils/math/Math.sol\":12726:12742  value /= 10 ** 8 */\n      dup4\n      dup2\n      tag_151\n      jumpi\n      tag_152\n      tag_125\n      jump\t// in\n    tag_152:\n    tag_151:\n      div\n      swap3\n      pop\n        /* \"@openzeppelin/contracts/utils/math/Math.sol\":12770:12771  8 */\n      0x08\n        /* \"@openzeppelin/contracts/utils/math/Math.sol\":12760:12771  result += 8 */\n      dup2\n      add\n      swap1\n      pop\n        /* \"@openzeppelin/contracts/utils/math/Math.sol\":12686:12786  if (value >= 10 ** 8) {... */\n    tag_150:\n        /* \"@openzeppelin/contracts/utils/math/Math.sol\":12812:12819  10 ** 4 */\n      0x2710\n        /* \"@openzeppelin/contracts/utils/math/Math.sol\":12803:12808  value */\n      dup4\n        /* \"@openzeppelin/contracts/utils/math/Math.sol\":12803:12819  value >= 10 ** 4 */\n      lt\n        /* \"@openzeppelin/contracts/utils/math/Math.sol\":12799:12899  if (value >= 10 ** 4) {... */\n      tag_153\n      jumpi\n        /* \"@openzeppelin/contracts/utils/math/Math.sol\":12848:12855  10 ** 4 */\n      0x2710\n        /* \"@openzeppelin/contracts/utils/math/Math.sol\":12839:12855  value /= 10 ** 4 */\n      dup4\n      dup2\n      tag_154\n      jumpi\n      tag_155\n      tag_125\n      jump\t// in\n    tag_155:\n    tag_154:\n      div\n      swap3\n      pop\n        /* \"@openzeppelin/contracts/utils/math/Math.sol\":12883:12884  4 */\n      0x04\n        /* \"@openzeppelin/contracts/utils/math/Math.sol\":12873:12884  result += 4 */\n      dup2\n      add\n      swap1\n      pop\n        /* \"@openzeppelin/contracts/utils/math/Math.sol\":12799:12899  if (value >= 10 ** 4) {... */\n    tag_153:\n        /* \"@openzeppelin/contracts/utils/math/Math.sol\":12925:12932  10 ** 2 */\n      0x64\n        /* \"@openzeppelin/contracts/utils/math/Math.sol\":12916:12921  value */\n      dup4\n        /* \"@openzeppelin/contracts/utils/math/Math.sol\":12916:12932  value >= 10 ** 2 */\n      lt\n        /* \"@openzeppelin/contracts/utils/math/Math.sol\":12912:13012  if (value >= 10 ** 2) {... */\n      tag_156\n      jumpi\n        /* \"@openzeppelin/contracts/utils/math/Math.sol\":12961:12968  10 ** 2 */\n      0x64\n        /* \"@openzeppelin/contracts/utils/math/Math.sol\":12952:12968  value /= 10 ** 2 */\n      dup4\n      dup2\n      tag_157\n      jumpi\n      tag_158\n      tag_125\n      jump\t// in\n    tag_158:\n    tag_157:\n      div\n      swap3\n      pop\n        /* \"@openzeppelin/contracts/utils/math/Math.sol\":12996:12997  2 */\n      0x02\n        /* \"@openzeppelin/contracts/utils/math/Math.sol\":12986:12997  result += 2 */\n      dup2\n      add\n      swap1\n      pop\n        /* \"@openzeppelin/contracts/utils/math/Math.sol\":12912:13012  if (value >= 10 ** 2) {... */\n    tag_156:\n        /* \"@openzeppelin/contracts/utils/math/Math.sol\":13038:13045  10 ** 1 */\n      0x0a\n        /* \"@openzeppelin/contracts/utils/math/Math.sol\":13029:13034  value */\n      dup4\n        /* \"@openzeppelin/contracts/utils/math/Math.sol\":13029:13045  value >= 10 ** 1 */\n      lt\n        /* \"@openzeppelin/contracts/utils/math/Math.sol\":13025:13091  if (value >= 10 ** 1) {... */\n      tag_159\n      jumpi\n        /* \"@openzeppelin/contracts/utils/math/Math.sol\":13075:13076  1 */\n      0x01\n        /* \"@openzeppelin/contracts/utils/math/Math.sol\":13065:13076  result += 1 */\n      dup2\n      add\n      swap1\n      pop\n        /* \"@openzeppelin/contracts/utils/math/Math.sol\":13025:13091  if (value >= 10 ** 1) {... */\n    tag_159:\n        /* \"@openzeppelin/contracts/utils/math/Math.sol\":13117:13123  result */\n      dup1\n        /* \"@openzeppelin/contracts/utils/math/Math.sol\":13110:13123  return result */\n      swap2\n      pop\n      pop\n        /* \"@openzeppelin/contracts/utils/math/Math.sol\":12214:13130  function log10(uint256 value) internal pure returns (uint256) {... */\n      swap2\n      swap1\n      pop\n      jump\t// out\n        /* \"#utility.yul\":88:205   */\n    tag_161:\n        /* \"#utility.yul\":197:198   */\n      0x00\n        /* \"#utility.yul\":194:195   */\n      dup1\n        /* \"#utility.yul\":187:199   */\n      revert\n        /* \"#utility.yul\":211:328   */\n    tag_162:\n        /* \"#utility.yul\":320:321   */\n      0x00\n        /* \"#utility.yul\":317:318   */\n      dup1\n        /* \"#utility.yul\":310:322   */\n      revert\n        /* \"#utility.yul\":334:435   */\n    tag_163:\n        /* \"#utility.yul\":370:377   */\n      0x00\n        /* \"#utility.yul\":410:428   */\n      0xffffffffffffffff\n        /* \"#utility.yul\":403:408   */\n      dup3\n        /* \"#utility.yul\":399:429   */\n      and\n        /* \"#utility.yul\":388:429   */\n      swap1\n      pop\n        /* \"#utility.yul\":334:435   */\n      swap2\n      swap1\n      pop\n      jump\t// out\n        /* \"#utility.yul\":441:561   */\n    tag_164:\n        /* \"#utility.yul\":513:536   */\n      tag_202\n        /* \"#utility.yul\":530:535   */\n      dup2\n        /* \"#utility.yul\":513:536   */\n      tag_163\n      jump\t// in\n    tag_202:\n        /* \"#utility.yul\":506:511   */\n      dup2\n        /* \"#utility.yul\":503:537   */\n      eq\n        /* \"#utility.yul\":493:555   */\n      tag_203\n      jumpi\n        /* \"#utility.yul\":551:552   */\n      0x00\n        /* \"#utility.yul\":548:549   */\n      dup1\n        /* \"#utility.yul\":541:553   */\n      revert\n        /* \"#utility.yul\":493:555   */\n    tag_203:\n        /* \"#utility.yul\":441:561   */\n      pop\n      jump\t// out\n        /* \"#utility.yul\":567:704   */\n    tag_165:\n        /* \"#utility.yul\":612:617   */\n      0x00\n        /* \"#utility.yul\":650:656   */\n      dup2\n        /* \"#utility.yul\":637:657   */\n      calldataload\n        /* \"#utility.yul\":628:657   */\n      swap1\n      pop\n        /* \"#utility.yul\":666:698   */\n      tag_205\n        /* \"#utility.yul\":692:697   */\n      dup2\n        /* \"#utility.yul\":666:698   */\n      tag_164\n      jump\t// in\n    tag_205:\n        /* \"#utility.yul\":567:704   */\n      swap3\n      swap2\n      pop\n      pop\n      jump\t// out\n        /* \"#utility.yul\":710:803   */\n    tag_166:\n        /* \"#utility.yul\":746:753   */\n      0x00\n        /* \"#utility.yul\":786:796   */\n      0xffffffff\n        /* \"#utility.yul\":779:784   */\n      dup3\n        /* \"#utility.yul\":775:797   */\n      and\n        /* \"#utility.yul\":764:797   */\n      swap1\n      pop\n        /* \"#utility.yul\":710:803   */\n      swap2\n      swap1\n      pop\n      jump\t// out\n        /* \"#utility.yul\":809:929   */\n    tag_167:\n        /* \"#utility.yul\":881:904   */\n      tag_208\n        /* \"#utility.yul\":898:903   */\n      dup2\n        /* \"#utility.yul\":881:904   */\n      tag_166\n      jump\t// in\n    tag_208:\n        /* \"#utility.yul\":874:879   */\n      dup2\n        /* \"#utility.yul\":871:905   */\n      eq\n        /* \"#utility.yul\":861:923   */\n      tag_209\n      jumpi\n        /* \"#utility.yul\":919:920   */\n      0x00\n        /* \"#utility.yul\":916:917   */\n      dup1\n        /* \"#utility.yul\":909:921   */\n      revert\n        /* \"#utility.yul\":861:923   */\n    tag_209:\n        /* \"#utility.yul\":809:929   */\n      pop\n      jump\t// out\n        /* \"#utility.yul\":935:1072   */\n    tag_168:\n        /* \"#utility.yul\":980:985   */\n      0x00\n        /* \"#utility.yul\":1018:1024   */\n      dup2\n        /* \"#utility.yul\":1005:1025   */\n      calldataload\n        /* \"#utility.yul\":996:1025   */\n      swap1\n      pop\n        /* \"#utility.yul\":1034:1066   */\n      tag_211\n        /* \"#utility.yul\":1060:1065   */\n      dup2\n        /* \"#utility.yul\":1034:1066   */\n      tag_167\n      jump\t// in\n    tag_211:\n        /* \"#utility.yul\":935:1072   */\n      swap3\n      swap2\n      pop\n      pop\n      jump\t// out\n        /* \"#utility.yul\":1078:1691   */\n    tag_20:\n        /* \"#utility.yul\":1152:1158   */\n      0x00\n        /* \"#utility.yul\":1160:1166   */\n      dup1\n        /* \"#utility.yul\":1168:1174   */\n      0x00\n        /* \"#utility.yul\":1217:1219   */\n      0x60\n        /* \"#utility.yul\":1205:1214   */\n      dup5\n        /* \"#utility.yul\":1196:1203   */\n      dup7\n        /* \"#utility.yul\":1192:1215   */\n      sub\n        /* \"#utility.yul\":1188:1220   */\n      slt\n        /* \"#utility.yul\":1185:1304   */\n      iszero\n      tag_213\n      jumpi\n        /* \"#utility.yul\":1223:1302   */\n      tag_214\n      tag_161\n      jump\t// in\n    tag_214:\n        /* \"#utility.yul\":1185:1304   */\n    tag_213:\n        /* \"#utility.yul\":1343:1344   */\n      0x00\n        /* \"#utility.yul\":1368:1420   */\n      tag_215\n        /* \"#utility.yul\":1412:1419   */\n      dup7\n        /* \"#utility.yul\":1403:1409   */\n      dup3\n        /* \"#utility.yul\":1392:1401   */\n      dup8\n        /* \"#utility.yul\":1388:1410   */\n      add\n        /* \"#utility.yul\":1368:1420   */\n      tag_165\n      jump\t// in\n    tag_215:\n        /* \"#utility.yul\":1358:1420   */\n      swap4\n      pop\n        /* \"#utility.yul\":1314:1430   */\n      pop\n        /* \"#utility.yul\":1469:1471   */\n      0x20\n        /* \"#utility.yul\":1495:1547   */\n      tag_216\n        /* \"#utility.yul\":1539:1546   */\n      dup7\n        /* \"#utility.yul\":1530:1536   */\n      dup3\n        /* \"#utility.yul\":1519:1528   */\n      dup8\n        /* \"#utility.yul\":1515:1537   */\n      add\n        /* \"#utility.yul\":1495:1547   */\n      tag_165\n      jump\t// in\n    tag_216:\n        /* \"#utility.yul\":1485:1547   */\n      swap3\n      pop\n        /* \"#utility.yul\":1440:1557   */\n      pop\n        /* \"#utility.yul\":1596:1598   */\n      0x40\n        /* \"#utility.yul\":1622:1674   */\n      tag_217\n        /* \"#utility.yul\":1666:1673   */\n      dup7\n        /* \"#utility.yul\":1657:1663   */\n      dup3\n        /* \"#utility.yul\":1646:1655   */\n      dup8\n        /* \"#utility.yul\":1642:1664   */\n      add\n        /* \"#utility.yul\":1622:1674   */\n      tag_168\n      jump\t// in\n    tag_217:\n        /* \"#utility.yul\":1612:1674   */\n      swap2\n      pop\n        /* \"#utility.yul\":1567:1684   */\n      pop\n        /* \"#utility.yul\":1078:1691   */\n      swap3\n      pop\n      swap3\n      pop\n      swap3\n      jump\t// out\n        /* \"#utility.yul\":1697:1796   */\n    tag_169:\n        /* \"#utility.yul\":1749:1755   */\n      0x00\n        /* \"#utility.yul\":1783:1788   */\n      dup2\n        /* \"#utility.yul\":1777:1789   */\n      mload\n        /* \"#utility.yul\":1767:1789   */\n      swap1\n      pop\n        /* \"#utility.yul\":1697:1796   */\n      swap2\n      swap1\n      pop\n      jump\t// out\n        /* \"#utility.yul\":1802:1971   */\n    tag_170:\n        /* \"#utility.yul\":1886:1897   */\n      0x00\n        /* \"#utility.yul\":1920:1926   */\n      dup3\n        /* \"#utility.yul\":1915:1918   */\n      dup3\n        /* \"#utility.yul\":1908:1927   */\n      mstore\n        /* \"#utility.yul\":1960:1964   */\n      0x20\n        /* \"#utility.yul\":1955:1958   */\n      dup3\n        /* \"#utility.yul\":1951:1965   */\n      add\n        /* \"#utility.yul\":1936:1965   */\n      swap1\n      pop\n        /* \"#utility.yul\":1802:1971   */\n      swap3\n      swap2\n      pop\n      pop\n      jump\t// out\n        /* \"#utility.yul\":1977:2223   */\n    tag_171:\n        /* \"#utility.yul\":2058:2059   */\n      0x00\n        /* \"#utility.yul\":2068:2181   */\n    tag_221:\n        /* \"#utility.yul\":2082:2088   */\n      dup4\n        /* \"#utility.yul\":2079:2080   */\n      dup2\n        /* \"#utility.yul\":2076:2089   */\n      lt\n        /* \"#utility.yul\":2068:2181   */\n      iszero\n      tag_223\n      jumpi\n        /* \"#utility.yul\":2167:2168   */\n      dup1\n        /* \"#utility.yul\":2162:2165   */\n      dup3\n        /* \"#utility.yul\":2158:2169   */\n      add\n        /* \"#utility.yul\":2152:2170   */\n      mload\n        /* \"#utility.yul\":2148:2149   */\n      dup2\n        /* \"#utility.yul\":2143:2146   */\n      dup5\n        /* \"#utility.yul\":2139:2150   */\n      add\n        /* \"#utility.yul\":2132:2171   */\n      mstore\n        /* \"#utility.yul\":2104:2106   */\n      0x20\n        /* \"#utility.yul\":2101:2102   */\n      dup2\n        /* \"#utility.yul\":2097:2107   */\n      add\n        /* \"#utility.yul\":2092:2107   */\n      swap1\n      pop\n        /* \"#utility.yul\":2068:2181   */\n      jump(tag_221)\n    tag_223:\n        /* \"#utility.yul\":2215:2216   */\n      0x00\n        /* \"#utility.yul\":2206:2212   */\n      dup5\n        /* \"#utility.yul\":2201:2204   */\n      dup5\n        /* \"#utility.yul\":2197:2213   */\n      add\n        /* \"#utility.yul\":2190:2217   */\n      mstore\n        /* \"#utility.yul\":2039:2223   */\n      pop\n        /* \"#utility.yul\":1977:2223   */\n      pop\n      pop\n      pop\n      jump\t// out\n        /* \"#utility.yul\":2229:2331   */\n    tag_172:\n        /* \"#utility.yul\":2270:2276   */\n      0x00\n        /* \"#utility.yul\":2321:2323   */\n      0x1f\n        /* \"#utility.yul\":2317:2324   */\n      not\n        /* \"#utility.yul\":2312:2314   */\n      0x1f\n        /* \"#utility.yul\":2305:2310   */\n      dup4\n        /* \"#utility.yul\":2301:2315   */\n      add\n        /* \"#utility.yul\":2297:2325   */\n      and\n        /* \"#utility.yul\":2287:2325   */\n      swap1\n      pop\n        /* \"#utility.yul\":2229:2331   */\n      swap2\n      swap1\n      pop\n      jump\t// out\n        /* \"#utility.yul\":2337:2714   */\n    tag_173:\n        /* \"#utility.yul\":2425:2428   */\n      0x00\n        /* \"#utility.yul\":2453:2492   */\n      tag_226\n        /* \"#utility.yul\":2486:2491   */\n      dup3\n        /* \"#utility.yul\":2453:2492   */\n      tag_169\n      jump\t// in\n    tag_226:\n        /* \"#utility.yul\":2508:2579   */\n      tag_227\n        /* \"#utility.yul\":2572:2578   */\n      dup2\n        /* \"#utility.yul\":2567:2570   */\n      dup6\n        /* \"#utility.yul\":2508:2579   */\n      tag_170\n      jump\t// in\n    tag_227:\n        /* \"#utility.yul\":2501:2579   */\n      swap4\n      pop\n        /* \"#utility.yul\":2588:2653   */\n      tag_228\n        /* \"#utility.yul\":2646:2652   */\n      dup2\n        /* \"#utility.yul\":2641:2644   */\n      dup6\n        /* \"#utility.yul\":2634:2638   */\n      0x20\n        /* \"#utility.yul\":2627:2632   */\n      dup7\n        /* \"#utility.yul\":2623:2639   */\n      add\n        /* \"#utility.yul\":2588:2653   */\n      tag_171\n      jump\t// in\n    tag_228:\n        /* \"#utility.yul\":2678:2707   */\n      tag_229\n        /* \"#utility.yul\":2700:2706   */\n      dup2\n        /* \"#utility.yul\":2678:2707   */\n      tag_172\n      jump\t// in\n    tag_229:\n        /* \"#utility.yul\":2673:2676   */\n      dup5\n        /* \"#utility.yul\":2669:2708   */\n      add\n        /* \"#utility.yul\":2662:2708   */\n      swap2\n      pop\n        /* \"#utility.yul\":2429:2714   */\n      pop\n        /* \"#utility.yul\":2337:2714   */\n      swap3\n      swap2\n      pop\n      pop\n      jump\t// out\n        /* \"#utility.yul\":2720:3033   */\n    tag_26:\n        /* \"#utility.yul\":2833:2837   */\n      0x00\n        /* \"#utility.yul\":2871:2873   */\n      0x20\n        /* \"#utility.yul\":2860:2869   */\n      dup3\n        /* \"#utility.yul\":2856:2874   */\n      add\n        /* \"#utility.yul\":2848:2874   */\n      swap1\n      pop\n        /* \"#utility.yul\":2920:2929   */\n      dup2\n        /* \"#utility.yul\":2914:2918   */\n      dup2\n        /* \"#utility.yul\":2910:2930   */\n      sub\n        /* \"#utility.yul\":2906:2907   */\n      0x00\n        /* \"#utility.yul\":2895:2904   */\n      dup4\n        /* \"#utility.yul\":2891:2908   */\n      add\n        /* \"#utility.yul\":2884:2931   */\n      mstore\n        /* \"#utility.yul\":2948:3026   */\n      tag_231\n        /* \"#utility.yul\":3021:3025   */\n      dup2\n        /* \"#utility.yul\":3012:3018   */\n      dup5\n        /* \"#utility.yul\":2948:3026   */\n      tag_173\n      jump\t// in\n    tag_231:\n        /* \"#utility.yul\":2940:3026   */\n      swap1\n      pop\n        /* \"#utility.yul\":2720:3033   */\n      swap3\n      swap2\n      pop\n      pop\n      jump\t// out\n        /* \"#utility.yul\":3039:3156   */\n    tag_174:\n        /* \"#utility.yul\":3148:3149   */\n      0x00\n        /* \"#utility.yul\":3145:3146   */\n      dup1\n        /* \"#utility.yul\":3138:3150   */\n      revert\n        /* \"#utility.yul\":3162:3279   */\n    tag_175:\n        /* \"#utility.yul\":3271:3272   */\n      0x00\n        /* \"#utility.yul\":3268:3269   */\n      dup1\n        /* \"#utility.yul\":3261:3273   */\n      revert\n        /* \"#utility.yul\":3285:3402   */\n    tag_176:\n        /* \"#utility.yul\":3394:3395   */\n      0x00\n        /* \"#utility.yul\":3391:3392   */\n      dup1\n        /* \"#utility.yul\":3384:3396   */\n      revert\n        /* \"#utility.yul\":3436:4033   */\n    tag_177:\n        /* \"#utility.yul\":3538:3546   */\n      0x00\n        /* \"#utility.yul\":3548:3554   */\n      dup1\n        /* \"#utility.yul\":3598:3601   */\n      dup4\n        /* \"#utility.yul\":3591:3595   */\n      0x1f\n        /* \"#utility.yul\":3583:3589   */\n      dup5\n        /* \"#utility.yul\":3579:3596   */\n      add\n        /* \"#utility.yul\":3575:3602   */\n      slt\n        /* \"#utility.yul\":3565:3687   */\n      tag_236\n      jumpi\n        /* \"#utility.yul\":3606:3685   */\n      tag_237\n      tag_174\n      jump\t// in\n    tag_237:\n        /* \"#utility.yul\":3565:3687   */\n    tag_236:\n        /* \"#utility.yul\":3719:3725   */\n      dup3\n        /* \"#utility.yul\":3706:3726   */\n      calldataload\n        /* \"#utility.yul\":3696:3726   */\n      swap1\n      pop\n        /* \"#utility.yul\":3749:3767   */\n      0xffffffffffffffff\n        /* \"#utility.yul\":3741:3747   */\n      dup2\n        /* \"#utility.yul\":3738:3768   */\n      gt\n        /* \"#utility.yul\":3735:3852   */\n      iszero\n      tag_238\n      jumpi\n        /* \"#utility.yul\":3771:3850   */\n      tag_239\n      tag_175\n      jump\t// in\n    tag_239:\n        /* \"#utility.yul\":3735:3852   */\n    tag_238:\n        /* \"#utility.yul\":3885:3889   */\n      0x20\n        /* \"#utility.yul\":3877:3883   */\n      dup4\n        /* \"#utility.yul\":3873:3890   */\n      add\n        /* \"#utility.yul\":3861:3890   */\n      swap2\n      pop\n        /* \"#utility.yul\":3939:3942   */\n      dup4\n        /* \"#utility.yul\":3931:3935   */\n      0x20\n        /* \"#utility.yul\":3923:3929   */\n      dup3\n        /* \"#utility.yul\":3919:3936   */\n      mul\n        /* \"#utility.yul\":3909:3917   */\n      dup4\n        /* \"#utility.yul\":3905:3937   */\n      add\n        /* \"#utility.yul\":3902:3943   */\n      gt\n        /* \"#utility.yul\":3899:4027   */\n      iszero\n      tag_240\n      jumpi\n        /* \"#utility.yul\":3946:4025   */\n      tag_241\n      tag_176\n      jump\t// in\n    tag_241:\n        /* \"#utility.yul\":3899:4027   */\n    tag_240:\n        /* \"#utility.yul\":3436:4033   */\n      swap3\n      pop\n      swap3\n      swap1\n      pop\n      jump\t// out\n        /* \"#utility.yul\":4056:4624   */\n    tag_178:\n        /* \"#utility.yul\":4129:4137   */\n      0x00\n        /* \"#utility.yul\":4139:4145   */\n      dup1\n        /* \"#utility.yul\":4189:4192   */\n      dup4\n        /* \"#utility.yul\":4182:4186   */\n      0x1f\n        /* \"#utility.yul\":4174:4180   */\n      dup5\n        /* \"#utility.yul\":4170:4187   */\n      add\n        /* \"#utility.yul\":4166:4193   */\n      slt\n        /* \"#utility.yul\":4156:4278   */\n      tag_243\n      jumpi\n        /* \"#utility.yul\":4197:4276   */\n      tag_244\n      tag_174\n      jump\t// in\n    tag_244:\n        /* \"#utility.yul\":4156:4278   */\n    tag_243:\n        /* \"#utility.yul\":4310:4316   */\n      dup3\n        /* \"#utility.yul\":4297:4317   */\n      calldataload\n        /* \"#utility.yul\":4287:4317   */\n      swap1\n      pop\n        /* \"#utility.yul\":4340:4358   */\n      0xffffffffffffffff\n        /* \"#utility.yul\":4332:4338   */\n      dup2\n        /* \"#utility.yul\":4329:4359   */\n      gt\n        /* \"#utility.yul\":4326:4443   */\n      iszero\n      tag_245\n      jumpi\n        /* \"#utility.yul\":4362:4441   */\n      tag_246\n      tag_175\n      jump\t// in\n    tag_246:\n        /* \"#utility.yul\":4326:4443   */\n    tag_245:\n        /* \"#utility.yul\":4476:4480   */\n      0x20\n        /* \"#utility.yul\":4468:4474   */\n      dup4\n        /* \"#utility.yul\":4464:4481   */\n      add\n        /* \"#utility.yul\":4452:4481   */\n      swap2\n      pop\n        /* \"#utility.yul\":4530:4533   */\n      dup4\n        /* \"#utility.yul\":4522:4526   */\n      0x20\n        /* \"#utility.yul\":4514:4520   */\n      dup3\n        /* \"#utility.yul\":4510:4527   */\n      mul\n        /* \"#utility.yul\":4500:4508   */\n      dup4\n        /* \"#utility.yul\":4496:4528   */\n      add\n        /* \"#utility.yul\":4493:4534   */\n      gt\n        /* \"#utility.yul\":4490:4618   */\n      iszero\n      tag_247\n      jumpi\n        /* \"#utility.yul\":4537:4616   */\n      tag_248\n      tag_176\n      jump\t// in\n    tag_248:\n        /* \"#utility.yul\":4490:4618   */\n    tag_247:\n        /* \"#utility.yul\":4056:4624   */\n      swap3\n      pop\n      swap3\n      swap1\n      pop\n      jump\t// out\n        /* \"#utility.yul\":4630:5622   */\n    tag_29:\n        /* \"#utility.yul\":4781:4787   */\n      0x00\n        /* \"#utility.yul\":4789:4795   */\n      dup1\n        /* \"#utility.yul\":4797:4803   */\n      0x00\n        /* \"#utility.yul\":4805:4811   */\n      dup1\n        /* \"#utility.yul\":4854:4856   */\n      0x40\n        /* \"#utility.yul\":4842:4851   */\n      dup6\n        /* \"#utility.yul\":4833:4840   */\n      dup8\n        /* \"#utility.yul\":4829:4852   */\n      sub\n        /* \"#utility.yul\":4825:4857   */\n      slt\n        /* \"#utility.yul\":4822:4941   */\n      iszero\n      tag_250\n      jumpi\n        /* \"#utility.yul\":4860:4939   */\n      tag_251\n      tag_161\n      jump\t// in\n    tag_251:\n        /* \"#utility.yul\":4822:4941   */\n    tag_250:\n        /* \"#utility.yul\":5008:5009   */\n      0x00\n        /* \"#utility.yul\":4997:5006   */\n      dup6\n        /* \"#utility.yul\":4993:5010   */\n      add\n        /* \"#utility.yul\":4980:5011   */\n      calldataload\n        /* \"#utility.yul\":5038:5056   */\n      0xffffffffffffffff\n        /* \"#utility.yul\":5030:5036   */\n      dup2\n        /* \"#utility.yul\":5027:5057   */\n      gt\n        /* \"#utility.yul\":5024:5141   */\n      iszero\n      tag_252\n      jumpi\n        /* \"#utility.yul\":5060:5139   */\n      tag_253\n      tag_162\n      jump\t// in\n    tag_253:\n        /* \"#utility.yul\":5024:5141   */\n    tag_252:\n        /* \"#utility.yul\":5173:5282   */\n      tag_254\n        /* \"#utility.yul\":5274:5281   */\n      dup8\n        /* \"#utility.yul\":5265:5271   */\n      dup3\n        /* \"#utility.yul\":5254:5263   */\n      dup9\n        /* \"#utility.yul\":5250:5272   */\n      add\n        /* \"#utility.yul\":5173:5282   */\n      tag_177\n      jump\t// in\n    tag_254:\n        /* \"#utility.yul\":5155:5282   */\n      swap5\n      pop\n      swap5\n      pop\n        /* \"#utility.yul\":4951:5292   */\n      pop\n        /* \"#utility.yul\":5359:5361   */\n      0x20\n        /* \"#utility.yul\":5348:5357   */\n      dup6\n        /* \"#utility.yul\":5344:5362   */\n      add\n        /* \"#utility.yul\":5331:5363   */\n      calldataload\n        /* \"#utility.yul\":5390:5408   */\n      0xffffffffffffffff\n        /* \"#utility.yul\":5382:5388   */\n      dup2\n        /* \"#utility.yul\":5379:5409   */\n      gt\n        /* \"#utility.yul\":5376:5493   */\n      iszero\n      tag_255\n      jumpi\n        /* \"#utility.yul\":5412:5491   */\n      tag_256\n      tag_162\n      jump\t// in\n    tag_256:\n        /* \"#utility.yul\":5376:5493   */\n    tag_255:\n        /* \"#utility.yul\":5525:5605   */\n      tag_257\n        /* \"#utility.yul\":5597:5604   */\n      dup8\n        /* \"#utility.yul\":5588:5594   */\n      dup3\n        /* \"#utility.yul\":5577:5586   */\n      dup9\n        /* \"#utility.yul\":5573:5595   */\n      add\n        /* \"#utility.yul\":5525:5605   */\n      tag_178\n      jump\t// in\n    tag_257:\n        /* \"#utility.yul\":5507:5605   */\n      swap3\n      pop\n      swap3\n      pop\n        /* \"#utility.yul\":5302:5615   */\n      pop\n        /* \"#utility.yul\":4630:5622   */\n      swap3\n      swap6\n      swap2\n      swap5\n      pop\n      swap3\n      pop\n      jump\t// out\n        /* \"#utility.yul\":5628:5718   */\n    tag_179:\n        /* \"#utility.yul\":5662:5669   */\n      0x00\n        /* \"#utility.yul\":5705:5710   */\n      dup2\n        /* \"#utility.yul\":5698:5711   */\n      iszero\n        /* \"#utility.yul\":5691:5712   */\n      iszero\n        /* \"#utility.yul\":5680:5712   */\n      swap1\n      pop\n        /* \"#utility.yul\":5628:5718   */\n      swap2\n      swap1\n      pop\n      jump\t// out\n        /* \"#utility.yul\":5724:5833   */\n    tag_180:\n        /* \"#utility.yul\":5805:5826   */\n      tag_260\n        /* \"#utility.yul\":5820:5825   */\n      dup2\n        /* \"#utility.yul\":5805:5826   */\n      tag_179\n      jump\t// in\n    tag_260:\n        /* \"#utility.yul\":5800:5803   */\n      dup3\n        /* \"#utility.yul\":5793:5827   */\n      mstore\n        /* \"#utility.yul\":5724:5833   */\n      pop\n      pop\n      jump\t// out\n        /* \"#utility.yul\":5839:6049   */\n    tag_32:\n        /* \"#utility.yul\":5926:5930   */\n      0x00\n        /* \"#utility.yul\":5964:5966   */\n      0x20\n        /* \"#utility.yul\":5953:5962   */\n      dup3\n        /* \"#utility.yul\":5949:5967   */\n      add\n        /* \"#utility.yul\":5941:5967   */\n      swap1\n      pop\n        /* \"#utility.yul\":5977:6042   */\n      tag_262\n        /* \"#utility.yul\":6039:6040   */\n      0x00\n        /* \"#utility.yul\":6028:6037   */\n      dup4\n        /* \"#utility.yul\":6024:6041   */\n      add\n        /* \"#utility.yul\":6015:6021   */\n      dup5\n        /* \"#utility.yul\":5977:6042   */\n      tag_180\n      jump\t// in\n    tag_262:\n        /* \"#utility.yul\":5839:6049   */\n      swap3\n      swap2\n      pop\n      pop\n      jump\t// out\n        /* \"#utility.yul\":6055:6172   */\n    tag_181:\n        /* \"#utility.yul\":6164:6165   */\n      0x00\n        /* \"#utility.yul\":6161:6162   */\n      dup1\n        /* \"#utility.yul\":6154:6166   */\n      revert\n        /* \"#utility.yul\":6204:6438   */\n    tag_182:\n        /* \"#utility.yul\":6279:6284   */\n      0x00\n        /* \"#utility.yul\":6320:6323   */\n      0x0140\n        /* \"#utility.yul\":6311:6317   */\n      dup3\n        /* \"#utility.yul\":6306:6309   */\n      dup5\n        /* \"#utility.yul\":6302:6318   */\n      sub\n        /* \"#utility.yul\":6298:6324   */\n      slt\n        /* \"#utility.yul\":6295:6408   */\n      iszero\n      tag_265\n      jumpi\n        /* \"#utility.yul\":6327:6406   */\n      tag_266\n      tag_181\n      jump\t// in\n    tag_266:\n        /* \"#utility.yul\":6295:6408   */\n    tag_265:\n        /* \"#utility.yul\":6426:6432   */\n      dup2\n        /* \"#utility.yul\":6417:6432   */\n      swap1\n      pop\n        /* \"#utility.yul\":6204:6438   */\n      swap3\n      swap2\n      pop\n      pop\n      jump\t// out\n        /* \"#utility.yul\":6444:6991   */\n    tag_42:\n        /* \"#utility.yul\":6532:6538   */\n      0x00\n        /* \"#utility.yul\":6581:6583   */\n      0x20\n        /* \"#utility.yul\":6569:6578   */\n      dup3\n        /* \"#utility.yul\":6560:6567   */\n      dup5\n        /* \"#utility.yul\":6556:6579   */\n      sub\n        /* \"#utility.yul\":6552:6584   */\n      slt\n        /* \"#utility.yul\":6549:6668   */\n      iszero\n      tag_268\n      jumpi\n        /* \"#utility.yul\":6587:6666   */\n      tag_269\n      tag_161\n      jump\t// in\n    tag_269:\n        /* \"#utility.yul\":6549:6668   */\n    tag_268:\n        /* \"#utility.yul\":6735:6736   */\n      0x00\n        /* \"#utility.yul\":6724:6733   */\n      dup3\n        /* \"#utility.yul\":6720:6737   */\n      add\n        /* \"#utility.yul\":6707:6738   */\n      calldataload\n        /* \"#utility.yul\":6765:6783   */\n      0xffffffffffffffff\n        /* \"#utility.yul\":6757:6763   */\n      dup2\n        /* \"#utility.yul\":6754:6784   */\n      gt\n        /* \"#utility.yul\":6751:6868   */\n      iszero\n      tag_270\n      jumpi\n        /* \"#utility.yul\":6787:6866   */\n      tag_271\n      tag_162\n      jump\t// in\n    tag_271:\n        /* \"#utility.yul\":6751:6868   */\n    tag_270:\n        /* \"#utility.yul\":6892:6974   */\n      tag_272\n        /* \"#utility.yul\":6966:6973   */\n      dup5\n        /* \"#utility.yul\":6957:6963   */\n      dup3\n        /* \"#utility.yul\":6946:6955   */\n      dup6\n        /* \"#utility.yul\":6942:6964   */\n      add\n        /* \"#utility.yul\":6892:6974   */\n      tag_182\n      jump\t// in\n    tag_272:\n        /* \"#utility.yul\":6882:6974   */\n      swap2\n      pop\n        /* \"#utility.yul\":6678:6984   */\n      pop\n        /* \"#utility.yul\":6444:6991   */\n      swap3\n      swap2\n      pop\n      pop\n      jump\t// out\n        /* \"#utility.yul\":6997:7074   */\n    tag_183:\n        /* \"#utility.yul\":7034:7041   */\n      0x00\n        /* \"#utility.yul\":7063:7068   */\n      dup2\n        /* \"#utility.yul\":7052:7068   */\n      swap1\n      pop\n        /* \"#utility.yul\":6997:7074   */\n      swap2\n      swap1\n      pop\n      jump\t// out\n        /* \"#utility.yul\":7080:7202   */\n    tag_184:\n        /* \"#utility.yul\":7153:7177   */\n      tag_275\n        /* \"#utility.yul\":7171:7176   */\n      dup2\n        /* \"#utility.yul\":7153:7177   */\n      tag_183\n      jump\t// in\n    tag_275:\n        /* \"#utility.yul\":7146:7151   */\n      dup2\n        /* \"#utility.yul\":7143:7178   */\n      eq\n        /* \"#utility.yul\":7133:7196   */\n      tag_276\n      jumpi\n        /* \"#utility.yul\":7192:7193   */\n      0x00\n        /* \"#utility.yul\":7189:7190   */\n      dup1\n        /* \"#utility.yul\":7182:7194   */\n      revert\n        /* \"#utility.yul\":7133:7196   */\n    tag_276:\n        /* \"#utility.yul\":7080:7202   */\n      pop\n      jump\t// out\n        /* \"#utility.yul\":7208:7347   */\n    tag_185:\n        /* \"#utility.yul\":7254:7259   */\n      0x00\n        /* \"#utility.yul\":7292:7298   */\n      dup2\n        /* \"#utility.yul\":7279:7299   */\n      calldataload\n        /* \"#utility.yul\":7270:7299   */\n      swap1\n      pop\n        /* \"#utility.yul\":7308:7341   */\n      tag_278\n        /* \"#utility.yul\":7335:7340   */\n      dup2\n        /* \"#utility.yul\":7308:7341   */\n      tag_184\n      jump\t// in\n    tag_278:\n        /* \"#utility.yul\":7208:7347   */\n      swap3\n      swap2\n      pop\n      pop\n      jump\t// out\n        /* \"#utility.yul\":7353:7682   */\n    tag_48:\n        /* \"#utility.yul\":7412:7418   */\n      0x00\n        /* \"#utility.yul\":7461:7463   */\n      0x20\n        /* \"#utility.yul\":7449:7458   */\n      dup3\n        /* \"#utility.yul\":7440:7447   */\n      dup5\n        /* \"#utility.yul\":7436:7459   */\n      sub\n        /* \"#utility.yul\":7432:7464   */\n      slt\n        /* \"#utility.yul\":7429:7548   */\n      iszero\n      tag_280\n      jumpi\n        /* \"#utility.yul\":7467:7546   */\n      tag_281\n      tag_161\n      jump\t// in\n    tag_281:\n        /* \"#utility.yul\":7429:7548   */\n    tag_280:\n        /* \"#utility.yul\":7587:7588   */\n      0x00\n        /* \"#utility.yul\":7612:7665   */\n      tag_282\n        /* \"#utility.yul\":7657:7664   */\n      dup5\n        /* \"#utility.yul\":7648:7654   */\n      dup3\n        /* \"#utility.yul\":7637:7646   */\n      dup6\n        /* \"#utility.yul\":7633:7655   */\n      add\n        /* \"#utility.yul\":7612:7665   */\n      tag_185\n      jump\t// in\n    tag_282:\n        /* \"#utility.yul\":7602:7665   */\n      swap2\n      pop\n        /* \"#utility.yul\":7558:7675   */\n      pop\n        /* \"#utility.yul\":7353:7682   */\n      swap3\n      swap2\n      pop\n      pop\n      jump\t// out\n        /* \"#utility.yul\":7688:7803   */\n    tag_186:\n        /* \"#utility.yul\":7773:7796   */\n      tag_284\n        /* \"#utility.yul\":7790:7795   */\n      dup2\n        /* \"#utility.yul\":7773:7796   */\n      tag_163\n      jump\t// in\n    tag_284:\n        /* \"#utility.yul\":7768:7771   */\n      dup3\n        /* \"#utility.yul\":7761:7797   */\n      mstore\n        /* \"#utility.yul\":7688:7803   */\n      pop\n      pop\n      jump\t// out\n        /* \"#utility.yul\":7809:7924   */\n    tag_187:\n        /* \"#utility.yul\":7894:7917   */\n      tag_286\n        /* \"#utility.yul\":7911:7916   */\n      dup2\n        /* \"#utility.yul\":7894:7917   */\n      tag_166\n      jump\t// in\n    tag_286:\n        /* \"#utility.yul\":7889:7892   */\n      dup3\n        /* \"#utility.yul\":7882:7918   */\n      mstore\n        /* \"#utility.yul\":7809:7924   */\n      pop\n      pop\n      jump\t// out\n        /* \"#utility.yul\":7930:8360   */\n    tag_51:\n        /* \"#utility.yul\":8073:8077   */\n      0x00\n        /* \"#utility.yul\":8111:8113   */\n      0x60\n        /* \"#utility.yul\":8100:8109   */\n      dup3\n        /* \"#utility.yul\":8096:8114   */\n      add\n        /* \"#utility.yul\":8088:8114   */\n      swap1\n      pop\n        /* \"#utility.yul\":8124:8193   */\n      tag_288\n        /* \"#utility.yul\":8190:8191   */\n      0x00\n        /* \"#utility.yul\":8179:8188   */\n      dup4\n        /* \"#utility.yul\":8175:8192   */\n      add\n        /* \"#utility.yul\":8166:8172   */\n      dup7\n        /* \"#utility.yul\":8124:8193   */\n      tag_186\n      jump\t// in\n    tag_288:\n        /* \"#utility.yul\":8203:8273   */\n      tag_289\n        /* \"#utility.yul\":8269:8271   */\n      0x20\n        /* \"#utility.yul\":8258:8267   */\n      dup4\n        /* \"#utility.yul\":8254:8272   */\n      add\n        /* \"#utility.yul\":8245:8251   */\n      dup6\n        /* \"#utility.yul\":8203:8273   */\n      tag_186\n      jump\t// in\n    tag_289:\n        /* \"#utility.yul\":8283:8353   */\n      tag_290\n        /* \"#utility.yul\":8349:8351   */\n      0x40\n        /* \"#utility.yul\":8338:8347   */\n      dup4\n        /* \"#utility.yul\":8334:8352   */\n      add\n        /* \"#utility.yul\":8325:8331   */\n      dup5\n        /* \"#utility.yul\":8283:8353   */\n      tag_187\n      jump\t// in\n    tag_290:\n        /* \"#utility.yul\":7930:8360   */\n      swap5\n      swap4\n      pop\n      pop\n      pop\n      pop\n      jump\t// out\n        /* \"#utility.yul\":8366:8514   */\n    tag_188:\n        /* \"#utility.yul\":8468:8479   */\n      0x00\n        /* \"#utility.yul\":8505:8508   */\n      dup2\n        /* \"#utility.yul\":8490:8508   */\n      swap1\n      pop\n        /* \"#utility.yul\":8366:8514   */\n      swap3\n      swap2\n      pop\n      pop\n      jump\t// out\n        /* \"#utility.yul\":8520:8910   */\n    tag_189:\n        /* \"#utility.yul\":8626:8629   */\n      0x00\n        /* \"#utility.yul\":8654:8693   */\n      tag_293\n        /* \"#utility.yul\":8687:8692   */\n      dup3\n        /* \"#utility.yul\":8654:8693   */\n      tag_169\n      jump\t// in\n    tag_293:\n        /* \"#utility.yul\":8709:8798   */\n      tag_294\n        /* \"#utility.yul\":8791:8797   */\n      dup2\n        /* \"#utility.yul\":8786:8789   */\n      dup6\n        /* \"#utility.yul\":8709:8798   */\n      tag_188\n      jump\t// in\n    tag_294:\n        /* \"#utility.yul\":8702:8798   */\n      swap4\n      pop\n        /* \"#utility.yul\":8807:8872   */\n      tag_295\n        /* \"#utility.yul\":8865:8871   */\n      dup2\n        /* \"#utility.yul\":8860:8863   */\n      dup6\n        /* \"#utility.yul\":8853:8857   */\n      0x20\n        /* \"#utility.yul\":8846:8851   */\n      dup7\n        /* \"#utility.yul\":8842:8858   */\n      add\n        /* \"#utility.yul\":8807:8872   */\n      tag_171\n      jump\t// in\n    tag_295:\n        /* \"#utility.yul\":8897:8903   */\n      dup1\n        /* \"#utility.yul\":8892:8895   */\n      dup5\n        /* \"#utility.yul\":8888:8904   */\n      add\n        /* \"#utility.yul\":8881:8904   */\n      swap2\n      pop\n        /* \"#utility.yul\":8630:8910   */\n      pop\n        /* \"#utility.yul\":8520:8910   */\n      swap3\n      swap2\n      pop\n      pop\n      jump\t// out\n        /* \"#utility.yul\":8916:9067   */\n    tag_190:\n        /* \"#utility.yul\":9056:9059   */\n      0x2e00000000000000000000000000000000000000000000000000000000000000\n        /* \"#utility.yul\":9052:9053   */\n      0x00\n        /* \"#utility.yul\":9044:9050   */\n      dup3\n        /* \"#utility.yul\":9040:9054   */\n      add\n        /* \"#utility.yul\":9033:9060   */\n      mstore\n        /* \"#utility.yul\":8916:9067   */\n      pop\n      jump\t// out\n        /* \"#utility.yul\":9073:9473   */\n    tag_191:\n        /* \"#utility.yul\":9233:9236   */\n      0x00\n        /* \"#utility.yul\":9254:9338   */\n      tag_298\n        /* \"#utility.yul\":9336:9337   */\n      0x01\n        /* \"#utility.yul\":9331:9334   */\n      dup4\n        /* \"#utility.yul\":9254:9338   */\n      tag_188\n      jump\t// in\n    tag_298:\n        /* \"#utility.yul\":9247:9338   */\n      swap2\n      pop\n        /* \"#utility.yul\":9347:9440   */\n      tag_299\n        /* \"#utility.yul\":9436:9439   */\n      dup3\n        /* \"#utility.yul\":9347:9440   */\n      tag_190\n      jump\t// in\n    tag_299:\n        /* \"#utility.yul\":9465:9466   */\n      0x01\n        /* \"#utility.yul\":9460:9463   */\n      dup3\n        /* \"#utility.yul\":9456:9467   */\n      add\n        /* \"#utility.yul\":9449:9467   */\n      swap1\n      pop\n        /* \"#utility.yul\":9073:9473   */\n      swap2\n      swap1\n      pop\n      jump\t// out\n        /* \"#utility.yul\":9479:10606   */\n    tag_65:\n        /* \"#utility.yul\":9909:9912   */\n      0x00\n        /* \"#utility.yul\":9931:10026   */\n      tag_301\n        /* \"#utility.yul\":10022:10025   */\n      dup3\n        /* \"#utility.yul\":10013:10019   */\n      dup7\n        /* \"#utility.yul\":9931:10026   */\n      tag_189\n      jump\t// in\n    tag_301:\n        /* \"#utility.yul\":9924:10026   */\n      swap2\n      pop\n        /* \"#utility.yul\":10043:10191   */\n      tag_302\n        /* \"#utility.yul\":10187:10190   */\n      dup3\n        /* \"#utility.yul\":10043:10191   */\n      tag_191\n      jump\t// in\n    tag_302:\n        /* \"#utility.yul\":10036:10191   */\n      swap2\n      pop\n        /* \"#utility.yul\":10208:10303   */\n      tag_303\n        /* \"#utility.yul\":10299:10302   */\n      dup3\n        /* \"#utility.yul\":10290:10296   */\n      dup6\n        /* \"#utility.yul\":10208:10303   */\n      tag_189\n      jump\t// in\n    tag_303:\n        /* \"#utility.yul\":10201:10303   */\n      swap2\n      pop\n        /* \"#utility.yul\":10320:10468   */\n      tag_304\n        /* \"#utility.yul\":10464:10467   */\n      dup3\n        /* \"#utility.yul\":10320:10468   */\n      tag_191\n      jump\t// in\n    tag_304:\n        /* \"#utility.yul\":10313:10468   */\n      swap2\n      pop\n        /* \"#utility.yul\":10485:10580   */\n      tag_305\n        /* \"#utility.yul\":10576:10579   */\n      dup3\n        /* \"#utility.yul\":10567:10573   */\n      dup5\n        /* \"#utility.yul\":10485:10580   */\n      tag_189\n      jump\t// in\n    tag_305:\n        /* \"#utility.yul\":10478:10580   */\n      swap2\n      pop\n        /* \"#utility.yul\":10597:10600   */\n      dup2\n        /* \"#utility.yul\":10590:10600   */\n      swap1\n      pop\n        /* \"#utility.yul\":9479:10606   */\n      swap5\n      swap4\n      pop\n      pop\n      pop\n      pop\n      jump\t// out\n        /* \"#utility.yul\":10612:10792   */\n    tag_76:\n        /* \"#utility.yul\":10660:10737   */\n      0x4e487b7100000000000000000000000000000000000000000000000000000000\n        /* \"#utility.yul\":10657:10658   */\n      0x00\n        /* \"#utility.yul\":10650:10738   */\n      mstore\n        /* \"#utility.yul\":10757:10761   */\n      0x32\n        /* \"#utility.yul\":10754:10755   */\n      0x04\n        /* \"#utility.yul\":10747:10762   */\n      mstore\n        /* \"#utility.yul\":10781:10785   */\n      0x24\n        /* \"#utility.yul\":10778:10779   */\n      0x00\n        /* \"#utility.yul\":10771:10786   */\n      revert\n        /* \"#utility.yul\":10798:10915   */\n    tag_192:\n        /* \"#utility.yul\":10907:10908   */\n      0x00\n        /* \"#utility.yul\":10904:10905   */\n      dup1\n        /* \"#utility.yul\":10897:10909   */\n      revert\n        /* \"#utility.yul\":10921:11038   */\n    tag_193:\n        /* \"#utility.yul\":11030:11031   */\n      0x00\n        /* \"#utility.yul\":11027:11028   */\n      dup1\n        /* \"#utility.yul\":11020:11032   */\n      revert\n        /* \"#utility.yul\":11044:11161   */\n    tag_194:\n        /* \"#utility.yul\":11153:11154   */\n      0x00\n        /* \"#utility.yul\":11150:11151   */\n      dup1\n        /* \"#utility.yul\":11143:11155   */\n      revert\n        /* \"#utility.yul\":11167:11564   */\n    tag_82:\n        /* \"#utility.yul\":11262:11266   */\n      0x00\n        /* \"#utility.yul\":11316:11327   */\n      dup3\n        /* \"#utility.yul\":11303:11328   */\n      calldataload\n        /* \"#utility.yul\":11418:11419   */\n      0x01\n        /* \"#utility.yul\":11410:11416   */\n      0x0140\n        /* \"#utility.yul\":11406:11420   */\n      sub\n        /* \"#utility.yul\":11395:11403   */\n      dup4\n        /* \"#utility.yul\":11379:11393   */\n      calldatasize\n        /* \"#utility.yul\":11375:11404   */\n      sub\n        /* \"#utility.yul\":11371:11421   */\n      sub\n        /* \"#utility.yul\":11351:11369   */\n      dup2\n        /* \"#utility.yul\":11347:11422   */\n      slt\n        /* \"#utility.yul\":11337:11507   */\n      tag_311\n      jumpi\n        /* \"#utility.yul\":11426:11505   */\n      tag_312\n      tag_192\n      jump\t// in\n    tag_312:\n        /* \"#utility.yul\":11337:11507   */\n    tag_311:\n        /* \"#utility.yul\":11538:11556   */\n      dup1\n        /* \"#utility.yul\":11528:11536   */\n      dup4\n        /* \"#utility.yul\":11524:11557   */\n      add\n        /* \"#utility.yul\":11516:11557   */\n      swap2\n      pop\n        /* \"#utility.yul\":11267:11564   */\n      pop\n        /* \"#utility.yul\":11167:11564   */\n      swap3\n      swap2\n      pop\n      pop\n      jump\t// out\n        /* \"#utility.yul\":11570:11750   */\n    tag_119:\n        /* \"#utility.yul\":11618:11695   */\n      0x4e487b7100000000000000000000000000000000000000000000000000000000\n        /* \"#utility.yul\":11615:11616   */\n      0x00\n        /* \"#utility.yul\":11608:11696   */\n      mstore\n        /* \"#utility.yul\":11715:11719   */\n      0x41\n        /* \"#utility.yul\":11712:11713   */\n      0x04\n        /* \"#utility.yul\":11705:11720   */\n      mstore\n        /* \"#utility.yul\":11739:11743   */\n      0x24\n        /* \"#utility.yul\":11736:11737   */\n      0x00\n        /* \"#utility.yul\":11729:11744   */\n      revert\n        /* \"#utility.yul\":11756:11936   */\n    tag_125:\n        /* \"#utility.yul\":11804:11881   */\n      0x4e487b7100000000000000000000000000000000000000000000000000000000\n        /* \"#utility.yul\":11801:11802   */\n      0x00\n        /* \"#utility.yul\":11794:11882   */\n      mstore\n        /* \"#utility.yul\":11901:11905   */\n      0x12\n        /* \"#utility.yul\":11898:11899   */\n      0x04\n        /* \"#utility.yul\":11891:11906   */\n      mstore\n        /* \"#utility.yul\":11925:11929   */\n      0x24\n        /* \"#utility.yul\":11922:11923   */\n      0x00\n        /* \"#utility.yul\":11915:11930   */\n      revert\n        /* \"#utility.yul\":11942:12666   */\n    tag_131:\n        /* \"#utility.yul\":12019:12023   */\n      0x00\n        /* \"#utility.yul\":12025:12031   */\n      dup1\n        /* \"#utility.yul\":12081:12092   */\n      dup4\n        /* \"#utility.yul\":12068:12093   */\n      calldataload\n        /* \"#utility.yul\":12181:12182   */\n      0x01\n        /* \"#utility.yul\":12175:12179   */\n      0x20\n        /* \"#utility.yul\":12171:12183   */\n      sub\n        /* \"#utility.yul\":12160:12168   */\n      dup5\n        /* \"#utility.yul\":12144:12158   */\n      calldatasize\n        /* \"#utility.yul\":12140:12169   */\n      sub\n        /* \"#utility.yul\":12136:12184   */\n      sub\n        /* \"#utility.yul\":12116:12134   */\n      dup2\n        /* \"#utility.yul\":12112:12185   */\n      slt\n        /* \"#utility.yul\":12102:12270   */\n      tag_316\n      jumpi\n        /* \"#utility.yul\":12189:12268   */\n      tag_317\n      tag_192\n      jump\t// in\n    tag_317:\n        /* \"#utility.yul\":12102:12270   */\n    tag_316:\n        /* \"#utility.yul\":12301:12319   */\n      dup1\n        /* \"#utility.yul\":12291:12299   */\n      dup5\n        /* \"#utility.yul\":12287:12320   */\n      add\n        /* \"#utility.yul\":12279:12320   */\n      swap3\n      pop\n        /* \"#utility.yul\":12353:12357   */\n      dup3\n        /* \"#utility.yul\":12340:12358   */\n      calldataload\n        /* \"#utility.yul\":12330:12358   */\n      swap2\n      pop\n        /* \"#utility.yul\":12381:12399   */\n      0xffffffffffffffff\n        /* \"#utility.yul\":12373:12379   */\n      dup3\n        /* \"#utility.yul\":12370:12400   */\n      gt\n        /* \"#utility.yul\":12367:12484   */\n      iszero\n      tag_318\n      jumpi\n        /* \"#utility.yul\":12403:12482   */\n      tag_319\n      tag_193\n      jump\t// in\n    tag_319:\n        /* \"#utility.yul\":12367:12484   */\n    tag_318:\n        /* \"#utility.yul\":12511:12513   */\n      0x20\n        /* \"#utility.yul\":12505:12509   */\n      dup4\n        /* \"#utility.yul\":12501:12514   */\n      add\n        /* \"#utility.yul\":12493:12514   */\n      swap3\n      pop\n        /* \"#utility.yul\":12568:12572   */\n      0x01\n        /* \"#utility.yul\":12560:12566   */\n      dup3\n        /* \"#utility.yul\":12556:12573   */\n      mul\n        /* \"#utility.yul\":12540:12554   */\n      calldatasize\n        /* \"#utility.yul\":12536:12574   */\n      sub\n        /* \"#utility.yul\":12530:12534   */\n      dup4\n        /* \"#utility.yul\":12526:12575   */\n      sgt\n        /* \"#utility.yul\":12523:12659   */\n      iszero\n      tag_320\n      jumpi\n        /* \"#utility.yul\":12578:12657   */\n      tag_321\n      tag_194\n      jump\t// in\n    tag_321:\n        /* \"#utility.yul\":12523:12659   */\n    tag_320:\n        /* \"#utility.yul\":12032:12666   */\n      pop\n        /* \"#utility.yul\":11942:12666   */\n      swap3\n      pop\n      swap3\n      swap1\n      pop\n      jump\t// out\n        /* \"#utility.yul\":12672:12790   */\n    tag_195:\n        /* \"#utility.yul\":12759:12783   */\n      tag_323\n        /* \"#utility.yul\":12777:12782   */\n      dup2\n        /* \"#utility.yul\":12759:12783   */\n      tag_183\n      jump\t// in\n    tag_323:\n        /* \"#utility.yul\":12754:12757   */\n      dup3\n        /* \"#utility.yul\":12747:12784   */\n      mstore\n        /* \"#utility.yul\":12672:12790   */\n      pop\n      pop\n      jump\t// out\n        /* \"#utility.yul\":12796:13018   */\n    tag_134:\n        /* \"#utility.yul\":12889:12893   */\n      0x00\n        /* \"#utility.yul\":12927:12929   */\n      0x20\n        /* \"#utility.yul\":12916:12925   */\n      dup3\n        /* \"#utility.yul\":12912:12930   */\n      add\n        /* \"#utility.yul\":12904:12930   */\n      swap1\n      pop\n        /* \"#utility.yul\":12940:13011   */\n      tag_325\n        /* \"#utility.yul\":13008:13009   */\n      0x00\n        /* \"#utility.yul\":12997:13006   */\n      dup4\n        /* \"#utility.yul\":12993:13010   */\n      add\n        /* \"#utility.yul\":12984:12990   */\n      dup5\n        /* \"#utility.yul\":12940:13011   */\n      tag_195\n      jump\t// in\n    tag_325:\n        /* \"#utility.yul\":12796:13018   */\n      swap3\n      swap2\n      pop\n      pop\n      jump\t// out\n\n    auxdata: 0xa264697066735822122085d0fb62f7d296513031cc86c0356aa2d109d41579522093be9729b4a327048164736f6c63430008180033\n}\n",
				"bytecode": {
					"linkReferences": {},
					"object": "61010060405234801562000011575f80fd5b506040516200121a3803806200121a833981810160405281019062000037919062000172565b80600160035f82608081815250508160a081815250508060c081815250505050505f73ffffffffffffffffffffffffffffffffffffffff168173ffffffffffffffffffffffffffffffffffffffff1603620000be576040517f83780ffe00000000000000000000000000000000000000000000000000000000815260040160405180910390fd5b8073ffffffffffffffffffffffffffffffffffffffff1660e08173ffffffffffffffffffffffffffffffffffffffff16815250505050620001a2565b5f80fd5b5f73ffffffffffffffffffffffffffffffffffffffff82169050919050565b5f6200012982620000fe565b9050919050565b5f6200013c826200011d565b9050919050565b6200014e8162000130565b811462000159575f80fd5b50565b5f815190506200016c8162000143565b92915050565b5f602082840312156200018a5762000189620000fa565b5b5f62000199848285016200015c565b91505092915050565b60805160a05160c05160e051611044620001d65f395f61075b01525f61038201525f61035901525f61033001526110445ff3fe60806040526004361061007e575f3560e01c8063ce46e0461161004d578063ce46e04614610179578063e49617e1146101a3578063e4dad1c4146101d3578063e60c350514610211576100c3565b80632a60bdd9146100c757806354fd4d50146100ef57806388e5b2d91461011957806391db0b7e14610149576100c3565b366100c35761008b610241565b6100c1576040517f1574f9f300000000000000000000000000000000000000000000000000000000815260040160405180910390fd5b005b5f80fd5b3480156100d2575f80fd5b506100ed60048036038101906100e89190610a83565b610245565b005b3480156100fa575f80fd5b50610103610329565b6040516101109190610b5d565b60405180910390f35b610133600480360381019061012e9190610c33565b6103cc565b6040516101409190610ccb565b60405180910390f35b610163600480360381019061015e9190610c33565b6104e1565b6040516101709190610ccb565b60405180910390f35b348015610184575f80fd5b5061018d610241565b60405161019a9190610ccb565b60405180910390f35b6101bd60048036038101906101b89190610d07565b6105f6565b6040516101ca9190610ccb565b60405180910390f35b3480156101de575f80fd5b506101f960048036038101906101f49190610d81565b610610565b60405161020893929190610dca565b60405180910390f35b61022b60048036038101906102269190610d07565b610675565b6040516102389190610ccb565b60405180910390f35b5f90565b5f60405180606001604052808567ffffffffffffffff1681526020018467ffffffffffffffff1681526020018363ffffffff1681525090505f81908060018154018082558091505060019003905f5260205f20015f909190919091505f820151815f015f6101000a81548167ffffffffffffffff021916908367ffffffffffffffff1602179055506020820151815f0160086101000a81548167ffffffffffffffff021916908367ffffffffffffffff1602179055506040820151815f0160106101000a81548163ffffffff021916908363ffffffff160217905550505050505050565b60606103547f000000000000000000000000000000000000000000000000000000000000000061068f565b61037d7f000000000000000000000000000000000000000000000000000000000000000061068f565b6103a67f000000000000000000000000000000000000000000000000000000000000000061068f565b6040516020016103b893929190610e83565b604051602081830303815290604052905090565b5f6103d5610759565b5f858590509050838390508114610418576040517f947d5a8400000000000000000000000000000000000000000000000000000000815260040160405180910390fd5b5f3490505f5b828110156104d1575f86868381811061043a57610439610ec9565b5b9050602002013590508281111561047d576040517f1101129400000000000000000000000000000000000000000000000000000000815260040160405180910390fd5b6104ab89898481811061049357610492610ec9565b5b90506020028101906104a59190610f02565b826107e0565b6104bb575f9450505050506104d9565b8083039250506104ca81610844565b905061041e565b506001925050505b949350505050565b5f6104ea610759565b5f85859050905083839050811461052d576040517f947d5a8400000000000000000000000000000000000000000000000000000000815260040160405180910390fd5b5f3490505f5b828110156105e6575f86868381811061054f5761054e610ec9565b5b90506020020135905082811115610592576040517f1101129400000000000000000000000000000000000000000000000000000000815260040160405180910390fd5b6105c08989848181106105a8576105a7610ec9565b5b90506020028101906105ba9190610f02565b82610850565b6105d0575f9450505050506105ee565b8083039250506105df81610844565b9050610533565b506001925050505b949350505050565b5f6105ff610759565b61060982346107e0565b9050919050565b5f818154811061061e575f80fd5b905f5260205f20015f91509050805f015f9054906101000a900467ffffffffffffffff1690805f0160089054906101000a900467ffffffffffffffff1690805f0160109054906101000a900463ffffffff16905083565b5f61067e610759565b6106888234610850565b9050919050565b60605f600161069d846108b4565b0190505f8167ffffffffffffffff8111156106bb576106ba610f2a565b5b6040519080825280601f01601f1916602001820160405280156106ed5781602001600182028036833780820191505090505b5090505f82602001820190505b60011561074e578080600190039150507f3031323334353637383961626364656600000000000000000000000000000000600a86061a8153600a858161074357610742610f57565b5b0494505f85036106fa575b819350505050919050565b7f000000000000000000000000000000000000000000000000000000000000000073ffffffffffffffffffffffffffffffffffffffff163373ffffffffffffffffffffffffffffffffffffffff16146107de576040517f4ca8886700000000000000000000000000000000000000000000000000000000815260040160405180910390fd5b565b5f80838061012001906107f39190610f84565b8101906108009190610d81565b90507f61e27b0bfd8e18e6b92ec32ce1c28bb698d27bfe93e84c7e94d4db0a3135c760816040516108319190610ff5565b60405180910390a1600191505092915050565b5f600182019050919050565b5f80838061012001906108639190610f84565b8101906108709190610d81565b90507f406d6b56e7b0f2ea2d981907ff7082b8d06a927181752ebcc6c4a7853b06a892816040516108a19190610ff5565b60405180910390a1600191505092915050565b5f805f90507a184f03e93ff9f4daa797ed6e38ed64bf6a1f0100000000000000008310610910577a184f03e93ff9f4daa797ed6e38ed64bf6a1f010000000000000000838161090657610905610f57565b5b0492506040810190505b6d04ee2d6d415b85acef8100000000831061094d576d04ee2d6d415b85acef8100000000838161094357610942610f57565b5b0492506020810190505b662386f26fc10000831061097c57662386f26fc10000838161097257610971610f57565b5b0492506010810190505b6305f5e10083106109a5576305f5e100838161099b5761099a610f57565b5b0492506008810190505b61271083106109ca5761271083816109c0576109bf610f57565b5b0492506004810190505b606483106109ed57606483816109e3576109e2610f57565b5b0492506002810190505b600a83106109fc576001810190505b80915050919050565b5f80fd5b5f80fd5b5f67ffffffffffffffff82169050919050565b610a2981610a0d565b8114610a33575f80fd5b50565b5f81359050610a4481610a20565b92915050565b5f63ffffffff82169050919050565b610a6281610a4a565b8114610a6c575f80fd5b50565b5f81359050610a7d81610a59565b92915050565b5f805f60608486031215610a9a57610a99610a05565b5b5f610aa786828701610a36565b9350506020610ab886828701610a36565b9250506040610ac986828701610a6f565b9150509250925092565b5f81519050919050565b5f82825260208201905092915050565b5f5b83811015610b0a578082015181840152602081019050610aef565b5f8484015250505050565b5f601f19601f8301169050919050565b5f610b2f82610ad3565b610b398185610add565b9350610b49818560208601610aed565b610b5281610b15565b840191505092915050565b5f6020820190508181035f830152610b758184610b25565b905092915050565b5f80fd5b5f80fd5b5f80fd5b5f8083601f840112610b9e57610b9d610b7d565b5b8235905067ffffffffffffffff811115610bbb57610bba610b81565b5b602083019150836020820283011115610bd757610bd6610b85565b5b9250929050565b5f8083601f840112610bf357610bf2610b7d565b5b8235905067ffffffffffffffff811115610c1057610c0f610b81565b5b602083019150836020820283011115610c2c57610c2b610b85565b5b9250929050565b5f805f8060408587031215610c4b57610c4a610a05565b5b5f85013567ffffffffffffffff811115610c6857610c67610a09565b5b610c7487828801610b89565b9450945050602085013567ffffffffffffffff811115610c9757610c96610a09565b5b610ca387828801610bde565b925092505092959194509250565b5f8115159050919050565b610cc581610cb1565b82525050565b5f602082019050610cde5f830184610cbc565b92915050565b5f80fd5b5f6101408284031215610cfe57610cfd610ce4565b5b81905092915050565b5f60208284031215610d1c57610d1b610a05565b5b5f82013567ffffffffffffffff811115610d3957610d38610a09565b5b610d4584828501610ce8565b91505092915050565b5f819050919050565b610d6081610d4e565b8114610d6a575f80fd5b50565b5f81359050610d7b81610d57565b92915050565b5f60208284031215610d9657610d95610a05565b5b5f610da384828501610d6d565b91505092915050565b610db581610a0d565b82525050565b610dc481610a4a565b82525050565b5f606082019050610ddd5f830186610dac565b610dea6020830185610dac565b610df76040830184610dbb565b949350505050565b5f81905092915050565b5f610e1382610ad3565b610e1d8185610dff565b9350610e2d818560208601610aed565b80840191505092915050565b7f2e000000000000000000000000000000000000000000000000000000000000005f82015250565b5f610e6d600183610dff565b9150610e7882610e39565b600182019050919050565b5f610e8e8286610e09565b9150610e9982610e61565b9150610ea58285610e09565b9150610eb082610e61565b9150610ebc8284610e09565b9150819050949350505050565b7f4e487b71000000000000000000000000000000000000000000000000000000005f52603260045260245ffd5b5f80fd5b5f80fd5b5f80fd5b5f8235600161014003833603038112610f1e57610f1d610ef6565b5b80830191505092915050565b7f4e487b71000000000000000000000000000000000000000000000000000000005f52604160045260245ffd5b7f4e487b71000000000000000000000000000000000000000000000000000000005f52601260045260245ffd5b5f8083356001602003843603038112610fa057610f9f610ef6565b5b80840192508235915067ffffffffffffffff821115610fc257610fc1610efa565b5b602083019250600182023603831315610fde57610fdd610efe565b5b509250929050565b610fef81610d4e565b82525050565b5f6020820190506110085f830184610fe6565b9291505056fea264697066735822122085d0fb62f7d296513031cc86c0356aa2d109d41579522093be9729b4a327048164736f6c63430008180033",
					"opcodes": "PUSH2 0x100 PUSH1 0x40 MSTORE CALLVALUE DUP1 ISZERO PUSH3 0x11 JUMPI PUSH0 DUP1 REVERT JUMPDEST POP PUSH1 0x40 MLOAD PUSH3 0x121A CODESIZE SUB DUP1 PUSH3 0x121A DUP4 CODECOPY DUP2 DUP2 ADD PUSH1 0x40 MSTORE DUP2 ADD SWAP1 PUSH3 0x37 SWAP2 SWAP1 PUSH3 0x172 JUMP JUMPDEST DUP1 PUSH1 0x1 PUSH1 0x3 PUSH0 DUP3 PUSH1 0x80 DUP2 DUP2 MSTORE POP POP DUP2 PUSH1 0xA0 DUP2 DUP2 MSTORE POP POP DUP1 PUSH1 0xC0 DUP2 DUP2 MSTORE POP POP POP POP POP PUSH0 PUSH20 0xFFFFFFFFFFFFFFFFFFFFFFFFFFFFFFFFFFFFFFFF AND DUP2 PUSH20 0xFFFFFFFFFFFFFFFFFFFFFFFFFFFFFFFFFFFFFFFF AND SUB PUSH3 0xBE JUMPI PUSH1 0x40 MLOAD PUSH32 0x83780FFE00000000000000000000000000000000000000000000000000000000 DUP2 MSTORE PUSH1 0x4 ADD PUSH1 0x40 MLOAD DUP1 SWAP2 SUB SWAP1 REVERT JUMPDEST DUP1 PUSH20 0xFFFFFFFFFFFFFFFFFFFFFFFFFFFFFFFFFFFFFFFF AND PUSH1 0xE0 DUP2 PUSH20 0xFFFFFFFFFFFFFFFFFFFFFFFFFFFFFFFFFFFFFFFF AND DUP2 MSTORE POP POP POP POP PUSH3 0x1A2 JUMP JUMPDEST PUSH0 DUP1 REVERT JUMPDEST PUSH0 PUSH20 0xFFFFFFFFFFFFFFFFFFFFFFFFFFFFFFFFFFFFFFFF DUP3 AND SWAP1 POP SWAP2 SWAP1 POP JUMP JUMPDEST PUSH0 PUSH3 0x129 DUP3 PUSH3 0xFE JUMP JUMPDEST SWAP1 POP SWAP2 SWAP1 POP JUMP JUMPDEST PUSH0 PUSH3 0x13C DUP3 PUSH3 0x11D JUMP JUMPDEST SWAP1 POP SWAP2 SWAP1 POP JUMP JUMPDEST PUSH3 0x14E DUP2 PUSH3 0x130 JUMP JUMPDEST DUP2 EQ PUSH3 0x159 JUMPI PUSH0 DUP1 REVERT JUMPDEST POP JUMP JUMPDEST PUSH0 DUP2 MLOAD SWAP1 POP PUSH3 0x16C DUP2 PUSH3 0x143 JUMP JUMPDEST SWAP3 SWAP2 POP POP JUMP JUMPDEST PUSH0 PUSH1 0x20 DUP3 DUP5 SUB SLT ISZERO PUSH3 0x18A JUMPI PUSH3 0x189 PUSH3 0xFA JUMP JUMPDEST JUMPDEST PUSH0 PUSH3 0x199 DUP5 DUP3 DUP6 ADD PUSH3 0x15C JUMP JUMPDEST SWAP2 POP POP SWAP3 SWAP2 POP POP JUMP JUMPDEST PUSH1 0x80 MLOAD PUSH1 0xA0 MLOAD PUSH1 0xC0 MLOAD PUSH1 0xE0 MLOAD PUSH2 0x1044 PUSH3 0x1D6 PUSH0 CODECOPY PUSH0 PUSH2 0x75B ADD MSTORE PUSH0 PUSH2 0x382 ADD MSTORE PUSH0 PUSH2 0x359 ADD MSTORE PUSH0 PUSH2 0x330 ADD MSTORE PUSH2 0x1044 PUSH0 RETURN INVALID PUSH1 0x80 PUSH1 0x40 MSTORE PUSH1 0x4 CALLDATASIZE LT PUSH2 0x7E JUMPI PUSH0 CALLDATALOAD PUSH1 0xE0 SHR DUP1 PUSH4 0xCE46E046 GT PUSH2 0x4D JUMPI DUP1 PUSH4 0xCE46E046 EQ PUSH2 0x179 JUMPI DUP1 PUSH4 0xE49617E1 EQ PUSH2 0x1A3 JUMPI DUP1 PUSH4 0xE4DAD1C4 EQ PUSH2 0x1D3 JUMPI DUP1 PUSH4 0xE60C3505 EQ PUSH2 0x211 JUMPI PUSH2 0xC3 JUMP JUMPDEST DUP1 PUSH4 0x2A60BDD9 EQ PUSH2 0xC7 JUMPI DUP1 PUSH4 0x54FD4D50 EQ PUSH2 0xEF JUMPI DUP1 PUSH4 0x88E5B2D9 EQ PUSH2 0x119 JUMPI DUP1 PUSH4 0x91DB0B7E EQ PUSH2 0x149 JUMPI PUSH2 0xC3 JUMP JUMPDEST CALLDATASIZE PUSH2 0xC3 JUMPI PUSH2 0x8B PUSH2 0x241 JUMP JUMPDEST PUSH2 0xC1 JUMPI PUSH1 0x40 MLOAD PUSH32 0x1574F9F300000000000000000000000000000000000000000000000000000000 DUP2 MSTORE PUSH1 0x4 ADD PUSH1 0x40 MLOAD DUP1 SWAP2 SUB SWAP1 REVERT JUMPDEST STOP JUMPDEST PUSH0 DUP1 REVERT JUMPDEST CALLVALUE DUP1 ISZERO PUSH2 0xD2 JUMPI PUSH0 DUP1 REVERT JUMPDEST POP PUSH2 0xED PUSH1 0x4 DUP1 CALLDATASIZE SUB DUP2 ADD SWAP1 PUSH2 0xE8 SWAP2 SWAP1 PUSH2 0xA83 JUMP JUMPDEST PUSH2 0x245 JUMP JUMPDEST STOP JUMPDEST CALLVALUE DUP1 ISZERO PUSH2 0xFA JUMPI PUSH0 DUP1 REVERT JUMPDEST POP PUSH2 0x103 PUSH2 0x329 JUMP JUMPDEST PUSH1 0x40 MLOAD PUSH2 0x110 SWAP2 SWAP1 PUSH2 0xB5D JUMP JUMPDEST PUSH1 0x40 MLOAD DUP1 SWAP2 SUB SWAP1 RETURN JUMPDEST PUSH2 0x133 PUSH1 0x4 DUP1 CALLDATASIZE SUB DUP2 ADD SWAP1 PUSH2 0x12E SWAP2 SWAP1 PUSH2 0xC33 JUMP JUMPDEST PUSH2 0x3CC JUMP JUMPDEST PUSH1 0x40 MLOAD PUSH2 0x140 SWAP2 SWAP1 PUSH2 0xCCB JUMP JUMPDEST PUSH1 0x40 MLOAD DUP1 SWAP2 SUB SWAP1 RETURN JUMPDEST PUSH2 0x163 PUSH1 0x4 DUP1 CALLDATASIZE SUB DUP2 ADD SWAP1 PUSH2 0x15E SWAP2 SWAP1 PUSH2 0xC33 JUMP JUMPDEST PUSH2 0x4E1 JUMP JUMPDEST PUSH1 0x40 MLOAD PUSH2 0x170 SWAP2 SWAP1 PUSH2 0xCCB JUMP JUMPDEST PUSH1 0x40 MLOAD DUP1 SWAP2 SUB SWAP1 RETURN JUMPDEST CALLVALUE DUP1 ISZERO PUSH2 0x184 JUMPI PUSH0 DUP1 REVERT JUMPDEST POP PUSH2 0x18D PUSH2 0x241 JUMP JUMPDEST PUSH1 0x40 MLOAD PUSH2 0x19A SWAP2 SWAP1 PUSH2 0xCCB JUMP JUMPDEST PUSH1 0x40 MLOAD DUP1 SWAP2 SUB SWAP1 RETURN JUMPDEST PUSH2 0x1BD PUSH1 0x4 DUP1 CALLDATASIZE SUB DUP2 ADD SWAP1 PUSH2 0x1B8 SWAP2 SWAP1 PUSH2 0xD07 JUMP JUMPDEST PUSH2 0x5F6 JUMP JUMPDEST PUSH1 0x40 MLOAD PUSH2 0x1CA SWAP2 SWAP1 PUSH2 0xCCB JUMP JUMPDEST PUSH1 0x40 MLOAD DUP1 SWAP2 SUB SWAP1 RETURN JUMPDEST CALLVALUE DUP1 ISZERO PUSH2 0x1DE JUMPI PUSH0 DUP1 REVERT JUMPDEST POP PUSH2 0x1F9 PUSH1 0x4 DUP1 CALLDATASIZE SUB DUP2 ADD SWAP1 PUSH2 0x1F4 SWAP2 SWAP1 PUSH2 0xD81 JUMP JUMPDEST PUSH2 0x610 JUMP JUMPDEST PUSH1 0x40 MLOAD PUSH2 0x208 SWAP4 SWAP3 SWAP2 SWAP1 PUSH2 0xDCA JUMP JUMPDEST PUSH1 0x40 MLOAD DUP1 SWAP2 SUB SWAP1 RETURN JUMPDEST PUSH2 0x22B PUSH1 0x4 DUP1 CALLDATASIZE SUB DUP2 ADD SWAP1 PUSH2 0x226 SWAP2 SWAP1 PUSH2 0xD07 JUMP JUMPDEST PUSH2 0x675 JUMP JUMPDEST PUSH1 0x40 MLOAD PUSH2 0x238 SWAP2 SWAP1 PUSH2 0xCCB JUMP JUMPDEST PUSH1 0x40 MLOAD DUP1 SWAP2 SUB SWAP1 RETURN JUMPDEST PUSH0 SWAP1 JUMP JUMPDEST PUSH0 PUSH1 0x40 MLOAD DUP1 PUSH1 0x60 ADD PUSH1 0x40 MSTORE DUP1 DUP6 PUSH8 0xFFFFFFFFFFFFFFFF AND DUP2 MSTORE PUSH1 0x20 ADD DUP5 PUSH8 0xFFFFFFFFFFFFFFFF AND DUP2 MSTORE PUSH1 0x20 ADD DUP4 PUSH4 0xFFFFFFFF AND DUP2 MSTORE POP SWAP1 POP PUSH0 DUP2 SWAP1 DUP1 PUSH1 0x1 DUP2 SLOAD ADD DUP1 DUP3 SSTORE DUP1 SWAP2 POP POP PUSH1 0x1 SWAP1 SUB SWAP1 PUSH0 MSTORE PUSH1 0x20 PUSH0 KECCAK256 ADD PUSH0 SWAP1 SWAP2 SWAP1 SWAP2 SWAP1 SWAP2 POP PUSH0 DUP3 ADD MLOAD DUP2 PUSH0 ADD PUSH0 PUSH2 0x100 EXP DUP2 SLOAD DUP2 PUSH8 0xFFFFFFFFFFFFFFFF MUL NOT AND SWAP1 DUP4 PUSH8 0xFFFFFFFFFFFFFFFF AND MUL OR SWAP1 SSTORE POP PUSH1 0x20 DUP3 ADD MLOAD DUP2 PUSH0 ADD PUSH1 0x8 PUSH2 0x100 EXP DUP2 SLOAD DUP2 PUSH8 0xFFFFFFFFFFFFFFFF MUL NOT AND SWAP1 DUP4 PUSH8 0xFFFFFFFFFFFFFFFF AND MUL OR SWAP1 SSTORE POP PUSH1 0x40 DUP3 ADD MLOAD DUP2 PUSH0 ADD PUSH1 0x10 PUSH2 0x100 EXP DUP2 SLOAD DUP2 PUSH4 0xFFFFFFFF MUL NOT AND SWAP1 DUP4 PUSH4 0xFFFFFFFF AND MUL OR SWAP1 SSTORE POP POP POP POP POP POP POP JUMP JUMPDEST PUSH1 0x60 PUSH2 0x354 PUSH32 0x0 PUSH2 0x68F JUMP JUMPDEST PUSH2 0x37D PUSH32 0x0 PUSH2 0x68F JUMP JUMPDEST PUSH2 0x3A6 PUSH32 0x0 PUSH2 0x68F JUMP JUMPDEST PUSH1 0x40 MLOAD PUSH1 0x20 ADD PUSH2 0x3B8 SWAP4 SWAP3 SWAP2 SWAP1 PUSH2 0xE83 JUMP JUMPDEST PUSH1 0x40 MLOAD PUSH1 0x20 DUP2 DUP4 SUB SUB DUP2 MSTORE SWAP1 PUSH1 0x40 MSTORE SWAP1 POP SWAP1 JUMP JUMPDEST PUSH0 PUSH2 0x3D5 PUSH2 0x759 JUMP JUMPDEST PUSH0 DUP6 DUP6 SWAP1 POP SWAP1 POP DUP4 DUP4 SWAP1 POP DUP2 EQ PUSH2 0x418 JUMPI PUSH1 0x40 MLOAD PUSH32 0x947D5A8400000000000000000000000000000000000000000000000000000000 DUP2 MSTORE PUSH1 0x4 ADD PUSH1 0x40 MLOAD DUP1 SWAP2 SUB SWAP1 REVERT JUMPDEST PUSH0 CALLVALUE SWAP1 POP PUSH0 JUMPDEST DUP3 DUP2 LT ISZERO PUSH2 0x4D1 JUMPI PUSH0 DUP7 DUP7 DUP4 DUP2 DUP2 LT PUSH2 0x43A JUMPI PUSH2 0x439 PUSH2 0xEC9 JUMP JUMPDEST JUMPDEST SWAP1 POP PUSH1 0x20 MUL ADD CALLDATALOAD SWAP1 POP DUP3 DUP2 GT ISZERO PUSH2 0x47D JUMPI PUSH1 0x40 MLOAD PUSH32 0x1101129400000000000000000000000000000000000000000000000000000000 DUP2 MSTORE PUSH1 0x4 ADD PUSH1 0x40 MLOAD DUP1 SWAP2 SUB SWAP1 REVERT JUMPDEST PUSH2 0x4AB DUP10 DUP10 DUP5 DUP2 DUP2 LT PUSH2 0x493 JUMPI PUSH2 0x492 PUSH2 0xEC9 JUMP JUMPDEST JUMPDEST SWAP1 POP PUSH1 0x20 MUL DUP2 ADD SWAP1 PUSH2 0x4A5 SWAP2 SWAP1 PUSH2 0xF02 JUMP JUMPDEST DUP3 PUSH2 0x7E0 JUMP JUMPDEST PUSH2 0x4BB JUMPI PUSH0 SWAP5 POP POP POP POP POP PUSH2 0x4D9 JUMP JUMPDEST DUP1 DUP4 SUB SWAP3 POP POP PUSH2 0x4CA DUP2 PUSH2 0x844 JUMP JUMPDEST SWAP1 POP PUSH2 0x41E JUMP JUMPDEST POP PUSH1 0x1 SWAP3 POP POP POP JUMPDEST SWAP5 SWAP4 POP POP POP POP JUMP JUMPDEST PUSH0 PUSH2 0x4EA PUSH2 0x759 JUMP JUMPDEST PUSH0 DUP6 DUP6 SWAP1 POP SWAP1 POP DUP4 DUP4 SWAP1 POP DUP2 EQ PUSH2 0x52D JUMPI PUSH1 0x40 MLOAD PUSH32 0x947D5A8400000000000000000000000000000000000000000000000000000000 DUP2 MSTORE PUSH1 0x4 ADD PUSH1 0x40 MLOAD DUP1 SWAP2 SUB SWAP1 REVERT JUMPDEST PUSH0 CALLVALUE SWAP1 POP PUSH0 JUMPDEST DUP3 DUP2 LT ISZERO PUSH2 0x5E6 JUMPI PUSH0 DUP7 DUP7 DUP4 DUP2 DUP2 LT PUSH2 0x54F JUMPI PUSH2 0x54E PUSH2 0xEC9 JUMP JUMPDEST JUMPDEST SWAP1 POP PUSH1 0x20 MUL ADD CALLDATALOAD SWAP1 POP DUP3 DUP2 GT ISZERO PUSH2 0x592 JUMPI PUSH1 0x40 MLOAD PUSH32 0x1101129400000000000000000000000000000000000000000000000000000000 DUP2 MSTORE PUSH1 0x4 ADD PUSH1 0x40 MLOAD DUP1 SWAP2 SUB SWAP1 REVERT JUMPDEST PUSH2 0x5C0 DUP10 DUP10 DUP5 DUP2 DUP2 LT PUSH2 0x5A8 JUMPI PUSH2 0x5A7 PUSH2 0xEC9 JUMP JUMPDEST JUMPDEST SWAP1 POP PUSH1 0x20 MUL DUP2 ADD SWAP1 PUSH2 0x5BA SWAP2 SWAP1 PUSH2 0xF02 JUMP JUMPDEST DUP3 PUSH2 0x850 JUMP JUMPDEST PUSH2 0x5D0 JUMPI PUSH0 SWAP5 POP POP POP POP POP PUSH2 0x5EE JUMP JUMPDEST DUP1 DUP4 SUB SWAP3 POP POP PUSH2 0x5DF DUP2 PUSH2 0x844 JUMP JUMPDEST SWAP1 POP PUSH2 0x533 JUMP JUMPDEST POP PUSH1 0x1 SWAP3 POP POP POP JUMPDEST SWAP5 SWAP4 POP POP POP POP JUMP JUMPDEST PUSH0 PUSH2 0x5FF PUSH2 0x759 JUMP JUMPDEST PUSH2 0x609 DUP3 CALLVALUE PUSH2 0x7E0 JUMP JUMPDEST SWAP1 POP SWAP2 SWAP1 POP JUMP JUMPDEST PUSH0 DUP2 DUP2 SLOAD DUP2 LT PUSH2 0x61E JUMPI PUSH0 DUP1 REVERT JUMPDEST SWAP1 PUSH0 MSTORE PUSH1 0x20 PUSH0 KECCAK256 ADD PUSH0 SWAP2 POP SWAP1 POP DUP1 PUSH0 ADD PUSH0 SWAP1 SLOAD SWAP1 PUSH2 0x100 EXP SWAP1 DIV PUSH8 0xFFFFFFFFFFFFFFFF AND SWAP1 DUP1 PUSH0 ADD PUSH1 0x8 SWAP1 SLOAD SWAP1 PUSH2 0x100 EXP SWAP1 DIV PUSH8 0xFFFFFFFFFFFFFFFF AND SWAP1 DUP1 PUSH0 ADD PUSH1 0x10 SWAP1 SLOAD SWAP1 PUSH2 0x100 EXP SWAP1 DIV PUSH4 0xFFFFFFFF AND SWAP1 POP DUP4 JUMP JUMPDEST PUSH0 PUSH2 0x67E PUSH2 0x759 JUMP JUMPDEST PUSH2 0x688 DUP3 CALLVALUE PUSH2 0x850 JUMP JUMPDEST SWAP1 POP SWAP2 SWAP1 POP JUMP JUMPDEST PUSH1 0x60 PUSH0 PUSH1 0x1 PUSH2 0x69D DUP5 PUSH2 0x8B4 JUMP JUMPDEST ADD SWAP1 POP PUSH0 DUP2 PUSH8 0xFFFFFFFFFFFFFFFF DUP2 GT ISZERO PUSH2 0x6BB JUMPI PUSH2 0x6BA PUSH2 0xF2A JUMP JUMPDEST JUMPDEST PUSH1 0x40 MLOAD SWAP1 DUP1 DUP3 MSTORE DUP1 PUSH1 0x1F ADD PUSH1 0x1F NOT AND PUSH1 0x20 ADD DUP3 ADD PUSH1 0x40 MSTORE DUP1 ISZERO PUSH2 0x6ED JUMPI DUP2 PUSH1 0x20 ADD PUSH1 0x1 DUP3 MUL DUP1 CALLDATASIZE DUP4 CALLDATACOPY DUP1 DUP3 ADD SWAP2 POP POP SWAP1 POP JUMPDEST POP SWAP1 POP PUSH0 DUP3 PUSH1 0x20 ADD DUP3 ADD SWAP1 POP JUMPDEST PUSH1 0x1 ISZERO PUSH2 0x74E JUMPI DUP1 DUP1 PUSH1 0x1 SWAP1 SUB SWAP2 POP POP PUSH32 0x3031323334353637383961626364656600000000000000000000000000000000 PUSH1 0xA DUP7 MOD BYTE DUP2 MSTORE8 PUSH1 0xA DUP6 DUP2 PUSH2 0x743 JUMPI PUSH2 0x742 PUSH2 0xF57 JUMP JUMPDEST JUMPDEST DIV SWAP5 POP PUSH0 DUP6 SUB PUSH2 0x6FA JUMPI JUMPDEST DUP2 SWAP4 POP POP POP POP SWAP2 SWAP1 POP JUMP JUMPDEST PUSH32 0x0 PUSH20 0xFFFFFFFFFFFFFFFFFFFFFFFFFFFFFFFFFFFFFFFF AND CALLER PUSH20 0xFFFFFFFFFFFFFFFFFFFFFFFFFFFFFFFFFFFFFFFF AND EQ PUSH2 0x7DE JUMPI PUSH1 0x40 MLOAD PUSH32 0x4CA8886700000000000000000000000000000000000000000000000000000000 DUP2 MSTORE PUSH1 0x4 ADD PUSH1 0x40 MLOAD DUP1 SWAP2 SUB SWAP1 REVERT JUMPDEST JUMP JUMPDEST PUSH0 DUP1 DUP4 DUP1 PUSH2 0x120 ADD SWAP1 PUSH2 0x7F3 SWAP2 SWAP1 PUSH2 0xF84 JUMP JUMPDEST DUP2 ADD SWAP1 PUSH2 0x800 SWAP2 SWAP1 PUSH2 0xD81 JUMP JUMPDEST SWAP1 POP PUSH32 0x61E27B0BFD8E18E6B92EC32CE1C28BB698D27BFE93E84C7E94D4DB0A3135C760 DUP2 PUSH1 0x40 MLOAD PUSH2 0x831 SWAP2 SWAP1 PUSH2 0xFF5 JUMP JUMPDEST PUSH1 0x40 MLOAD DUP1 SWAP2 SUB SWAP1 LOG1 PUSH1 0x1 SWAP2 POP POP SWAP3 SWAP2 POP POP JUMP JUMPDEST PUSH0 PUSH1 0x1 DUP3 ADD SWAP1 POP SWAP2 SWAP1 POP JUMP JUMPDEST PUSH0 DUP1 DUP4 DUP1 PUSH2 0x120 ADD SWAP1 PUSH2 0x863 SWAP2 SWAP1 PUSH2 0xF84 JUMP JUMPDEST DUP2 ADD SWAP1 PUSH2 0x870 SWAP2 SWAP1 PUSH2 0xD81 JUMP JUMPDEST SWAP1 POP PUSH32 0x406D6B56E7B0F2EA2D981907FF7082B8D06A927181752EBCC6C4A7853B06A892 DUP2 PUSH1 0x40 MLOAD PUSH2 0x8A1 SWAP2 SWAP1 PUSH2 0xFF5 JUMP JUMPDEST PUSH1 0x40 MLOAD DUP1 SWAP2 SUB SWAP1 LOG1 PUSH1 0x1 SWAP2 POP POP SWAP3 SWAP2 POP POP JUMP JUMPDEST PUSH0 DUP1 PUSH0 SWAP1 POP PUSH27 0x184F03E93FF9F4DAA797ED6E38ED64BF6A1F010000000000000000 DUP4 LT PUSH2 0x910 JUMPI PUSH27 0x184F03E93FF9F4DAA797ED6E38ED64BF6A1F010000000000000000 DUP4 DUP2 PUSH2 0x906 JUMPI PUSH2 0x905 PUSH2 0xF57 JUMP JUMPDEST JUMPDEST DIV SWAP3 POP PUSH1 0x40 DUP2 ADD SWAP1 POP JUMPDEST PUSH14 0x4EE2D6D415B85ACEF8100000000 DUP4 LT PUSH2 0x94D JUMPI PUSH14 0x4EE2D6D415B85ACEF8100000000 DUP4 DUP2 PUSH2 0x943 JUMPI PUSH2 0x942 PUSH2 0xF57 JUMP JUMPDEST JUMPDEST DIV SWAP3 POP PUSH1 0x20 DUP2 ADD SWAP1 POP JUMPDEST PUSH7 0x2386F26FC10000 DUP4 LT PUSH2 0x97C JUMPI PUSH7 0x2386F26FC10000 DUP4 DUP2 PUSH2 0x972 JUMPI PUSH2 0x971 PUSH2 0xF57 JUMP JUMPDEST JUMPDEST DIV SWAP3 POP PUSH1 0x10 DUP2 ADD SWAP1 POP JUMPDEST PUSH4 0x5F5E100 DUP4 LT PUSH2 0x9A5 JUMPI PUSH4 0x5F5E100 DUP4 DUP2 PUSH2 0x99B JUMPI PUSH2 0x99A PUSH2 0xF57 JUMP JUMPDEST JUMPDEST DIV SWAP3 POP PUSH1 0x8 DUP2 ADD SWAP1 POP JUMPDEST PUSH2 0x2710 DUP4 LT PUSH2 0x9CA JUMPI PUSH2 0x2710 DUP4 DUP2 PUSH2 0x9C0 JUMPI PUSH2 0x9BF PUSH2 0xF57 JUMP JUMPDEST JUMPDEST DIV SWAP3 POP PUSH1 0x4 DUP2 ADD SWAP1 POP JUMPDEST PUSH1 0x64 DUP4 LT PUSH2 0x9ED JUMPI PUSH1 0x64 DUP4 DUP2 PUSH2 0x9E3 JUMPI PUSH2 0x9E2 PUSH2 0xF57 JUMP JUMPDEST JUMPDEST DIV SWAP3 POP PUSH1 0x2 DUP2 ADD SWAP1 POP JUMPDEST PUSH1 0xA DUP4 LT PUSH2 0x9FC JUMPI PUSH1 0x1 DUP2 ADD SWAP1 POP JUMPDEST DUP1 SWAP2 POP POP SWAP2 SWAP1 POP JUMP JUMPDEST PUSH0 DUP1 REVERT JUMPDEST PUSH0 DUP1 REVERT JUMPDEST PUSH0 PUSH8 0xFFFFFFFFFFFFFFFF DUP3 AND SWAP1 POP SWAP2 SWAP1 POP JUMP JUMPDEST PUSH2 0xA29 DUP2 PUSH2 0xA0D JUMP JUMPDEST DUP2 EQ PUSH2 0xA33 JUMPI PUSH0 DUP1 REVERT JUMPDEST POP JUMP JUMPDEST PUSH0 DUP2 CALLDATALOAD SWAP1 POP PUSH2 0xA44 DUP2 PUSH2 0xA20 JUMP JUMPDEST SWAP3 SWAP2 POP POP JUMP JUMPDEST PUSH0 PUSH4 0xFFFFFFFF DUP3 AND SWAP1 POP SWAP2 SWAP1 POP JUMP JUMPDEST PUSH2 0xA62 DUP2 PUSH2 0xA4A JUMP JUMPDEST DUP2 EQ PUSH2 0xA6C JUMPI PUSH0 DUP1 REVERT JUMPDEST POP JUMP JUMPDEST PUSH0 DUP2 CALLDATALOAD SWAP1 POP PUSH2 0xA7D DUP2 PUSH2 0xA59 JUMP JUMPDEST SWAP3 SWAP2 POP POP JUMP JUMPDEST PUSH0 DUP1 PUSH0 PUSH1 0x60 DUP5 DUP7 SUB SLT ISZERO PUSH2 0xA9A JUMPI PUSH2 0xA99 PUSH2 0xA05 JUMP JUMPDEST JUMPDEST PUSH0 PUSH2 0xAA7 DUP7 DUP3 DUP8 ADD PUSH2 0xA36 JUMP JUMPDEST SWAP4 POP POP PUSH1 0x20 PUSH2 0xAB8 DUP7 DUP3 DUP8 ADD PUSH2 0xA36 JUMP JUMPDEST SWAP3 POP POP PUSH1 0x40 PUSH2 0xAC9 DUP7 DUP3 DUP8 ADD PUSH2 0xA6F JUMP JUMPDEST SWAP2 POP POP SWAP3 POP SWAP3 POP SWAP3 JUMP JUMPDEST PUSH0 DUP2 MLOAD SWAP1 POP SWAP2 SWAP1 POP JUMP JUMPDEST PUSH0 DUP3 DUP3 MSTORE PUSH1 0x20 DUP3 ADD SWAP1 POP SWAP3 SWAP2 POP POP JUMP JUMPDEST PUSH0 JUMPDEST DUP4 DUP2 LT ISZERO PUSH2 0xB0A JUMPI DUP1 DUP3 ADD MLOAD DUP2 DUP5 ADD MSTORE PUSH1 0x20 DUP2 ADD SWAP1 POP PUSH2 0xAEF JUMP JUMPDEST PUSH0 DUP5 DUP5 ADD MSTORE POP POP POP POP JUMP JUMPDEST PUSH0 PUSH1 0x1F NOT PUSH1 0x1F DUP4 ADD AND SWAP1 POP SWAP2 SWAP1 POP JUMP JUMPDEST PUSH0 PUSH2 0xB2F DUP3 PUSH2 0xAD3 JUMP JUMPDEST PUSH2 0xB39 DUP2 DUP6 PUSH2 0xADD JUMP JUMPDEST SWAP4 POP PUSH2 0xB49 DUP2 DUP6 PUSH1 0x20 DUP7 ADD PUSH2 0xAED JUMP JUMPDEST PUSH2 0xB52 DUP2 PUSH2 0xB15 JUMP JUMPDEST DUP5 ADD SWAP2 POP POP SWAP3 SWAP2 POP POP JUMP JUMPDEST PUSH0 PUSH1 0x20 DUP3 ADD SWAP1 POP DUP2 DUP2 SUB PUSH0 DUP4 ADD MSTORE PUSH2 0xB75 DUP2 DUP5 PUSH2 0xB25 JUMP JUMPDEST SWAP1 POP SWAP3 SWAP2 POP POP JUMP JUMPDEST PUSH0 DUP1 REVERT JUMPDEST PUSH0 DUP1 REVERT JUMPDEST PUSH0 DUP1 REVERT JUMPDEST PUSH0 DUP1 DUP4 PUSH1 0x1F DUP5 ADD SLT PUSH2 0xB9E JUMPI PUSH2 0xB9D PUSH2 0xB7D JUMP JUMPDEST JUMPDEST DUP3 CALLDATALOAD SWAP1 POP PUSH8 0xFFFFFFFFFFFFFFFF DUP2 GT ISZERO PUSH2 0xBBB JUMPI PUSH2 0xBBA PUSH2 0xB81 JUMP JUMPDEST JUMPDEST PUSH1 0x20 DUP4 ADD SWAP2 POP DUP4 PUSH1 0x20 DUP3 MUL DUP4 ADD GT ISZERO PUSH2 0xBD7 JUMPI PUSH2 0xBD6 PUSH2 0xB85 JUMP JUMPDEST JUMPDEST SWAP3 POP SWAP3 SWAP1 POP JUMP JUMPDEST PUSH0 DUP1 DUP4 PUSH1 0x1F DUP5 ADD SLT PUSH2 0xBF3 JUMPI PUSH2 0xBF2 PUSH2 0xB7D JUMP JUMPDEST JUMPDEST DUP3 CALLDATALOAD SWAP1 POP PUSH8 0xFFFFFFFFFFFFFFFF DUP2 GT ISZERO PUSH2 0xC10 JUMPI PUSH2 0xC0F PUSH2 0xB81 JUMP JUMPDEST JUMPDEST PUSH1 0x20 DUP4 ADD SWAP2 POP DUP4 PUSH1 0x20 DUP3 MUL DUP4 ADD GT ISZERO PUSH2 0xC2C JUMPI PUSH2 0xC2B PUSH2 0xB85 JUMP JUMPDEST JUMPDEST SWAP3 POP SWAP3 SWAP1 POP JUMP JUMPDEST PUSH0 DUP1 PUSH0 DUP1 PUSH1 0x40 DUP6 DUP8 SUB SLT ISZERO PUSH2 0xC4B JUMPI PUSH2 0xC4A PUSH2 0xA05 JUMP JUMPDEST JUMPDEST PUSH0 DUP6 ADD CALLDATALOAD PUSH8 0xFFFFFFFFFFFFFFFF DUP2 GT ISZERO PUSH2 0xC68 JUMPI PUSH2 0xC67 PUSH2 0xA09 JUMP JUMPDEST JUMPDEST PUSH2 0xC74 DUP8 DUP3 DUP9 ADD PUSH2 0xB89 JUMP JUMPDEST SWAP5 POP SWAP5 POP POP PUSH1 0x20 DUP6 ADD CALLDATALOAD PUSH8 0xFFFFFFFFFFFFFFFF DUP2 GT ISZERO PUSH2 0xC97 JUMPI PUSH2 0xC96 PUSH2 0xA09 JUMP JUMPDEST JUMPDEST PUSH2 0xCA3 DUP8 DUP3 DUP9 ADD PUSH2 0xBDE JUMP JUMPDEST SWAP3 POP SWAP3 POP POP SWAP3 SWAP6 SWAP2 SWAP5 POP SWAP3 POP JUMP JUMPDEST PUSH0 DUP2 ISZERO ISZERO SWAP1 POP SWAP2 SWAP1 POP JUMP JUMPDEST PUSH2 0xCC5 DUP2 PUSH2 0xCB1 JUMP JUMPDEST DUP3 MSTORE POP POP JUMP JUMPDEST PUSH0 PUSH1 0x20 DUP3 ADD SWAP1 POP PUSH2 0xCDE PUSH0 DUP4 ADD DUP5 PUSH2 0xCBC JUMP JUMPDEST SWAP3 SWAP2 POP POP JUMP JUMPDEST PUSH0 DUP1 REVERT JUMPDEST PUSH0 PUSH2 0x140 DUP3 DUP5 SUB SLT ISZERO PUSH2 0xCFE JUMPI PUSH2 0xCFD PUSH2 0xCE4 JUMP JUMPDEST JUMPDEST DUP2 SWAP1 POP SWAP3 SWAP2 POP POP JUMP JUMPDEST PUSH0 PUSH1 0x20 DUP3 DUP5 SUB SLT ISZERO PUSH2 0xD1C JUMPI PUSH2 0xD1B PUSH2 0xA05 JUMP JUMPDEST JUMPDEST PUSH0 DUP3 ADD CALLDATALOAD PUSH8 0xFFFFFFFFFFFFFFFF DUP2 GT ISZERO PUSH2 0xD39 JUMPI PUSH2 0xD38 PUSH2 0xA09 JUMP JUMPDEST JUMPDEST PUSH2 0xD45 DUP5 DUP3 DUP6 ADD PUSH2 0xCE8 JUMP JUMPDEST SWAP2 POP POP SWAP3 SWAP2 POP POP JUMP JUMPDEST PUSH0 DUP2 SWAP1 POP SWAP2 SWAP1 POP JUMP JUMPDEST PUSH2 0xD60 DUP2 PUSH2 0xD4E JUMP JUMPDEST DUP2 EQ PUSH2 0xD6A JUMPI PUSH0 DUP1 REVERT JUMPDEST POP JUMP JUMPDEST PUSH0 DUP2 CALLDATALOAD SWAP1 POP PUSH2 0xD7B DUP2 PUSH2 0xD57 JUMP JUMPDEST SWAP3 SWAP2 POP POP JUMP JUMPDEST PUSH0 PUSH1 0x20 DUP3 DUP5 SUB SLT ISZERO PUSH2 0xD96 JUMPI PUSH2 0xD95 PUSH2 0xA05 JUMP JUMPDEST JUMPDEST PUSH0 PUSH2 0xDA3 DUP5 DUP3 DUP6 ADD PUSH2 0xD6D JUMP JUMPDEST SWAP2 POP POP SWAP3 SWAP2 POP POP JUMP JUMPDEST PUSH2 0xDB5 DUP2 PUSH2 0xA0D JUMP JUMPDEST DUP3 MSTORE POP POP JUMP JUMPDEST PUSH2 0xDC4 DUP2 PUSH2 0xA4A JUMP JUMPDEST DUP3 MSTORE POP POP JUMP JUMPDEST PUSH0 PUSH1 0x60 DUP3 ADD SWAP1 POP PUSH2 0xDDD PUSH0 DUP4 ADD DUP7 PUSH2 0xDAC JUMP JUMPDEST PUSH2 0xDEA PUSH1 0x20 DUP4 ADD DUP6 PUSH2 0xDAC JUMP JUMPDEST PUSH2 0xDF7 PUSH1 0x40 DUP4 ADD DUP5 PUSH2 0xDBB JUMP JUMPDEST SWAP5 SWAP4 POP POP POP POP JUMP JUMPDEST PUSH0 DUP2 SWAP1 POP SWAP3 SWAP2 POP POP JUMP JUMPDEST PUSH0 PUSH2 0xE13 DUP3 PUSH2 0xAD3 JUMP JUMPDEST PUSH2 0xE1D DUP2 DUP6 PUSH2 0xDFF JUMP JUMPDEST SWAP4 POP PUSH2 0xE2D DUP2 DUP6 PUSH1 0x20 DUP7 ADD PUSH2 0xAED JUMP JUMPDEST DUP1 DUP5 ADD SWAP2 POP POP SWAP3 SWAP2 POP POP JUMP JUMPDEST PUSH32 0x2E00000000000000000000000000000000000000000000000000000000000000 PUSH0 DUP3 ADD MSTORE POP JUMP JUMPDEST PUSH0 PUSH2 0xE6D PUSH1 0x1 DUP4 PUSH2 0xDFF JUMP JUMPDEST SWAP2 POP PUSH2 0xE78 DUP3 PUSH2 0xE39 JUMP JUMPDEST PUSH1 0x1 DUP3 ADD SWAP1 POP SWAP2 SWAP1 POP JUMP JUMPDEST PUSH0 PUSH2 0xE8E DUP3 DUP7 PUSH2 0xE09 JUMP JUMPDEST SWAP2 POP PUSH2 0xE99 DUP3 PUSH2 0xE61 JUMP JUMPDEST SWAP2 POP PUSH2 0xEA5 DUP3 DUP6 PUSH2 0xE09 JUMP JUMPDEST SWAP2 POP PUSH2 0xEB0 DUP3 PUSH2 0xE61 JUMP JUMPDEST SWAP2 POP PUSH2 0xEBC DUP3 DUP5 PUSH2 0xE09 JUMP JUMPDEST SWAP2 POP DUP2 SWAP1 POP SWAP5 SWAP4 POP POP POP POP JUMP JUMPDEST PUSH32 0x4E487B7100000000000000000000000000000000000000000000000000000000 PUSH0 MSTORE PUSH1 0x32 PUSH1 0x4 MSTORE PUSH1 0x24 PUSH0 REVERT JUMPDEST PUSH0 DUP1 REVERT JUMPDEST PUSH0 DUP1 REVERT JUMPDEST PUSH0 DUP1 REVERT JUMPDEST PUSH0 DUP3 CALLDATALOAD PUSH1 0x1 PUSH2 0x140 SUB DUP4 CALLDATASIZE SUB SUB DUP2 SLT PUSH2 0xF1E JUMPI PUSH2 0xF1D PUSH2 0xEF6 JUMP JUMPDEST JUMPDEST DUP1 DUP4 ADD SWAP2 POP POP SWAP3 SWAP2 POP POP JUMP JUMPDEST PUSH32 0x4E487B7100000000000000000000000000000000000000000000000000000000 PUSH0 MSTORE PUSH1 0x41 PUSH1 0x4 MSTORE PUSH1 0x24 PUSH0 REVERT JUMPDEST PUSH32 0x4E487B7100000000000000000000000000000000000000000000000000000000 PUSH0 MSTORE PUSH1 0x12 PUSH1 0x4 MSTORE PUSH1 0x24 PUSH0 REVERT JUMPDEST PUSH0 DUP1 DUP4 CALLDATALOAD PUSH1 0x1 PUSH1 0x20 SUB DUP5 CALLDATASIZE SUB SUB DUP2 SLT PUSH2 0xFA0 JUMPI PUSH2 0xF9F PUSH2 0xEF6 JUMP JUMPDEST JUMPDEST DUP1 DUP5 ADD SWAP3 POP DUP3 CALLDATALOAD SWAP2 POP PUSH8 0xFFFFFFFFFFFFFFFF DUP3 GT ISZERO PUSH2 0xFC2 JUMPI PUSH2 0xFC1 PUSH2 0xEFA JUMP JUMPDEST JUMPDEST PUSH1 0x20 DUP4 ADD SWAP3 POP PUSH1 0x1 DUP3 MUL CALLDATASIZE SUB DUP4 SGT ISZERO PUSH2 0xFDE JUMPI PUSH2 0xFDD PUSH2 0xEFE JUMP JUMPDEST JUMPDEST POP SWAP3 POP SWAP3 SWAP1 POP JUMP JUMPDEST PUSH2 0xFEF DUP2 PUSH2 0xD4E JUMP JUMPDEST DUP3 MSTORE POP POP JUMP JUMPDEST PUSH0 PUSH1 0x20 DUP3 ADD SWAP1 POP PUSH2 0x1008 PUSH0 DUP4 ADD DUP5 PUSH2 0xFE6 JUMP JUMPDEST SWAP3 SWAP2 POP POP JUMP INVALID LOG2 PUSH5 0x6970667358 0x22 SLT KECCAK256 DUP6 0xD0 0xFB PUSH3 0xF7D296 MLOAD ADDRESS BALANCE 0xCC DUP7 0xC0 CALLDATALOAD PUSH11 0xA2D109D41579522093BE97 0x29 0xB4 LOG3 0x27 DIV DUP2 PUSH5 0x736F6C6343 STOP ADDMOD XOR STOP CALLER "
				},
				"gasEstimates": {
					"creation": {
						"codeDepositCost": "832800",
						"executionCost": "infinite",
						"totalCost": "infinite"
					},
					"external": {
						"addEntry(uint64,uint64,uint32)": "infinite",
						"attest((bytes32,bytes32,uint64,uint64,uint64,bytes32,address,address,bool,bytes))": "infinite",
						"attestationsArray(uint256)": "infinite",
						"isPayable()": "330",
						"multiAttest((bytes32,bytes32,uint64,uint64,uint64,bytes32,address,address,bool,bytes)[],uint256[])": "infinite",
						"multiRevoke((bytes32,bytes32,uint64,uint64,uint64,bytes32,address,address,bool,bytes)[],uint256[])": "infinite",
						"revoke((bytes32,bytes32,uint64,uint64,uint64,bytes32,address,address,bool,bytes))": "infinite",
						"version()": "infinite"
					},
					"internal": {
						"onAttest(struct Attestation calldata,uint256)": "infinite",
						"onRevoke(struct Attestation calldata,uint256)": "infinite"
					}
				},
				"methodIdentifiers": {
					"addEntry(uint64,uint64,uint32)": "2a60bdd9",
					"attest((bytes32,bytes32,uint64,uint64,uint64,bytes32,address,address,bool,bytes))": "e60c3505",
					"attestationsArray(uint256)": "e4dad1c4",
					"isPayable()": "ce46e046",
					"multiAttest((bytes32,bytes32,uint64,uint64,uint64,bytes32,address,address,bool,bytes)[],uint256[])": "91db0b7e",
					"multiRevoke((bytes32,bytes32,uint64,uint64,uint64,bytes32,address,address,bool,bytes)[],uint256[])": "88e5b2d9",
					"revoke((bytes32,bytes32,uint64,uint64,uint64,bytes32,address,address,bool,bytes))": "e49617e1",
					"version()": "54fd4d50"
				}
			},
			"storageLayout": {
				"storage": [
					{
						"astId": 2335,
						"contract": "contracts/resolver.sol:LogResolver",
						"label": "attestationsArray",
						"offset": 0,
						"slot": "0",
						"type": "t_array(t_struct(Attestations)2331_storage)dyn_storage"
					}
				],
				"types": {
					"t_array(t_struct(Attestations)2331_storage)dyn_storage": {
						"base": "t_struct(Attestations)2331_storage",
						"encoding": "dynamic_array",
						"label": "struct LogResolver.Attestations[]",
						"numberOfBytes": "32"
					},
					"t_struct(Attestations)2331_storage": {
						"encoding": "inplace",
						"label": "struct LogResolver.Attestations",
						"members": [
							{
								"astId": 2326,
								"contract": "contracts/resolver.sol:LogResolver",
								"label": "userId",
								"offset": 0,
								"slot": "0",
								"type": "t_uint64"
							},
							{
								"astId": 2328,
								"contract": "contracts/resolver.sol:LogResolver",
								"label": "equipmentId",
								"offset": 8,
								"slot": "0",
								"type": "t_uint64"
							},
							{
								"astId": 2330,
								"contract": "contracts/resolver.sol:LogResolver",
								"label": "activationDays",
								"offset": 16,
								"slot": "0",
								"type": "t_uint32"
							}
						],
						"numberOfBytes": "32"
					},
					"t_uint32": {
						"encoding": "inplace",
						"label": "uint32",
						"numberOfBytes": "4"
					},
					"t_uint64": {
						"encoding": "inplace",
						"label": "uint64",
						"numberOfBytes": "8"
					}
				}
			},
			"userdoc": {
				"events": {
					"Attested(uint256)": {
						"notice": "Emitted to log a uint256 value."
					},
					"Revoked(uint256)": {
						"notice": "Emitted to log a uint256 value."
					}
				},
				"kind": "user",
				"methods": {
					"attest((bytes32,bytes32,uint64,uint64,uint64,bytes32,address,address,bool,bytes))": {
						"notice": "Processes an attestation and verifies whether it's valid."
					},
					"constructor": {
						"notice": "Creates a new LogResolver instance."
					},
					"isPayable()": {
						"notice": "Checks if the resolver can be sent ETH."
					},
					"multiAttest((bytes32,bytes32,uint64,uint64,uint64,bytes32,address,address,bool,bytes)[],uint256[])": {
						"notice": "Processes multiple attestations and verifies whether they are valid."
					},
					"multiRevoke((bytes32,bytes32,uint64,uint64,uint64,bytes32,address,address,bool,bytes)[],uint256[])": {
						"notice": "Processes revocation of multiple attestation and verifies they can be revoked."
					},
					"revoke((bytes32,bytes32,uint64,uint64,uint64,bytes32,address,address,bool,bytes))": {
						"notice": "Processes an attestation revocation and verifies if it can be revoked."
					},
					"version()": {
						"notice": "Returns the full semver contract version."
					}
				},
				"notice": "A sample schema resolver that logs a uint256 input.",
				"version": 1
			}
		}
	}
}